{"abi":[{"type":"constructor","inputs":[],"stateMutability":"nonpayable"},{"type":"function","name":"BASIS_POINTS_DIVISOR","inputs":[],"outputs":[{"name":"","type":"uint256","internalType":"uint256"}],"stateMutability":"view"},{"type":"function","name":"MAX_COOLDOWN_DURATION","inputs":[],"outputs":[{"name":"","type":"uint256","internalType":"uint256"}],"stateMutability":"view"},{"type":"function","name":"PRICE_PRECISION","inputs":[],"outputs":[{"name":"","type":"uint256","internalType":"uint256"}],"stateMutability":"view"},{"type":"function","name":"UPGRADE_INTERFACE_VERSION","inputs":[],"outputs":[{"name":"","type":"string","internalType":"string"}],"stateMutability":"view"},{"type":"function","name":"YTLP_PRECISION","inputs":[],"outputs":[{"name":"","type":"uint256","internalType":"uint256"}],"stateMutability":"view"},{"type":"function","name":"addLiquidityForAccount","inputs":[{"name":"_fundingAccount","type":"address","internalType":"address"},{"name":"_account","type":"address","internalType":"address"},{"name":"_token","type":"address","internalType":"address"},{"name":"_amount","type":"uint256","internalType":"uint256"},{"name":"_minUsdy","type":"uint256","internalType":"uint256"},{"name":"_minYtLP","type":"uint256","internalType":"uint256"}],"outputs":[{"name":"","type":"uint256","internalType":"uint256"}],"stateMutability":"nonpayable"},{"type":"function","name":"aumAddition","inputs":[],"outputs":[{"name":"","type":"uint256","internalType":"uint256"}],"stateMutability":"view"},{"type":"function","name":"aumDeduction","inputs":[],"outputs":[{"name":"","type":"uint256","internalType":"uint256"}],"stateMutability":"view"},{"type":"function","name":"cooldownDuration","inputs":[],"outputs":[{"name":"","type":"uint256","internalType":"uint256"}],"stateMutability":"view"},{"type":"function","name":"getAddLiquidityOutput","inputs":[{"name":"_token","type":"address","internalType":"address"},{"name":"_amount","type":"uint256","internalType":"uint256"}],"outputs":[{"name":"usdyAmount","type":"uint256","internalType":"uint256"},{"name":"ytLPMintAmount","type":"uint256","internalType":"uint256"}],"stateMutability":"view"},{"type":"function","name":"getAumInUsdy","inputs":[{"name":"_maximise","type":"bool","internalType":"bool"}],"outputs":[{"name":"","type":"uint256","internalType":"uint256"}],"stateMutability":"view"},{"type":"function","name":"getPrice","inputs":[{"name":"_maximise","type":"bool","internalType":"bool"}],"outputs":[{"name":"","type":"uint256","internalType":"uint256"}],"stateMutability":"view"},{"type":"function","name":"getRemoveLiquidityOutput","inputs":[{"name":"_tokenOut","type":"address","internalType":"address"},{"name":"_ytLPAmount","type":"uint256","internalType":"uint256"}],"outputs":[{"name":"usdyAmount","type":"uint256","internalType":"uint256"},{"name":"amountOut","type":"uint256","internalType":"uint256"}],"stateMutability":"view"},{"type":"function","name":"gov","inputs":[],"outputs":[{"name":"","type":"address","internalType":"address"}],"stateMutability":"view"},{"type":"function","name":"initialize","inputs":[{"name":"_ytVault","type":"address","internalType":"address"},{"name":"_usdy","type":"address","internalType":"address"},{"name":"_ytLP","type":"address","internalType":"address"},{"name":"_cooldownDuration","type":"uint256","internalType":"uint256"}],"outputs":[],"stateMutability":"nonpayable"},{"type":"function","name":"isHandler","inputs":[{"name":"","type":"address","internalType":"address"}],"outputs":[{"name":"","type":"bool","internalType":"bool"}],"stateMutability":"view"},{"type":"function","name":"lastAddedAt","inputs":[{"name":"","type":"address","internalType":"address"}],"outputs":[{"name":"","type":"uint256","internalType":"uint256"}],"stateMutability":"view"},{"type":"function","name":"onLPTransfer","inputs":[{"name":"_from","type":"address","internalType":"address"},{"name":"_to","type":"address","internalType":"address"}],"outputs":[],"stateMutability":"nonpayable"},{"type":"function","name":"proxiableUUID","inputs":[],"outputs":[{"name":"","type":"bytes32","internalType":"bytes32"}],"stateMutability":"view"},{"type":"function","name":"removeLiquidityForAccount","inputs":[{"name":"_account","type":"address","internalType":"address"},{"name":"_tokenOut","type":"address","internalType":"address"},{"name":"_ytLPAmount","type":"uint256","internalType":"uint256"},{"name":"_minOut","type":"uint256","internalType":"uint256"},{"name":"_receiver","type":"address","internalType":"address"}],"outputs":[{"name":"","type":"uint256","internalType":"uint256"}],"stateMutability":"nonpayable"},{"type":"function","name":"setAumAdjustment","inputs":[{"name":"_addition","type":"uint256","internalType":"uint256"},{"name":"_deduction","type":"uint256","internalType":"uint256"}],"outputs":[],"stateMutability":"nonpayable"},{"type":"function","name":"setCooldownDuration","inputs":[{"name":"_duration","type":"uint256","internalType":"uint256"}],"outputs":[],"stateMutability":"nonpayable"},{"type":"function","name":"setGov","inputs":[{"name":"_gov","type":"address","internalType":"address"}],"outputs":[],"stateMutability":"nonpayable"},{"type":"function","name":"setHandler","inputs":[{"name":"_handler","type":"address","internalType":"address"},{"name":"_isActive","type":"bool","internalType":"bool"}],"outputs":[],"stateMutability":"nonpayable"},{"type":"function","name":"upgradeToAndCall","inputs":[{"name":"newImplementation","type":"address","internalType":"address"},{"name":"data","type":"bytes","internalType":"bytes"}],"outputs":[],"stateMutability":"payable"},{"type":"function","name":"usdy","inputs":[],"outputs":[{"name":"","type":"address","internalType":"address"}],"stateMutability":"view"},{"type":"function","name":"ytLP","inputs":[],"outputs":[{"name":"","type":"address","internalType":"address"}],"stateMutability":"view"},{"type":"function","name":"ytVault","inputs":[],"outputs":[{"name":"","type":"address","internalType":"address"}],"stateMutability":"view"},{"type":"event","name":"AddLiquidity","inputs":[{"name":"account","type":"address","indexed":true,"internalType":"address"},{"name":"token","type":"address","indexed":true,"internalType":"address"},{"name":"amount","type":"uint256","indexed":false,"internalType":"uint256"},{"name":"aumInUsdy","type":"uint256","indexed":false,"internalType":"uint256"},{"name":"ytLPSupply","type":"uint256","indexed":false,"internalType":"uint256"},{"name":"usdyAmount","type":"uint256","indexed":false,"internalType":"uint256"},{"name":"mintAmount","type":"uint256","indexed":false,"internalType":"uint256"}],"anonymous":false},{"type":"event","name":"AumAdjustmentChanged","inputs":[{"name":"addition","type":"uint256","indexed":false,"internalType":"uint256"},{"name":"deduction","type":"uint256","indexed":false,"internalType":"uint256"}],"anonymous":false},{"type":"event","name":"CooldownDurationSet","inputs":[{"name":"duration","type":"uint256","indexed":false,"internalType":"uint256"}],"anonymous":false},{"type":"event","name":"CooldownInherited","inputs":[{"name":"from","type":"address","indexed":true,"internalType":"address"},{"name":"to","type":"address","indexed":true,"internalType":"address"},{"name":"cooldownTime","type":"uint256","indexed":false,"internalType":"uint256"}],"anonymous":false},{"type":"event","name":"GovChanged","inputs":[{"name":"oldGov","type":"address","indexed":true,"internalType":"address"},{"name":"newGov","type":"address","indexed":true,"internalType":"address"}],"anonymous":false},{"type":"event","name":"HandlerSet","inputs":[{"name":"handler","type":"address","indexed":true,"internalType":"address"},{"name":"isActive","type":"bool","indexed":false,"internalType":"bool"}],"anonymous":false},{"type":"event","name":"Initialized","inputs":[{"name":"version","type":"uint64","indexed":false,"internalType":"uint64"}],"anonymous":false},{"type":"event","name":"RemoveLiquidity","inputs":[{"name":"account","type":"address","indexed":true,"internalType":"address"},{"name":"token","type":"address","indexed":true,"internalType":"address"},{"name":"ytLPAmount","type":"uint256","indexed":false,"internalType":"uint256"},{"name":"aumInUsdy","type":"uint256","indexed":false,"internalType":"uint256"},{"name":"ytLPSupply","type":"uint256","indexed":false,"internalType":"uint256"},{"name":"usdyAmount","type":"uint256","indexed":false,"internalType":"uint256"},{"name":"amountOut","type":"uint256","indexed":false,"internalType":"uint256"}],"anonymous":false},{"type":"event","name":"Upgraded","inputs":[{"name":"implementation","type":"address","indexed":true,"internalType":"address"}],"anonymous":false},{"type":"error","name":"AddressEmptyCode","inputs":[{"name":"target","type":"address","internalType":"address"}]},{"type":"error","name":"CooldownNotPassed","inputs":[]},{"type":"error","name":"ERC1967InvalidImplementation","inputs":[{"name":"implementation","type":"address","internalType":"address"}]},{"type":"error","name":"ERC1967NonPayable","inputs":[]},{"type":"error","name":"FailedCall","inputs":[]},{"type":"error","name":"Forbidden","inputs":[]},{"type":"error","name":"InsufficientOutput","inputs":[]},{"type":"error","name":"InvalidAddress","inputs":[]},{"type":"error","name":"InvalidAmount","inputs":[]},{"type":"error","name":"InvalidDuration","inputs":[]},{"type":"error","name":"InvalidInitialization","inputs":[]},{"type":"error","name":"NotInitializing","inputs":[]},{"type":"error","name":"PrivateMode","inputs":[]},{"type":"error","name":"ReentrancyGuardReentrantCall","inputs":[]},{"type":"error","name":"SafeERC20FailedOperation","inputs":[{"name":"token","type":"address","internalType":"address"}]},{"type":"error","name":"UUPSUnauthorizedCallContext","inputs":[]},{"type":"error","name":"UUPSUnsupportedProxiableUUID","inputs":[{"name":"slot","type":"bytes32","internalType":"bytes32"}]}],"bytecode":{"object":"0x60a080604052346100c257306080525f516020611c885f395f51905f525460ff8160401c166100b3576002600160401b03196001600160401b03821601610060575b604051611bc190816100c78239608051818181610ea30152610f730152f35b6001600160401b0319166001600160401b039081175f516020611c885f395f51905f525581527fc7f505b2f371ae2175ee4913f4499e1f2633a7b5936321eed1cdaeb6115181d290602090a15f80610041565b63f92ee8a960e01b5f5260045ffd5b5f80fdfe6080806040526004361015610012575f80fd5b5f905f3560e01c908163126082cf146117795750806312d43a5114611752578063169476711461154e57806317eb2a1514611206578063196b68cb146111e85780631e9049cf146111ca578063275558ff146111a7578063352693151461118957806346ea87af1461114a5780634f1ef28614610ef757806352d1902d14610e9057806371d597ad14610a6557806384a08e6314610a3c5780638b770e1114610a035780639116c4ae1461099d57806395082d2514610975578063966be075146108f457806398d506e9146108cb5780639cb7de4b1461083f5780639d2b744914610748578063ad3cb1cc146106ec578063b172bb0c146106ce578063cef6ef27146106aa578063cf756fdf14610470578063cfad57a2146103dd578063e245b5af146103b1578063e348031b146103885763ef2f0cef14610152575f80fd5b346103855760403660031901126103855761016b611793565b600461017561192f565b6003546040516318160ddd60e01b81529260209184919082906001600160a01b03165afa9182156102f357849261034f575b50906101b86101bd92602435611836565b61185d565b600154604051637092736960e11b81526001600160a01b03808516600483015292939190921691602081602481865afa908115610344578591610312575b506c0c9f2c9cd04674edea4000000084028481046c0c9f2c9cd04674edea4000000014851517156102fe579161023660209261026b9461185d565b604051630802f92760e41b81526001600160a01b03909216600483015260248201819052939092839190829081906044820190565b03915afa9081156102f35784916102bd575b50612710039261271084116102a9575061029c60409361271092611836565b0482519182526020820152f35b634e487b7160e01b81526011600452602490fd5b90506020813d6020116102eb575b816102d8602093836117d5565b810103126102e757515f61027d565b5f80fd5b3d91506102cb565b6040513d86823e3d90fd5b634e487b7160e01b86526011600452602486fd5b90506020813d60201161033c575b8161032d602093836117d5565b810103126102e757515f6101fb565b3d9150610320565b6040513d87823e3d90fd5b91506020823d60201161037d575b8161036a602093836117d5565b810103126102e7579051906101b86101a7565b3d915061035d565b80fd5b50346103855780600319360112610385576003546040516001600160a01b039091168152602090f35b50346103855760203660031901126103855760206103d56103d0611827565b6119bc565b604051908152f35b5034610385576020366003190112610385576103f7611793565b8154906001600160a01b0382169033829003610461576001600160a01b0316918215610452576001600160a01b031916821783557f3d1e4c3a68fed9f4f8315582b7297cf8fa264bc8e6704287603ba8c72bf05ac28380a380f35b63e6c4247b60e01b8452600484fd5b631dd2188d60e31b8452600484fd5b50346103855760803660031901126103855761048a611793565b6104926117a9565b61049a6117bf565b606435915f516020611b6c5f395f51905f52549360ff8560401c16159467ffffffffffffffff8116801590816106a2575b6001149081610698575b15908161068f575b506106805767ffffffffffffffff1981166001175f516020611b6c5f395f51905f525585610654575b506001600160a01b031680158015610643575b8015610632575b610623576202a300841161061457610536611aa2565b61053e611aa2565b60015f516020611b4c5f395f51905f5255610557611aa2565b336001600160601b0360a01b8754161786556001600160601b0360a01b600154161760015560018060a01b03166001600160601b0360a01b600254161760025560018060a01b03166001600160601b0360a01b60035416176003556004556105bc5780f35b68ff0000000000000000195f516020611b6c5f395f51905f5254165f516020611b6c5f395f51905f52557fc7f505b2f371ae2175ee4913f4499e1f2633a7b5936321eed1cdaeb6115181d2602060405160018152a180f35b637616640160e01b8652600486fd5b63e6c4247b60e01b8652600486fd5b506001600160a01b03831615610520565b506001600160a01b03821615610519565b68ffffffffffffffffff191668010000000000000001175f516020611b6c5f395f51905f52555f610506565b63f92ee8a960e01b8752600487fd5b9050155f6104dd565b303b1591506104d5565b8791506104cb565b50346103855760203660031901126103855760206103d56106c9611827565b611975565b50346103855780600319360112610385576020600854604051908152f35b50346103855780600319360112610385576040805161070b82826117d5565b6005815260208101640352e302e360dc1b81528251938492602084525180928160208601528585015e828201840152601f01601f19168101030190f35b503461038557604036600319011261038557610762611793565b61076a6117a9565b6003549091906001600160a01b03163303610830576001600160a01b031680835260056020526040832054151580610806575b6107a5578280f35b808352600560205260408320549160018060a01b0316918284526005602052604084205580835260056020527fd8df78c6b89292ff4a7e37abee095a7239202691511de6551aca4de6e3d2d5e060206040852054604051908152a35f808280f35b506001600160a01b038216835260056020818152604080862054848752929091528420541161079d565b631dd2188d60e31b8352600483fd5b503461038557604036600319011261038557610859611793565b602435908115158092036108c75782546001600160a01b031633036108305760207f6cc67219f62a9e5d66cc9f2a62e16634cffcf48facd698a829bafcc1ad2c5c839160018060a01b031692838552600682526040852060ff1981541660ff8316179055604051908152a280f35b8280fd5b50346103855780600319360112610385576002546040516001600160a01b039091168152602090f35b5034610385576020366003190112610385578054600435906001600160a01b03163303610966576202a3008111610957576020817f22a843a6490ffd6fc66fbaf9d670f2dd193309268a6305732d1d4055d96af09692600455604051908152a180f35b637616640160e01b8252600482fd5b631dd2188d60e31b8252600482fd5b503461038557806003193601126103855760206040516c0c9f2c9cd04674edea400000008152f35b503461038557604036600319011261038557805460043590602435906001600160a01b0316330361083057816040917f176f78a4992d2b30c229bcf4ecdc8dcf563363c7073e5852a70469a32747c49f936007558060085582519182526020820152a180f35b5034610385576020366003190112610385576020906040906001600160a01b03610a2b611793565b168152600583522054604051908152f35b50346103855780600319360112610385576001546040516001600160a01b039091168152602090f35b50346103855760a036600319011261038557610a7f611793565b90610a886117a9565b60843592604435916001600160a01b0385168503610e8c57338452600660205260ff6040852054161580610e78575b61046157610ac3611a6a565b8215610e69576001600160a01b03821680855260056020526040852054600454919391610aef91611888565b4210610e5a57610afd61192f565b6003546040516318160ddd60e01b81529197906001600160a01b0316602083600481845afa928315610dc5578893610e26575b50610b3f836101b88b8a611836565b93813b15610dd057604051632770a7eb60e21b81526001600160a01b03919091166004820152602481018890529088908290604490829084905af18015610dc557908891610e11575b50506002546040516370a0823160e01b81523060048201526001600160a01b0390911690602081602481855afa908115610e06578991610dd4575b50808511610d64575b505060025460015460405163a9059cbb60e01b60208083019182526001600160a01b0393841660248401526044808401899052835292909316928a91610c136064826117d5565b519082855af115610d595787513d610d505750803b155b610d3e5750600154604051633d33258360e01b81526001600160a01b03868116600483015292831660248201529791602091899160449183918691165af1968715610d31578197610cfd575b506064358710610cee5750604080519586526020868101989098528501526060840152608083018490526001600160a01b0316917f87b9679bb9a4944bafa98c267e7cd4a00ab29fed48afdefae25f0fca5da27940908060a081015b0390a360015f516020611b4c5f395f51905f5255604051908152f35b63bb2875c360e01b8152600490fd5b9096506020813d602011610d29575b81610d19602093836117d5565b810103126102e75751955f610c76565b3d9150610d0c565b50604051903d90823e3d90fd5b635274afe760e01b8852600452602487fd5b60011415610c2a565b6040513d89823e3d90fd5b610d6e908561187b565b813b15610dd0576040516340c10f1960e01b815230600482015260248101919091529088908290604490829084905af18015610dc55790889115610bcc5781610db6916117d5565b610dc157865f610bcc565b8680fd5b6040513d8a823e3d90fd5b8880fd5b90506020813d602011610dfe575b81610def602093836117d5565b810103126102e757515f610bc3565b3d9150610de2565b6040513d8b823e3d90fd5b81610e1b916117d5565b610dc157865f610b88565b9092506020813d602011610e52575b81610e42602093836117d5565b810103126102e75751915f610b30565b3d9150610e35565b632792526560e21b8552600485fd5b63162908e360e11b8452600484fd5b5083546001600160a01b0316331415610ab7565b8380fd5b50346103855780600319360112610385577f00000000000000000000000000000000000000000000000000000000000000006001600160a01b03163003610ee85760206040515f516020611b2c5f395f51905f528152f35b63703e46dd60e11b8152600490fd5b50604036600319011261038557610f0c611793565b6024359067ffffffffffffffff82116108c757366023830112156108c75781600401359083610f3a8361180b565b93610f4860405195866117d5565b838552602085019336602482840101116108c757806024602093018637850101526001600160a01b037f000000000000000000000000000000000000000000000000000000000000000016308114908115611128575b506111195783546001600160a01b03163303610461576040516352d1902d60e01b81526001600160a01b0382169390602081600481885afa8691816110e5575b50610ff757634c9c8ce360e01b86526004859052602486fd5b93845f516020611b2c5f395f51905f528796036110d35750823b156110c1575f516020611b2c5f395f51905f5280546001600160a01b031916821790558491907fbc7cd75a20ee27fd9adebab32041f755214dbc6bffa90cc0225b39da2e5c2d3b8380a28051156110a65761109a9382915190845af43d1561109e573d9161107e8361180b565b9261108c60405194856117d5565b83523d85602085013e611acd565b5080f35b606091611acd565b50505050346110b25780f35b63b398979f60e01b8152600490fd5b634c9c8ce360e01b8552600452602484fd5b632a87526960e21b8652600452602485fd5b9091506020813d602011611111575b81611101602093836117d5565b81010312610dc15751905f610fde565b3d91506110f4565b63703e46dd60e11b8452600484fd5b5f516020611b2c5f395f51905f52546001600160a01b0316141590505f610f9e565b50346103855760203660031901126103855760209060ff906040906001600160a01b03611175611793565b168152600684522054166040519015158152f35b50346103855780600319360112610385576020600454604051908152f35b50346103855780600319360112610385576020604051670de0b6b3a76400008152f35b503461038557806003193601126103855760206040516202a3008152f35b50346103855780600319360112610385576020600754604051908152f35b50346102e75760c03660031901126102e757611220611793565b906112296117a9565b916112326117bf565b9260643592335f52600660205260ff60405f205416158061153a575b61152b5761125a611a6a565b831561151c5760049361126b611895565b6003546040516318160ddd60e01b81529691929160209188919082906001600160a01b03165afa958615611449575f966114e8575b506001546040516323b872dd60e01b81526001600160a01b039687166004820152908616602482015260448101829052948716946020816064815f8a5af18015611449576114ab575b50600154604051630177e3b360e51b81526001600160a01b03988916600482015230602482015297602091899160449183915f91165af1968715611449575f97611477575b50608435871061145457856114635786955b60a4358710611454576003546001600160a01b031697883b156102e7576040516340c10f1960e01b81526001600160a01b038716600482015260248101899052985f908a90604490829084905af191821561144957602099899361140b575b506001600160a01b0390961680865260058a526040958690204290558551938452602084019490945293820194909452606081019290925260808201929092527f38dc38b96482be64113daffd8d464ebda93e856b70ccfc605e69ccf892ab981e908060a08101610cd2565b7f38dc38b96482be64113daffd8d464ebda93e856b70ccfc605e69ccf892ab981e96509061143e5f610cd29594936117d5565b5f965090919261139f565b6040513d5f823e3d90fd5b63bb2875c360e01b5f5260045ffd5b611471826101b8888a611836565b95611340565b9096506020813d6020116114a3575b81611493602093836117d5565b810103126102e75751955f61132e565b3d9150611486565b6020813d6020116114e0575b816114c4602093836117d5565b810103126102e757519687151588036102e757965060206112e9565b3d91506114b7565b9095506020813d602011611514575b81611504602093836117d5565b810103126102e75751945f6112a0565b3d91506114f7565b63162908e360e11b5f5260045ffd5b631dd2188d60e31b5f5260045ffd5b505f546001600160a01b031633141561124e565b346102e75760403660031901126102e757611567611793565b6001546040516340d3096b60e11b81526001600160a01b03838116600483015290926024803593919290911690602090859081845afa938415611449575f9461171c575b50611608916020916c0c9f2c9cd04674edea400000006115cb8787611836565b600254604051636d099c0b60e11b81526001600160a01b039586166004820152941660248501520460448301529092839190829081906064820190565b03915afa908115611449575f916116e7575b506004926116478361271061164061164c956c0c9f2c9cd04674edea4000000097611836565b049061187b565b611836565b04611655611895565b6003546040516318160ddd60e01b81529360209185919082906001600160a01b03165afa908115611449575f916116b2575b60409350816116a0575050805b82519182526020820152f35b6101b86116ad9284611836565b611694565b90506020833d6020116116df575b816116cd602093836117d5565b810103126102e7576040925190611687565b3d91506116c0565b9190506020823d602011611714575b81611703602093836117d5565b810103126102e7579051600461161a565b3d91506116f6565b9093506020813d60201161174a575b81611738602093836117d5565b810103126102e75751926116086115ab565b3d915061172b565b346102e7575f3660031901126102e7575f546040516001600160a01b039091168152602090f35b346102e7575f3660031901126102e7578061271060209252f35b600435906001600160a01b03821682036102e757565b602435906001600160a01b03821682036102e757565b604435906001600160a01b03821682036102e757565b90601f8019910116810190811067ffffffffffffffff8211176117f757604052565b634e487b7160e01b5f52604160045260245ffd5b67ffffffffffffffff81116117f757601f01601f191660200190565b6004359081151582036102e757565b8181029291811591840414171561184957565b634e487b7160e01b5f52601160045260245ffd5b8115611867570490565b634e487b7160e01b5f52601260045260245ffd5b9190820391821161184957565b9190820180921161184957565b60018054604051635d59f4f360e11b81526004810192909252602090829060249082906001600160a01b03165afa8015611449575f906118fb575b6118de915060075490611888565b600854808211156118f5576118f29161187b565b90565b50505f90565b506020813d602011611927575b81611915602093836117d5565b810103126102e7576118de90516118d0565b3d9150611908565b600154604051635d59f4f360e11b81525f600482015290602090829060249082906001600160a01b03165afa8015611449575f906118fb576118de915060075490611888565b600154604051635d59f4f360e11b81529115156004830152602090829060249082906001600160a01b03165afa8015611449575f906118fb576118de915060075490611888565b6119c590611975565b6003546040516318160ddd60e01b815290602090829060049082906001600160a01b03165afa908115611449575f91611a38575b508015611a2a57670de0b6b3a7640000820291808304670de0b6b3a76400001490151715611849576118f29161185d565b5050670de0b6b3a764000090565b90506020813d602011611a62575b81611a53602093836117d5565b810103126102e757515f6119f9565b3d9150611a46565b60025f516020611b4c5f395f51905f525414611a935760025f516020611b4c5f395f51905f5255565b633ee5aeb560e01b5f5260045ffd5b60ff5f516020611b6c5f395f51905f525460401c1615611abe57565b631afcd79f60e31b5f5260045ffd5b90611af15750805115611ae257602081519101fd5b63d6bda27560e01b5f5260045ffd5b81511580611b22575b611b02575090565b639996b31560e01b5f9081526001600160a01b0391909116600452602490fd5b50803b15611afa56fe360894a13ba1a3210667c828492db98dca3e2076cc3735a920a3ca505d382bbc9b779b17422d0df92223018b32b4d1fa46e071723d6817e2486d003becc55f00f0c57e16840df040f15088dc2f81fe391c3923bec73e23a9662efc9c229c6a00a26469706673582212202979b321dc143decdee637e85d9b9ce1e93da6fe205c1815e54e28cbe35346e764736f6c634300081e0033f0c57e16840df040f15088dc2f81fe391c3923bec73e23a9662efc9c229c6a00","linkReferences":{}},"methodIdentifiers":{"BASIS_POINTS_DIVISOR()":"126082cf","MAX_COOLDOWN_DURATION()":"1e9049cf","PRICE_PRECISION()":"95082d25","UPGRADE_INTERFACE_VERSION()":"ad3cb1cc","YTLP_PRECISION()":"275558ff","addLiquidityForAccount(address,address,address,uint256,uint256,uint256)":"17eb2a15","aumAddition()":"196b68cb","aumDeduction()":"b172bb0c","cooldownDuration()":"35269315","getAddLiquidityOutput(address,uint256)":"16947671","getAumInUsdy(bool)":"cef6ef27","getPrice(bool)":"e245b5af","getRemoveLiquidityOutput(address,uint256)":"ef2f0cef","gov()":"12d43a51","initialize(address,address,address,uint256)":"cf756fdf","isHandler(address)":"46ea87af","lastAddedAt(address)":"8b770e11","onLPTransfer(address,address)":"9d2b7449","proxiableUUID()":"52d1902d","removeLiquidityForAccount(address,address,uint256,uint256,address)":"71d597ad","setAumAdjustment(uint256,uint256)":"9116c4ae","setCooldownDuration(uint256)":"966be075","setGov(address)":"cfad57a2","setHandler(address,bool)":"9cb7de4b","upgradeToAndCall(address,bytes)":"4f1ef286","usdy()":"98d506e9","ytLP()":"e348031b","ytVault()":"84a08e63"},"id":4}