{"abi":[{"type":"constructor","inputs":[],"stateMutability":"nonpayable"},{"type":"function","name":"UPGRADE_INTERFACE_VERSION","inputs":[],"outputs":[{"name":"","type":"string","internalType":"string"}],"stateMutability":"view"},{"type":"function","name":"absorb","inputs":[{"name":"borrower","type":"address","internalType":"address"}],"outputs":[],"stateMutability":"nonpayable"},{"type":"function","name":"absorbMultiple","inputs":[{"name":"absorber","type":"address","internalType":"address"},{"name":"accounts","type":"address[]","internalType":"address[]"}],"outputs":[],"stateMutability":"nonpayable"},{"type":"function","name":"accrueInterest","inputs":[],"outputs":[],"stateMutability":"nonpayable"},{"type":"function","name":"assetConfigs","inputs":[{"name":"","type":"address","internalType":"address"}],"outputs":[{"name":"asset","type":"address","internalType":"address"},{"name":"decimals","type":"uint8","internalType":"uint8"},{"name":"borrowCollateralFactor","type":"uint64","internalType":"uint64"},{"name":"liquidateCollateralFactor","type":"uint64","internalType":"uint64"},{"name":"liquidationFactor","type":"uint64","internalType":"uint64"},{"name":"supplyCap","type":"uint128","internalType":"uint128"}],"stateMutability":"view"},{"type":"function","name":"assetList","inputs":[{"name":"","type":"uint256","internalType":"uint256"}],"outputs":[{"name":"","type":"address","internalType":"address"}],"stateMutability":"view"},{"type":"function","name":"baseBorrowMin","inputs":[],"outputs":[{"name":"","type":"uint104","internalType":"uint104"}],"stateMutability":"view"},{"type":"function","name":"baseToken","inputs":[],"outputs":[{"name":"","type":"address","internalType":"address"}],"stateMutability":"view"},{"type":"function","name":"borrowBalanceOf","inputs":[{"name":"account","type":"address","internalType":"address"}],"outputs":[{"name":"","type":"uint256","internalType":"uint256"}],"stateMutability":"view"},{"type":"function","name":"borrowIndex","inputs":[],"outputs":[{"name":"","type":"uint256","internalType":"uint256"}],"stateMutability":"view"},{"type":"function","name":"borrowKink","inputs":[],"outputs":[{"name":"","type":"uint64","internalType":"uint64"}],"stateMutability":"view"},{"type":"function","name":"borrowPerSecondInterestRateBase","inputs":[],"outputs":[{"name":"","type":"uint64","internalType":"uint64"}],"stateMutability":"view"},{"type":"function","name":"borrowPerSecondInterestRateSlopeHigh","inputs":[],"outputs":[{"name":"","type":"uint64","internalType":"uint64"}],"stateMutability":"view"},{"type":"function","name":"borrowPerSecondInterestRateSlopeLow","inputs":[],"outputs":[{"name":"","type":"uint64","internalType":"uint64"}],"stateMutability":"view"},{"type":"function","name":"buyCollateral","inputs":[{"name":"asset","type":"address","internalType":"address"},{"name":"minAmount","type":"uint256","internalType":"uint256"},{"name":"baseAmount","type":"uint256","internalType":"uint256"},{"name":"recipient","type":"address","internalType":"address"}],"outputs":[],"stateMutability":"nonpayable"},{"type":"function","name":"collateralReserves","inputs":[{"name":"","type":"address","internalType":"address"}],"outputs":[{"name":"","type":"uint256","internalType":"uint256"}],"stateMutability":"view"},{"type":"function","name":"getBalance","inputs":[{"name":"account","type":"address","internalType":"address"}],"outputs":[{"name":"","type":"int256","internalType":"int256"}],"stateMutability":"view"},{"type":"function","name":"getBorrowRate","inputs":[],"outputs":[{"name":"","type":"uint64","internalType":"uint64"}],"stateMutability":"view"},{"type":"function","name":"getCollateral","inputs":[{"name":"account","type":"address","internalType":"address"},{"name":"asset","type":"address","internalType":"address"}],"outputs":[{"name":"","type":"uint256","internalType":"uint256"}],"stateMutability":"view"},{"type":"function","name":"getCollateralReserves","inputs":[{"name":"asset","type":"address","internalType":"address"}],"outputs":[{"name":"","type":"uint256","internalType":"uint256"}],"stateMutability":"view"},{"type":"function","name":"getReserves","inputs":[],"outputs":[{"name":"","type":"int256","internalType":"int256"}],"stateMutability":"view"},{"type":"function","name":"getSupplyRate","inputs":[],"outputs":[{"name":"","type":"uint64","internalType":"uint64"}],"stateMutability":"view"},{"type":"function","name":"getTotalBorrow","inputs":[],"outputs":[{"name":"","type":"uint256","internalType":"uint256"}],"stateMutability":"view"},{"type":"function","name":"getTotalSupply","inputs":[],"outputs":[{"name":"","type":"uint256","internalType":"uint256"}],"stateMutability":"view"},{"type":"function","name":"getUtilization","inputs":[],"outputs":[{"name":"","type":"uint256","internalType":"uint256"}],"stateMutability":"view"},{"type":"function","name":"initialize","inputs":[{"name":"config","type":"tuple","internalType":"struct LendingConfiguration.Configuration","components":[{"name":"baseToken","type":"address","internalType":"address"},{"name":"lendingPriceSource","type":"address","internalType":"address"},{"name":"supplyKink","type":"uint64","internalType":"uint64"},{"name":"supplyPerYearInterestRateSlopeLow","type":"uint64","internalType":"uint64"},{"name":"supplyPerYearInterestRateSlopeHigh","type":"uint64","internalType":"uint64"},{"name":"supplyPerYearInterestRateBase","type":"uint64","internalType":"uint64"},{"name":"borrowKink","type":"uint64","internalType":"uint64"},{"name":"borrowPerYearInterestRateSlopeLow","type":"uint64","internalType":"uint64"},{"name":"borrowPerYearInterestRateSlopeHigh","type":"uint64","internalType":"uint64"},{"name":"borrowPerYearInterestRateBase","type":"uint64","internalType":"uint64"},{"name":"storeFrontPriceFactor","type":"uint64","internalType":"uint64"},{"name":"baseBorrowMin","type":"uint104","internalType":"uint104"},{"name":"targetReserves","type":"uint104","internalType":"uint104"},{"name":"assetConfigs","type":"tuple[]","internalType":"struct LendingConfiguration.AssetConfig[]","components":[{"name":"asset","type":"address","internalType":"address"},{"name":"decimals","type":"uint8","internalType":"uint8"},{"name":"borrowCollateralFactor","type":"uint64","internalType":"uint64"},{"name":"liquidateCollateralFactor","type":"uint64","internalType":"uint64"},{"name":"liquidationFactor","type":"uint64","internalType":"uint64"},{"name":"supplyCap","type":"uint128","internalType":"uint128"}]}]}],"outputs":[],"stateMutability":"nonpayable"},{"type":"function","name":"isLiquidatable","inputs":[{"name":"account","type":"address","internalType":"address"}],"outputs":[{"name":"","type":"bool","internalType":"bool"}],"stateMutability":"view"},{"type":"function","name":"lastAccrualTime","inputs":[],"outputs":[{"name":"","type":"uint256","internalType":"uint256"}],"stateMutability":"view"},{"type":"function","name":"lendingPriceSource","inputs":[],"outputs":[{"name":"","type":"address","internalType":"address"}],"stateMutability":"view"},{"type":"function","name":"owner","inputs":[],"outputs":[{"name":"","type":"address","internalType":"address"}],"stateMutability":"view"},{"type":"function","name":"pause","inputs":[],"outputs":[],"stateMutability":"nonpayable"},{"type":"function","name":"paused","inputs":[],"outputs":[{"name":"","type":"bool","internalType":"bool"}],"stateMutability":"view"},{"type":"function","name":"proxiableUUID","inputs":[],"outputs":[{"name":"","type":"bytes32","internalType":"bytes32"}],"stateMutability":"view"},{"type":"function","name":"quoteCollateral","inputs":[{"name":"asset","type":"address","internalType":"address"},{"name":"baseAmount","type":"uint256","internalType":"uint256"}],"outputs":[{"name":"","type":"uint256","internalType":"uint256"}],"stateMutability":"view"},{"type":"function","name":"renounceOwnership","inputs":[],"outputs":[],"stateMutability":"nonpayable"},{"type":"function","name":"setTargetReserves","inputs":[{"name":"newTargetReserves","type":"uint104","internalType":"uint104"}],"outputs":[],"stateMutability":"nonpayable"},{"type":"function","name":"storeFrontPriceFactor","inputs":[],"outputs":[{"name":"","type":"uint64","internalType":"uint64"}],"stateMutability":"view"},{"type":"function","name":"supply","inputs":[{"name":"amount","type":"uint256","internalType":"uint256"}],"outputs":[],"stateMutability":"nonpayable"},{"type":"function","name":"supplyBalanceOf","inputs":[{"name":"account","type":"address","internalType":"address"}],"outputs":[{"name":"","type":"uint256","internalType":"uint256"}],"stateMutability":"view"},{"type":"function","name":"supplyCollateral","inputs":[{"name":"asset","type":"address","internalType":"address"},{"name":"amount","type":"uint256","internalType":"uint256"}],"outputs":[],"stateMutability":"nonpayable"},{"type":"function","name":"supplyIndex","inputs":[],"outputs":[{"name":"","type":"uint256","internalType":"uint256"}],"stateMutability":"view"},{"type":"function","name":"supplyKink","inputs":[],"outputs":[{"name":"","type":"uint64","internalType":"uint64"}],"stateMutability":"view"},{"type":"function","name":"supplyPerSecondInterestRateBase","inputs":[],"outputs":[{"name":"","type":"uint64","internalType":"uint64"}],"stateMutability":"view"},{"type":"function","name":"supplyPerSecondInterestRateSlopeHigh","inputs":[],"outputs":[{"name":"","type":"uint64","internalType":"uint64"}],"stateMutability":"view"},{"type":"function","name":"supplyPerSecondInterestRateSlopeLow","inputs":[],"outputs":[{"name":"","type":"uint64","internalType":"uint64"}],"stateMutability":"view"},{"type":"function","name":"targetReserves","inputs":[],"outputs":[{"name":"","type":"uint104","internalType":"uint104"}],"stateMutability":"view"},{"type":"function","name":"totalBorrowBase","inputs":[],"outputs":[{"name":"","type":"uint104","internalType":"uint104"}],"stateMutability":"view"},{"type":"function","name":"totalSupplyBase","inputs":[],"outputs":[{"name":"","type":"uint104","internalType":"uint104"}],"stateMutability":"view"},{"type":"function","name":"transferOwnership","inputs":[{"name":"newOwner","type":"address","internalType":"address"}],"outputs":[],"stateMutability":"nonpayable"},{"type":"function","name":"unpause","inputs":[],"outputs":[],"stateMutability":"nonpayable"},{"type":"function","name":"upgradeToAndCall","inputs":[{"name":"newImplementation","type":"address","internalType":"address"},{"name":"data","type":"bytes","internalType":"bytes"}],"outputs":[],"stateMutability":"payable"},{"type":"function","name":"userBasic","inputs":[{"name":"","type":"address","internalType":"address"}],"outputs":[{"name":"principal","type":"int104","internalType":"int104"}],"stateMutability":"view"},{"type":"function","name":"userCollateral","inputs":[{"name":"","type":"address","internalType":"address"},{"name":"","type":"address","internalType":"address"}],"outputs":[{"name":"","type":"uint256","internalType":"uint256"}],"stateMutability":"view"},{"type":"function","name":"withdraw","inputs":[{"name":"amount","type":"uint256","internalType":"uint256"}],"outputs":[],"stateMutability":"nonpayable"},{"type":"function","name":"withdrawCollateral","inputs":[{"name":"asset","type":"address","internalType":"address"},{"name":"amount","type":"uint256","internalType":"uint256"}],"outputs":[],"stateMutability":"nonpayable"},{"type":"function","name":"withdrawReserves","inputs":[{"name":"to","type":"address","internalType":"address"},{"name":"amount","type":"uint256","internalType":"uint256"}],"outputs":[],"stateMutability":"nonpayable"},{"type":"event","name":"AbsorbCollateral","inputs":[{"name":"absorber","type":"address","indexed":true,"internalType":"address"},{"name":"borrower","type":"address","indexed":true,"internalType":"address"},{"name":"asset","type":"address","indexed":true,"internalType":"address"},{"name":"collateralAbsorbed","type":"uint256","indexed":false,"internalType":"uint256"},{"name":"usdValue","type":"uint256","indexed":false,"internalType":"uint256"}],"anonymous":false},{"type":"event","name":"AbsorbDebt","inputs":[{"name":"absorber","type":"address","indexed":true,"internalType":"address"},{"name":"borrower","type":"address","indexed":true,"internalType":"address"},{"name":"basePaidOut","type":"uint256","indexed":false,"internalType":"uint256"},{"name":"usdValue","type":"uint256","indexed":false,"internalType":"uint256"}],"anonymous":false},{"type":"event","name":"BuyCollateral","inputs":[{"name":"buyer","type":"address","indexed":true,"internalType":"address"},{"name":"asset","type":"address","indexed":true,"internalType":"address"},{"name":"baseAmount","type":"uint256","indexed":false,"internalType":"uint256"},{"name":"collateralAmount","type":"uint256","indexed":false,"internalType":"uint256"}],"anonymous":false},{"type":"event","name":"Initialized","inputs":[{"name":"version","type":"uint64","indexed":false,"internalType":"uint64"}],"anonymous":false},{"type":"event","name":"OwnershipTransferred","inputs":[{"name":"previousOwner","type":"address","indexed":true,"internalType":"address"},{"name":"newOwner","type":"address","indexed":true,"internalType":"address"}],"anonymous":false},{"type":"event","name":"Paused","inputs":[{"name":"account","type":"address","indexed":false,"internalType":"address"}],"anonymous":false},{"type":"event","name":"Supply","inputs":[{"name":"from","type":"address","indexed":true,"internalType":"address"},{"name":"dst","type":"address","indexed":true,"internalType":"address"},{"name":"amount","type":"uint256","indexed":false,"internalType":"uint256"}],"anonymous":false},{"type":"event","name":"SupplyCollateral","inputs":[{"name":"from","type":"address","indexed":true,"internalType":"address"},{"name":"dst","type":"address","indexed":true,"internalType":"address"},{"name":"asset","type":"address","indexed":true,"internalType":"address"},{"name":"amount","type":"uint256","indexed":false,"internalType":"uint256"}],"anonymous":false},{"type":"event","name":"TargetReservesUpdated","inputs":[{"name":"targetReserves","type":"uint104","indexed":false,"internalType":"uint104"}],"anonymous":false},{"type":"event","name":"Unpaused","inputs":[{"name":"account","type":"address","indexed":false,"internalType":"address"}],"anonymous":false},{"type":"event","name":"Upgraded","inputs":[{"name":"implementation","type":"address","indexed":true,"internalType":"address"}],"anonymous":false},{"type":"event","name":"Withdraw","inputs":[{"name":"src","type":"address","indexed":true,"internalType":"address"},{"name":"to","type":"address","indexed":true,"internalType":"address"},{"name":"amount","type":"uint256","indexed":false,"internalType":"uint256"}],"anonymous":false},{"type":"event","name":"WithdrawCollateral","inputs":[{"name":"src","type":"address","indexed":true,"internalType":"address"},{"name":"to","type":"address","indexed":true,"internalType":"address"},{"name":"asset","type":"address","indexed":true,"internalType":"address"},{"name":"amount","type":"uint256","indexed":false,"internalType":"uint256"}],"anonymous":false},{"type":"event","name":"WithdrawReserves","inputs":[{"name":"to","type":"address","indexed":true,"internalType":"address"},{"name":"amount","type":"uint256","indexed":false,"internalType":"uint256"}],"anonymous":false},{"type":"error","name":"AddressEmptyCode","inputs":[{"name":"target","type":"address","internalType":"address"}]},{"type":"error","name":"BorrowTooSmall","inputs":[]},{"type":"error","name":"ERC1967InvalidImplementation","inputs":[{"name":"implementation","type":"address","internalType":"address"}]},{"type":"error","name":"ERC1967NonPayable","inputs":[]},{"type":"error","name":"EnforcedPause","inputs":[]},{"type":"error","name":"ExpectedPause","inputs":[]},{"type":"error","name":"FailedCall","inputs":[]},{"type":"error","name":"InsufficientBalance","inputs":[]},{"type":"error","name":"InsufficientCollateral","inputs":[]},{"type":"error","name":"InsufficientReserves","inputs":[]},{"type":"error","name":"InvalidBorrowCollateralFactor","inputs":[]},{"type":"error","name":"InvalidInitialization","inputs":[]},{"type":"error","name":"InvalidLiquidateCollateralFactor","inputs":[]},{"type":"error","name":"InvalidLiquidationFactor","inputs":[]},{"type":"error","name":"NotForSale","inputs":[]},{"type":"error","name":"NotInitializing","inputs":[]},{"type":"error","name":"NotLiquidatable","inputs":[]},{"type":"error","name":"OwnableInvalidOwner","inputs":[{"name":"owner","type":"address","internalType":"address"}]},{"type":"error","name":"OwnableUnauthorizedAccount","inputs":[{"name":"account","type":"address","internalType":"address"}]},{"type":"error","name":"ReentrancyGuardReentrantCall","inputs":[]},{"type":"error","name":"SafeERC20FailedOperation","inputs":[{"name":"token","type":"address","internalType":"address"}]},{"type":"error","name":"SupplyCapExceeded","inputs":[]},{"type":"error","name":"UUPSUnauthorizedCallContext","inputs":[]},{"type":"error","name":"UUPSUnsupportedProxiableUUID","inputs":[{"name":"slot","type":"bytes32","internalType":"bytes32"}]},{"type":"error","name":"Unauthorized","inputs":[]}],"bytecode":{"object":"0x60a080604052346100c257306080525f5160206139345f395f51905f525460ff8160401c166100b3576002600160401b03196001600160401b03821601610060575b60405161386d90816100c782396080518181816115fb015261171a0152f35b6001600160401b0319166001600160401b039081175f5160206139345f395f51905f525581527fc7f505b2f371ae2175ee4913f4499e1f2633a7b5936321eed1cdaeb6115181d290602090a15f80610041565b63f92ee8a960e01b5f5260045ffd5b5f80fdfe60806040526004361015610011575f80fd5b5f3560e01c8063042e02cf14611f335780630902f1ac14611f195780631f5954bd14611ef9578063278cc7a014611ed35780632a48cf1214611eaa5780632b92a07d1461164f5780632d05670b14611e845780632e1a7d4d14611c9f578063300e6beb14611c7957806332176c4914611c50578063350c35e914611b415780633540302314611970578063374c49b41461194d5780633f4ba83a146118cf5780634f1ef2861461169f57806352226ef01461164f57806352d1902d146115e95780635a94b8d1146115c35780635c975abb146115955780636c7d3f6e14611505578063715018a61461149e578063744713611461147557806374485e78146113d85780637609d7f61461134b5780637914acc7146113225780637ac88ed1146112fb5780637eb71131146112b0578063804de71f146112875780638456cb591461121657806384bdc9a81461119c5780638da5cb5b146111685780639241a5611461114857806393889f061461111d57806394920cca146110f457806398f1bc12146110d75780639ff567f814610e55578063a0b4b30114611095578063a5b4ff791461106c578063a6afed9514611054578063aa5af0fd14611037578063ad3cb1cc14610fd9578063ba1b244714610f8c578063ba1c5e8014610ee7578063c4e41b2214610eb4578063c55dae6314610e8d578063cf31a17e14610e55578063d2a8607b14610ca4578063d7e7270814610c87578063db12da0714610c5f578063dc4abafd14610c24578063e37f8a7e14610be5578063e478795d14610b2b578063e4e6e7791461094d578063f2fde38b14610922578063f7aae5ec146102e95763f8b2cb4f14610281575f80fd5b346102e55760203660031901126102e5576001600160a01b036102a2611f60565b165f5260076020526020670de0b6b3a76400006102d360405f2054600c0b5f8112155f146102dc57600a5490612915565b05604051908152f35b600b5490612915565b5f80fd5b346102e55760203660031901126102e5576004356001600160401b0381116102e55780600401906101c060031982360301126102e5575f5160206138185f395f51905f5254916001600160401b0360ff8460401c161593168015908161091a575b6001149081610910575b159081610907575b506108f8578260016001600160401b03195f5160206138185f395f51905f525416175f5160206138185f395f51905f52556108c8575b9061039b61370e565b6103a361370e565b6103ab61370e565b6103b43361280f565b6103bc61370e565b6103c461370e565b6103cc61370e565b60015f5160206137f85f395f51905f52556001600160a01b036103ee83612514565b166bffffffffffffffffffffffff60a01b5f5416175f5560018060a01b0361041860248301612514565b600154911667ffffffffffffffff60a01b61043560448501612880565b60a01b169163ffffffff60e01b1617176001556301e133806001600160401b0361046160648401612880565b1604600254906301e133806001600160401b0361048060848601612880565b160467ffffffffffffffff60401b6301e133806001600160401b036104a760a48801612880565b1604926001600160c01b03196104bf60c48801612880565b60c01b16946001600160401b0360018060c01b039216906001600160401b0360c01b1617169160401b1617906001600160401b0360801b9060801b1617176002556301e133806001600160401b0361051960e48401612880565b1604600354906301e133806001600160401b036105396101048601612880565b160467ffffffffffffffff60401b6301e133806001600160401b036105616101248801612880565b1604926001600160c01b031961057a6101448801612880565b60c01b16946001600160401b0360018060c01b039216906001600160401b0360c01b1617169160401b1617906001600160401b0360801b9060801b1617176003556001600160681b036105d06101648301612894565b6004549116600160681b600160d01b036105ed6101848501612894565b60681b169165ffffffffffff60d01b161717600455670de0b6b3a7640000600a55670de0b6b3a7640000600b5542600c556101a45f9101905b61063082846128a8565b905081101561086f5761064382846128a8565b82101561085b5760c08202019060c0823603126102e55760405161066681611fa7565b82356001600160a01b03811681036102e557815260208301359260ff841684036102e5576020820193845261069d604082016128dd565b90604083019182526106b1606082016128dd565b92606081019384526106c5608083016128dd565b9260a060808301938585520135936001600160801b03851685036102e5576001600160401b03670de0b6b3a76400009160a0850196875216101561084c57670de0b6b3a76400006001600160401b03825116101561083d57670de0b6b3a76400006001600160401b03865116101561082e5781516001600160a01b039081165f908152600560205260409081902093518454995193516001600160e81b0319909a16921691821760a09390931b60ff60a01b169290921760a89890981b67ffffffffffffffff60a81b169790971782559351915192519290931b67ffffffffffffffff60401b166001600160401b03919091161760809190911b6fffffffffffffffffffffffffffffffff1916176001919091015560065491600160401b83101561081a576107fb836001809501600655611ffe565b819291549060031b91821b91858060a01b03901b191617905501610626565b634e487b7160e01b5f52604160045260245ffd5b63c1a8d9bd60e01b5f5260045ffd5b6379905e1360e11b5f5260045ffd5b631db60e2960e01b5f5260045ffd5b634e487b7160e01b5f52603260045260245ffd5b8361087657005b60ff60401b195f5160206138185f395f51905f5254165f5160206138185f395f51905f52557fc7f505b2f371ae2175ee4913f4499e1f2633a7b5936321eed1cdaeb6115181d2602060405160018152a1005b600160401b60ff60401b195f5160206138185f395f51905f525416175f5160206138185f395f51905f5255610392565b63f92ee8a960e01b5f5260045ffd5b9050158461035c565b303b159150610354565b84915061034a565b346102e55760203660031901126102e55761094b61093e611f60565b610946612f1c565b61280f565b005b346102e55760803660031901126102e557610966611f60565b6064356001600160a01b03811681036102e557610981612aab565b610989612ae3565b6001600160a01b0382165f818152600d602052604090205490929015610adf576109b16123b1565b5f8112159081610b12575b50610b03576109cd60443582612528565b90835f52600d60205260405f20548211610aee575b6024358210610adf57816109f5916134f5565b5f80546040516323b872dd60e01b81523360048201523060248201526044810184905292949160209184916064918391906001600160a01b03165af1908115610ad457610a63928492610aa7575b50855f52600d60205260405f20610a5b838254612371565b905585612e3c565b60405191825260208201527ff891b2a411b0e66a5f0a6ff1368670fefa287a13f541eb633a386a1a9cc7046b60403392a360015f5160206137f85f395f51905f5255005b610ac89060203d602011610acd575b610ac08183611fc2565b8101906124bc565b610a43565b503d610ab6565b6040513d5f823e3d90fd5b631e9acf1760e31b5f5260045ffd5b9050825f52600d60205260405f2054906109e2565b631d99ddbf60e01b5f5260045ffd5b90506001600160681b0360045460681c161115846109bc565b346102e55760403660031901126102e557610b44611f60565b60243590610b50612f1c565b610b58612aab565b610b606123b1565b5f8112908115610bdb575b50610bcc57602081610ba8847fec4431f2ba1a9382f6b0c4352b888cba6f7db91667d9f776abe5ad8ddc5401b69460018060a01b035f5416612e3c565b6040519384526001600160a01b031692a260015f5160206137f85f395f51905f5255005b63128bd24d60e31b5f5260045ffd5b9050821183610b6b565b346102e5575f3660031901126102e5576020670de0b6b3a7640000610c1b6001600160681b0360095460681c16600b5490612053565b04604051908152f35b346102e55760203660031901126102e5576001600160a01b03610c45611f60565b165f526007602052602060405f2054600c0b604051908152f35b346102e5575f3660031901126102e5576001546040516001600160a01b039091168152602090f35b346102e5575f3660031901126102e5576020600c54604051908152f35b346102e55760403660031901126102e557610cbd611f60565b60243590610cc9612aab565b610cd1612ae3565b60018060a01b031690815f52600560205260405f2060405190610cf382611fa7565b60a060018254926001600160401b038280851b0385169485875260ff81861c16602088015260a81c1660408601520154926001600160401b03841660608201526001600160401b038460401c166080820152019160801c825215610e4757335f52600860205260405f20835f526020526001600160801b03610d798360405f2054612092565b91511610610e38576040516323b872dd60e01b8152336004820152306024820152604481018290526020816064815f875af18015610ad457610e1b575b50335f52600860205260405f20825f5260205260405f20610dd8828254612092565b905560405190815233907ffa56f7b24f17183d81894d3ac2ee654e3c26388d17a28dbd9549b8114304e1f460203392a460015f5160206137f85f395f51905f5255005b610e339060203d602011610acd57610ac08183611fc2565b610db6565b637ac7b99d60e11b5f5260045ffd5b6282b42960e81b5f5260045ffd5b346102e55760203660031901126102e5576001600160a01b03610e76611f60565b165f52600d602052602060405f2054604051908152f35b346102e5575f3660031901126102e5575f546040516001600160a01b039091168152602090f35b346102e5575f3660031901126102e5576020670de0b6b3a7640000610c1b6001600160681b0360095416600a5490612053565b346102e5575f3660031901126102e5576020610f7b610f76610f45600954670de0b6b3a7640000610f3e81610f27600a546001600160681b038616612053565b04926001600160681b03600b549160681c16612053565b0490613423565b60025460c01c90600354906001600160401b038260801c16926001600160401b0380808560401c1694169216613481565b612785565b6001600160401b0360405191168152f35b346102e55760203660031901126102e557610fc6610fa8611f60565b610fb0612aab565b610fb8612ae3565b610fc06127e5565b33612f4f565b60015f5160206137f85f395f51905f5255005b346102e5575f3660031901126102e5576040805190610ff88183611fc2565b600582526020820191640352e302e360dc1b83528151928391602083525180918160208501528484015e5f828201840152601f01601f19168101030190f35b346102e5575f3660031901126102e5576020600b54604051908152f35b346102e5575f3660031901126102e55761094b6127e5565b346102e5575f3660031901126102e55760206001600160401b0360015460a01c16604051908152f35b346102e55760203660031901126102e5576004356006548110156102e5576110be602091611ffe565b905460405160039290921b1c6001600160a01b03168152f35b346102e5575f3660031901126102e5576020600a54604051908152f35b346102e5575f3660031901126102e55760206001600160401b0360025460801c16604051908152f35b346102e55760203660031901126102e557602061114061113b611f60565b6127a9565b604051908152f35b346102e5575f3660031901126102e557602060025460c01c604051908152f35b346102e5575f3660031901126102e5575f5160206137985f395f51905f52546040516001600160a01b039091168152602090f35b346102e5575f3660031901126102e5576020610f7b610f766111dc600954670de0b6b3a7640000610f3e81610f27600a546001600160681b038616612053565b6001600160401b0360015460a01c1690600254906001600160401b038260801c16926001600160401b0380808560401c1694169216613481565b346102e5575f3660031901126102e55761122e612f1c565b611236612ae3565b600160ff195f5160206137d85f395f51905f525416175f5160206137d85f395f51905f52557f62e78cea01bee320cd4e420270b5ea74000d11b0c9f74754ebdbfc544b05a2586020604051338152a1005b346102e5575f3660031901126102e55760206001600160401b0360025460401c16604051908152f35b346102e5575f3660031901126102e55760206001600160401b036112f2600954670de0b6b3a7640000610f3e81610f27600a546001600160681b038616612053565b16604051908152f35b346102e55760403660031901126102e5576020611140611319611f60565b60243590612528565b346102e5575f3660031901126102e55760206001600160401b0360035460801c16604051908152f35b346102e55760203660031901126102e5576001600160a01b0361136c611f60565b165f52600560205260c060405f20600181549101546001600160401b036040519260018060a01b038116845260ff8160a01c16602085015260a81c1660408301526001600160401b03811660608301526001600160401b038160401c16608083015260801c60a0820152f35b346102e55760403660031901126102e5576113f1611f60565b6024356001600160401b0381116102e557366023820112156102e5578060040135906001600160401b0382116102e5573660248360051b830101116102e557611438612aab565b611440612ae3565b6114486127e5565b5f5b82811015610fc65760019061146f61146960248360051b860101612514565b86612f4f565b0161144a565b346102e5575f3660031901126102e55760206001600160681b0360095460681c16604051908152f35b346102e5575f3660031901126102e5576114b6612f1c565b5f5160206137985f395f51905f5280546001600160a01b031981169091555f906001600160a01b03167f8be0079c531659141344cd1fd0a4f28419497f9722a3daafe3b4186f6b6457e08280a3005b346102e55760203660031901126102e5576004356001600160681b03811681036102e55760207fc2a1e350cb1494fff357081b3f771c8eb52f3a14e47814b11e6856986b16f6ad91611555612f1c565b600480546cffffffffffffffffffffffffff60681b1916606892831b600160681b600160d01b03161790819055604051911c6001600160681b03168152a1005b346102e5575f3660031901126102e557602060ff5f5160206137d85f395f51905f5254166040519015158152f35b346102e5575f3660031901126102e55760206001600160401b0360025416604051908152f35b346102e5575f3660031901126102e5577f00000000000000000000000000000000000000000000000000000000000000006001600160a01b031630036116405760206040515f5160206137b85f395f51905f528152f35b63703e46dd60e11b5f5260045ffd5b346102e55760403660031901126102e557611668611f60565b611670611f76565b6001600160a01b039182165f908152600860209081526040808320949093168252928352819020549051908152f35b60403660031901126102e5576116b3611f60565b602435906001600160401b0382116102e557366023830112156102e5578160040135906116df82611fe3565b916116ed6040519384611fc2565b808352602083019336602483830101116102e557815f926024602093018737840101526001600160a01b037f0000000000000000000000000000000000000000000000000000000000000000163081149081156118ad575b5061164057611752612f1c565b6040516352d1902d60e01b81526001600160a01b0382169390602081600481885afa5f9181611879575b506117945784634c9c8ce360e01b5f5260045260245ffd5b805f5160206137b85f395f51905f528692036118675750823b15611855575f5160206137b85f395f51905f5280546001600160a01b031916821790557fbc7cd75a20ee27fd9adebab32041f755214dbc6bffa90cc0225b39da2e5c2d3b5f80a282511561183c575f809161094b945190845af43d15611834573d9161181883611fe3565b926118266040519485611fc2565b83523d5f602085013e613739565b606091613739565b5050503461184657005b63b398979f60e01b5f5260045ffd5b634c9c8ce360e01b5f5260045260245ffd5b632a87526960e21b5f5260045260245ffd5b9091506020813d6020116118a5575b8161189560209383611fc2565b810103126102e55751908661177c565b3d9150611888565b5f5160206137b85f395f51905f52546001600160a01b03161415905084611745565b346102e5575f3660031901126102e5576118e7612f1c565b5f5160206137d85f395f51905f525460ff81161561193e5760ff19165f5160206137d85f395f51905f52557f5db9ee0a495bf2e6ff9c91a7834c1ba4fdd244a5e8aa4e537bd38aeae4b073aa6020604051338152a1005b638dfc202b60e01b5f5260045ffd5b346102e55760203660031901126102e557602061114061196b611f60565b6124d4565b346102e55760203660031901126102e55760043561198c612aab565b611994612ae3565b61199c6127e5565b5f80546040516323b872dd60e01b8152336004820152306024820152604481018490529160209183916064918391906001600160a01b03165af18015610ad457611b24575b50335f52600760205260405f20604051906119fb82611f8c565b54600c0b908190525f8112611b0657611a52611a48611a3084670de0b6b3a7640000611a2a600a545b87612915565b05612396565b5f8112611afa57611a43600a54916128f1565b612937565b600c0b8092612eca565b6001600160681b03611a8160095493611a748360681b91848760681c1661247c565b60681b169282851661249c565b169165ffffffffffff60d01b161717600955335f52600760205260405f20906001600160681b0319825416906001600160681b031617905560405190815233907fd1cf3d156d5f8f0d50f6c122ed609cec09d35c9b9fb3fff6ea0959134dae424e60203392a360015f5160206137f85f395f51905f5255005b611a43600b54916128f1565b611a52611a48611a3084670de0b6b3a7640000611a2a600b54611a24565b611b3c9060203d602011610acd57610ac08183611fc2565b6119e1565b346102e55760403660031901126102e557611b5a611f60565b60243590611b66612aab565b611b6e612ae3565b611b766127e5565b335f52600860205260405f2060018060a01b0382165f526020528160405f205410610adf57335f52600860205260405f2060018060a01b0382165f5260205260405f20611bc4838254612371565b9055335f5260076020525f6040812054600c0b12611c33575b6001600160a01b031690611bf2813384612e3c565b60405190815233907fd6d480d5b3068db003533b170d67561494d72e3bf9fa40a266471351ebba9e1660203392a460015f5160206137f85f395f51905f5255005b611c3c33612bd2565b611bdd575b633a23d82560e01b5f5260045ffd5b346102e5575f3660031901126102e55760206001600160681b0360045460681c16604051908152f35b346102e5575f3660031901126102e55760206001600160681b0360045416604051908152f35b346102e55760203660031901126102e557600435611cbb612aab565b611cc3612ae3565b611ccb6127e5565b335f52600760205260405f2060405190611ce482611f8c565b54600c0b908190525f8112611e6c57611d1382670de0b6b3a7640000611d0d600a545b85612915565b0561237e565b905f82129081611e5e57611d3a611d30600a545b611a43866128f1565b600c0b8092612b58565b6001600160681b03611d516009549382851661247c565b1690600160681b600160d01b0390611d87906cffffffffffffffffffffffffff198516841760681c6001600160681b031661249c565b60681b169165ffffffffffff60d01b161717600955335f52600760205260405f20906001600160681b0319825416906001600160681b0316179055611e21575b505f54611de090829033906001600160a01b0316612e3c565b60405190815233907f9b1bfa7fa9ee420a16e124f794c35ac9f90472acc99140eb2f6447c714cad8eb60203392a360015f5160206137f85f395f51905f5255005b611e2a90612016565b6001600160681b036004541611611e4f57611e4433612bd2565b15611c415781611dc7565b637139da2360e11b5f5260045ffd5b611d3a611d30600b54611d27565b611d1382670de0b6b3a7640000611d0d600b54611d07565b346102e5575f3660031901126102e55760206001600160401b0360035416604051908152f35b346102e5575f3660031901126102e55760206001600160401b0360035460401c16604051908152f35b346102e5575f3660031901126102e55760206001600160681b0360095416604051908152f35b346102e5575f3660031901126102e557602060035460c01c604051908152f35b346102e5575f3660031901126102e55760206111406123b1565b346102e55760203660031901126102e5576020611f56611f51611f60565b61209f565b6040519015158152f35b600435906001600160a01b03821682036102e557565b602435906001600160a01b03821682036102e557565b602081019081106001600160401b0382111761081a57604052565b60c081019081106001600160401b0382111761081a57604052565b90601f801991011681019081106001600160401b0382111761081a57604052565b6001600160401b03811161081a57601f01601f191660200190565b60065481101561085b5760065f5260205f2001905f90565b600160ff1b8114612026575f0390565b634e487b7160e01b5f52601160045260245ffd5b908160209103126102e5575160ff811681036102e55790565b8181029291811591840414171561202657565b604d811161202657600a0a90565b811561207e570490565b634e487b7160e01b5f52601260045260245ffd5b9190820180921161202657565b6001600160a01b03165f81815260076020526040812054600c0b9081121561236b57670de0b6b3a76400006120da6120e092600b5490612915565b05612016565b6001545f546040516341976e0960e01b81526001600160a01b039182166004820181905291909216939290602083602481885afa928315610ad4575f93612336575b509160206004936040519485809263313ce56760e01b82525afa918215610ad45761216b935f936122f8575b5061215e6121659260ff92612053565b9216612066565b90612074565b905f925f90600654915b82811061218457505050501190565b61218d81611ffe565b90545f86815260086020908152604080832060039590951b9390931c6001600160a01b03168083529390522054806121ca575b5050600101612175565b815f9892939852600560205260405f2092604051936121e885611fa7565b6001815491818060a01b03831687526001600160401b03602088019360ff8160a01c16855260a81c16604088015201549460a060608201966001600160401b03811688526001600160401b038160401c16608084015260801c910152604051916341976e0960e01b83526004830152602082602481895afa918215610ad4575f926122be575b506001946001600160401b036122a66122b696956121656122a0670de0b6b3a76400009760ff6122af98511693612053565b91612951565b91511690612053565b0490612092565b95905f6121c0565b915092916020823d82116122f0575b816122da60209383611fc2565b810103126102e55790519192909190600161226e565b3d91506122cd565b60ff9193506121659261232561215e9260203d60201161232f575b61231d8183611fc2565b81019061203a565b949250925061214e565b503d612313565b92506020833d602011612363575b8161235160209383611fc2565b810103126102e5579151916020612122565b3d9150612344565b50505f90565b9190820391821161202657565b81810392915f13801582851316918412161761202657565b9190915f838201938412911290801582169115161761202657565b60246123c76123c2600c5442612371565b612962565b5f546040516370a0823160e01b8152306004820152929360209184919082906001600160a01b03165afa918215610ad4575f92612446575b5061244392670de0b6b3a764000061243761243e936001600160681b038361242c60095496838816612053565b049460681c16612053565b049261237e565b612396565b90565b9091506020813d602011612474575b8161246260209383611fc2565b810103126102e55751906124436123ff565b3d9150612455565b906001600160681b03809116911603906001600160681b03821161202657565b906001600160681b03809116911601906001600160681b03821161202657565b908160209103126102e5575180151581036102e55790565b6001600160a01b03165f90815260076020526040812054600c0b9081121561250f57670de0b6b3a76400006120da61244392600b5490612915565b505f90565b356001600160a01b03811681036102e55790565b6001600160a01b03165f8181526005602052604090819020905191929061254e83611fa7565b6001815491818060a01b03831685526001600160401b03602086019360ff8160a01c16855260a81c1660408601520154926001600160401b038416606082015260a060808201946001600160401b038160401c16865260801c91015260018060a01b0360015416604051946341976e0960e01b86526004860152602085602481845afa908115610ad4575f91612750575b60249550602060018060a01b035f541691604051978880926341976e0960e01b82528560048301525afa958615610ad4575f9661271b575b5060206004916040519283809263313ce56760e01b82525afa908115610ad45761265060ff6126589381935f916126fc575b5016612066565b935116612066565b936001600160401b0360035460c01c915116670de0b6b3a76400000390670de0b6b3a7640000821161202657670de0b6b3a76400009161269791612053565b04670de0b6b3a76400000390670de0b6b3a7640000821161202657670de0b6b3a7640000916126c591612053565b04928181036126e2575050612443926126dd91612053565b612074565b61244394916126dd6126f7926126dd95612053565b612053565b612715915060203d60201161232f5761231d8183611fc2565b5f612649565b9095506020813d602011612748575b8161273760209383611fc2565b810103126102e55751946020612617565b3d915061272a565b90506020853d60201161277d575b8161276b60209383611fc2565b810103126102e55760249451906125df565b3d915061275e565b6001600160401b036301e13380911602906001600160401b03821691820361202657565b6001600160a01b03165f90815260076020526040812054600c0b9081131561250f576127e1670de0b6b3a764000091600a5490612915565b0590565b6127f1600c5442612371565b801561280c5761280090612962565b600b55600a5542600c55565b50565b6001600160a01b0316801561286d575f5160206137985f395f51905f5280546001600160a01b0319811683179091556001600160a01b03167f8be0079c531659141344cd1fd0a4f28419497f9722a3daafe3b4186f6b6457e05f80a3565b631e4fbdf760e01b5f525f60045260245ffd5b356001600160401b03811681036102e55790565b356001600160681b03811681036102e55790565b903590601e19813603018212156102e557018035906001600160401b0382116102e5576020019160c08202360383136102e557565b35906001600160401b03821682036102e557565b90670de0b6b3a7640000820291808305670de0b6b3a7640000149015171561202657565b81810292915f8212600160ff1b82141661202657818405149015171561202657565b811561207e57600160ff1b81145f19831416612026570590565b60ff16604d811161202657600a0a90565b90600a54600b54928061297457509190565b6009549193918261298e866001600160681b038416612053565b670de0b6b3a764000090049160681c6001600160681b0316906129b091612053565b670de0b6b3a764000090046129c491613423565b938160015460a01c6001600160401b0316600254966001600160401b0316908760801c6001600160401b03168860401c6001600160401b03166001600160401b038a16612a119385613481565b966003548060801c6001600160401b0316918160401c6001600160401b0316916001600160401b03169060c01c612a4794613481565b956001600160401b0316612a5b9083612053565b90612a6591612053565b670de0b6b3a76400009004612a7991612092565b936001600160401b0316612a8d9083612053565b90612a9791612053565b670de0b6b3a7640000900461244391612092565b60025f5160206137f85f395f51905f525414612ad45760025f5160206137f85f395f51905f5255565b633ee5aeb560e01b5f5260045ffd5b60ff5f5160206137d85f395f51905f525416612afb57565b63d93c066560e01b5f5260045ffd5b600c0b6c7fffffffffffffffffffffffff198114612026575f0390565b600c91820b910b03906c7fffffffffffffffffffffffff1982126c7fffffffffffffffffffffffff83131761202657565b919082600c0b81600c0b818113612bc7575f13612b885750612b7a9192612b27565b6001600160681b0316905f90565b5f12612ba757612b989192612b27565b6001600160681b0316905f9190565b612bb090612b0a565b6001600160681b0316916001600160681b03169190565b50505090505f905f90565b6001600160a01b03165f81815260076020526040812054600c0b90811215612e3557670de0b6b3a76400006120da612c0d92600b5490612915565b6001545f546040516341976e0960e01b81526001600160a01b0391821660048201819052919092169290602083602481875afa928315610ad4575f93612e00575b509160206004936040519485809263313ce56760e01b82525afa918215610ad457612c89935f936122f8575061215e6121659260ff92612053565b915f915f90600654915b828110612ca35750505050101590565b612cac81611ffe565b90545f86815260086020908152604080832060039590951b9390931c6001600160a01b0316808352939052205480612ce9575b5050600101612c93565b815f9792939752600560205260405f209260405193612d0785611fa7565b80549460018060a01b038616815260a06001602083019360ff89841c1685526001600160401b03604085019960a81c16895201546001600160401b03811660608401526001600160401b038160401c16608084015260801c910152604051916341976e0960e01b83526004830152602082602481895afa918215610ad4575f92612dc6575b506001946001600160401b036122a6612dbe96956121656122a0670de0b6b3a76400009760ff6122af98511693612053565b94905f612cdf565b915092916020823d8211612df8575b81612de260209383611fc2565b810103126102e557905191929091906001612d8c565b3d9150612dd5565b92506020833d602011612e2d575b81612e1b60209383611fc2565b810103126102e5579151916020612c4e565b3d9150612e0e565b5050600190565b60405163a9059cbb60e01b60208281019182526001600160a01b03909416602483015260448083019590955293815290925f91612e7a606482611fc2565b519082855af115610ad4575f513d612ec157506001600160a01b0381163b155b612ea15750565b635274afe760e01b5f9081526001600160a01b0391909116600452602490fd5b60011415612e9a565b91909180600c0b83600c0b818112612bc7575f12612eed5750612b7a9192612b27565b5f13612efd57612b989192612b27565b612f0690612b0a565b6001600160681b0316916001600160681b031690565b5f5160206137985f395f51905f52546001600160a01b03163303612f3c57565b63118cdaa760e01b5f523360045260245ffd5b9190612f5a8161209f565b15613414576001600160a01b03165f81815260076020526040908190209051929190612f8584611f8c565b54600c0b809352670de0b6b3a7640000612fa1600b5485612915565b05915f831215613414576001545f546040516341976e0960e01b81526001600160a01b039182166004820152949160209186916024918391165afa938415610ad4575f946133e0575b505f935f5b60065481101561320d5761300281611ffe565b90545f87815260086020908152604080832060039590951b9390931c6001600160a01b031680835293905220548061303f575b5050600101612fef565b906024979291815f52600560205260405f206040519061305e82611fa7565b6001815491818060a01b03831684526001600160401b03602085019360ff8160a01c16855260a81c1660408501520154916001600160401b038316606082015260a060808201936001600160401b038160401c16855260801c910152602060018060a01b03600154166040519c8d80926341976e0960e01b82528860048301525afa9a8b15610ad4575f9b6131d4575b506126dd92916001600160401b036122a661311c8e61311360ff613123975116612951565b97889188612053565b9d85612053565b91670de0b6b3a7640000810290808204670de0b6b3a764000014901517156120265760019561315661315c928c95612074565b90612092565b99825f52600860205260405f20868060a01b0385165f526020525f6040812055835f52600d60205260405f20613193838254612092565b905560405191825260208201527f9850ab1af75177e4a9201c65a2cf7976d5d28e40ef63494b44366f86b2f9412e60408d878060a01b031692a4905f613035565b909a506020929192813d8211613205575b816131f260209383611fc2565b810103126102e55751995f9291926130ee565b3d91506131e5565b509093919592946004602060018060a01b035f54166040519283809263313ce56760e01b82525afa8015610ad457836126dd61325761325e936132af955f916133c1575b50612951565b8097612053565b916132698388612396565b5f81126133ba575b61328190611a43600a54916128f1565b600c0b90885f52600760205260405f206001600160681b0319815416836001600160681b0316179055612eca565b906001600160681b036132c76009549382851661249c565b1690600160681b600160d01b03906132fd906cffffffffffffffffffffffffff198516841760681c6001600160681b031661247c565b60681b169165ffffffffffff60d01b1617176009555f9461331d81612016565b821261336f575b5050916133586040926126dd7f1547a878dc89ad3c367b6338b4be6a65a5dd74fb77ae044da1e8747ef1f4f62f9587612053565b825194855260208501526001600160a01b031692a3565b7f1547a878dc89ad3c367b6338b4be6a65a5dd74fb77ae044da1e8747ef1f4f62f94929550926126dd6133af613358936133aa604097612016565b612371565b969395505092613324565b505f613271565b6133da915060203d60201161232f5761231d8183611fc2565b5f613251565b9093506020813d60201161340c575b816133fc60209383611fc2565b810103126102e55751925f612fea565b3d91506133ef565b636ef5bcdd60e11b5f5260045ffd5b90811561236b57670de0b6b3a7640000810290808204670de0b6b3a76400001490151715612026576001600160401b039161345d91612074565b1690565b906001600160401b03809116911601906001600160401b03821161202657565b9392906001600160401b03168085116134bf575050670de0b6b3a76400006134b7612443946001600160401b0380941690612053565b041690613461565b670de0b6b3a764000091936001600160401b036134ed81956134e76134b7956124439a612371565b93613461565b951690612053565b60018060a01b0316805f52600560205260405f209160405161351681611fa7565b6001845494818060a01b03861683526001600160401b03602084019660ff8160a01c16885260a81c1660408401520154906001600160401b038216606082015260a060808201926001600160401b038160401c16845260801c91015260018060a01b0360015416604051936341976e0960e01b85526004850152602084602481845afa908115610ad4575f916136d9575b60249450602060018060a01b035f541691604051968780926341976e0960e01b82528560048301525afa948515610ad4575f956136a4575b5060206004916040519283809263313ce56760e01b82525afa908115610ad45761361760ff61361f9381935f916126fc575016612066565b965116612066565b916001600160401b0360035460c01c915116670de0b6b3a76400000390670de0b6b3a7640000821161202657670de0b6b3a76400009161365e91612053565b04670de0b6b3a76400000390670de0b6b3a7640000821161202657670de0b6b3a76400009161368c91612053565b04938181036126e2575050612443926126dd91612053565b9094506020813d6020116136d1575b816136c060209383611fc2565b810103126102e557519360206135df565b3d91506136b3565b90506020843d602011613706575b816136f460209383611fc2565b810103126102e55760249351906135a7565b3d91506136e7565b60ff5f5160206138185f395f51905f525460401c161561372a57565b631afcd79f60e31b5f5260045ffd5b9061375d575080511561374e57602081519101fd5b63d6bda27560e01b5f5260045ffd5b8151158061378e575b61376e575090565b639996b31560e01b5f9081526001600160a01b0391909116600452602490fd5b50803b1561376656fe9016d09d72d40fdae2fd8ceac6b6234c7706214fd39c1cd1e609a0528c199300360894a13ba1a3210667c828492db98dca3e2076cc3735a920a3ca505d382bbccd5ed15c6e187e77e9aee88184c21f4f2182ab5827cb3b7e07fbedcd63f033009b779b17422d0df92223018b32b4d1fa46e071723d6817e2486d003becc55f00f0c57e16840df040f15088dc2f81fe391c3923bec73e23a9662efc9c229c6a00a2646970667358221220728c3def9eb434673da17af98c89420b53e3586389a35ed5832b78249d16c53464736f6c634300081e0033f0c57e16840df040f15088dc2f81fe391c3923bec73e23a9662efc9c229c6a00","linkReferences":{}},"methodIdentifiers":{"UPGRADE_INTERFACE_VERSION()":"ad3cb1cc","absorb(address)":"ba1b2447","absorbMultiple(address,address[])":"74485e78","accrueInterest()":"a6afed95","assetConfigs(address)":"7609d7f6","assetList(uint256)":"a0b4b301","baseBorrowMin()":"300e6beb","baseToken()":"c55dae63","borrowBalanceOf(address)":"374c49b4","borrowIndex()":"aa5af0fd","borrowKink()":"9241a561","borrowPerSecondInterestRateBase()":"7914acc7","borrowPerSecondInterestRateSlopeHigh()":"2a48cf12","borrowPerSecondInterestRateSlopeLow()":"2d05670b","buyCollateral(address,uint256,uint256,address)":"e4e6e779","collateralReserves(address)":"cf31a17e","getBalance(address)":"f8b2cb4f","getBorrowRate()":"ba1c5e80","getCollateral(address,address)":"52226ef0","getCollateralReserves(address)":"9ff567f8","getReserves()":"0902f1ac","getSupplyRate()":"84bdc9a8","getTotalBorrow()":"e37f8a7e","getTotalSupply()":"c4e41b22","getUtilization()":"7eb71131","initialize((address,address,uint64,uint64,uint64,uint64,uint64,uint64,uint64,uint64,uint64,uint104,uint104,(address,uint8,uint64,uint64,uint64,uint128)[]))":"f7aae5ec","isLiquidatable(address)":"042e02cf","lastAccrualTime()":"d7e72708","lendingPriceSource()":"db12da07","owner()":"8da5cb5b","pause()":"8456cb59","paused()":"5c975abb","proxiableUUID()":"52d1902d","quoteCollateral(address,uint256)":"7ac88ed1","renounceOwnership()":"715018a6","setTargetReserves(uint104)":"6c7d3f6e","storeFrontPriceFactor()":"1f5954bd","supply(uint256)":"35403023","supplyBalanceOf(address)":"93889f06","supplyCollateral(address,uint256)":"d2a8607b","supplyIndex()":"98f1bc12","supplyKink()":"a5b4ff79","supplyPerSecondInterestRateBase()":"94920cca","supplyPerSecondInterestRateSlopeHigh()":"804de71f","supplyPerSecondInterestRateSlopeLow()":"5a94b8d1","targetReserves()":"32176c49","totalBorrowBase()":"74471361","totalSupplyBase()":"278cc7a0","transferOwnership(address)":"f2fde38b","unpause()":"3f4ba83a","upgradeToAndCall(address,bytes)":"4f1ef286","userBasic(address)":"dc4abafd","userCollateral(address,address)":"2b92a07d","withdraw(uint256)":"2e1a7d4d","withdrawCollateral(address,uint256)":"350c35e9","withdrawReserves(address,uint256)":"e478795d"},"id":4}