{"abi":[{"type":"constructor","inputs":[],"stateMutability":"nonpayable"},{"type":"function","name":"UPGRADE_INTERFACE_VERSION","inputs":[],"outputs":[{"name":"","type":"string","internalType":"string"}],"stateMutability":"view"},{"type":"function","name":"allowance","inputs":[{"name":"owner","type":"address","internalType":"address"},{"name":"spender","type":"address","internalType":"address"}],"outputs":[{"name":"","type":"uint256","internalType":"uint256"}],"stateMutability":"view"},{"type":"function","name":"approve","inputs":[{"name":"spender","type":"address","internalType":"address"},{"name":"value","type":"uint256","internalType":"uint256"}],"outputs":[{"name":"","type":"bool","internalType":"bool"}],"stateMutability":"nonpayable"},{"type":"function","name":"balanceOf","inputs":[{"name":"account","type":"address","internalType":"address"}],"outputs":[{"name":"","type":"uint256","internalType":"uint256"}],"stateMutability":"view"},{"type":"function","name":"burn","inputs":[{"name":"_from","type":"address","internalType":"address"},{"name":"_amount","type":"uint256","internalType":"uint256"}],"outputs":[],"stateMutability":"nonpayable"},{"type":"function","name":"decimals","inputs":[],"outputs":[{"name":"","type":"uint8","internalType":"uint8"}],"stateMutability":"view"},{"type":"function","name":"initialize","inputs":[{"name":"_name","type":"string","internalType":"string"},{"name":"_symbol","type":"string","internalType":"string"}],"outputs":[],"stateMutability":"nonpayable"},{"type":"function","name":"mint","inputs":[{"name":"_to","type":"address","internalType":"address"},{"name":"_amount","type":"uint256","internalType":"uint256"}],"outputs":[],"stateMutability":"nonpayable"},{"type":"function","name":"name","inputs":[],"outputs":[{"name":"","type":"string","internalType":"string"}],"stateMutability":"view"},{"type":"function","name":"owner","inputs":[],"outputs":[{"name":"","type":"address","internalType":"address"}],"stateMutability":"view"},{"type":"function","name":"proxiableUUID","inputs":[],"outputs":[{"name":"","type":"bytes32","internalType":"bytes32"}],"stateMutability":"view"},{"type":"function","name":"renounceOwnership","inputs":[],"outputs":[],"stateMutability":"nonpayable"},{"type":"function","name":"symbol","inputs":[],"outputs":[{"name":"","type":"string","internalType":"string"}],"stateMutability":"view"},{"type":"function","name":"totalSupply","inputs":[],"outputs":[{"name":"","type":"uint256","internalType":"uint256"}],"stateMutability":"view"},{"type":"function","name":"transfer","inputs":[{"name":"to","type":"address","internalType":"address"},{"name":"value","type":"uint256","internalType":"uint256"}],"outputs":[{"name":"","type":"bool","internalType":"bool"}],"stateMutability":"nonpayable"},{"type":"function","name":"transferFrom","inputs":[{"name":"from","type":"address","internalType":"address"},{"name":"to","type":"address","internalType":"address"},{"name":"value","type":"uint256","internalType":"uint256"}],"outputs":[{"name":"","type":"bool","internalType":"bool"}],"stateMutability":"nonpayable"},{"type":"function","name":"transferOwnership","inputs":[{"name":"newOwner","type":"address","internalType":"address"}],"outputs":[],"stateMutability":"nonpayable"},{"type":"function","name":"upgradeToAndCall","inputs":[{"name":"newImplementation","type":"address","internalType":"address"},{"name":"data","type":"bytes","internalType":"bytes"}],"outputs":[],"stateMutability":"payable"},{"type":"event","name":"Approval","inputs":[{"name":"owner","type":"address","indexed":true,"internalType":"address"},{"name":"spender","type":"address","indexed":true,"internalType":"address"},{"name":"value","type":"uint256","indexed":false,"internalType":"uint256"}],"anonymous":false},{"type":"event","name":"Initialized","inputs":[{"name":"version","type":"uint64","indexed":false,"internalType":"uint64"}],"anonymous":false},{"type":"event","name":"OwnershipTransferred","inputs":[{"name":"previousOwner","type":"address","indexed":true,"internalType":"address"},{"name":"newOwner","type":"address","indexed":true,"internalType":"address"}],"anonymous":false},{"type":"event","name":"Transfer","inputs":[{"name":"from","type":"address","indexed":true,"internalType":"address"},{"name":"to","type":"address","indexed":true,"internalType":"address"},{"name":"value","type":"uint256","indexed":false,"internalType":"uint256"}],"anonymous":false},{"type":"event","name":"Upgraded","inputs":[{"name":"implementation","type":"address","indexed":true,"internalType":"address"}],"anonymous":false},{"type":"error","name":"AddressEmptyCode","inputs":[{"name":"target","type":"address","internalType":"address"}]},{"type":"error","name":"ERC1967InvalidImplementation","inputs":[{"name":"implementation","type":"address","internalType":"address"}]},{"type":"error","name":"ERC1967NonPayable","inputs":[]},{"type":"error","name":"ERC20InsufficientAllowance","inputs":[{"name":"spender","type":"address","internalType":"address"},{"name":"allowance","type":"uint256","internalType":"uint256"},{"name":"needed","type":"uint256","internalType":"uint256"}]},{"type":"error","name":"ERC20InsufficientBalance","inputs":[{"name":"sender","type":"address","internalType":"address"},{"name":"balance","type":"uint256","internalType":"uint256"},{"name":"needed","type":"uint256","internalType":"uint256"}]},{"type":"error","name":"ERC20InvalidApprover","inputs":[{"name":"approver","type":"address","internalType":"address"}]},{"type":"error","name":"ERC20InvalidReceiver","inputs":[{"name":"receiver","type":"address","internalType":"address"}]},{"type":"error","name":"ERC20InvalidSender","inputs":[{"name":"sender","type":"address","internalType":"address"}]},{"type":"error","name":"ERC20InvalidSpender","inputs":[{"name":"spender","type":"address","internalType":"address"}]},{"type":"error","name":"FailedCall","inputs":[]},{"type":"error","name":"InvalidInitialization","inputs":[]},{"type":"error","name":"NotInitializing","inputs":[]},{"type":"error","name":"OwnableInvalidOwner","inputs":[{"name":"owner","type":"address","internalType":"address"}]},{"type":"error","name":"OwnableUnauthorizedAccount","inputs":[{"name":"account","type":"address","internalType":"address"}]},{"type":"error","name":"UUPSUnauthorizedCallContext","inputs":[]},{"type":"error","name":"UUPSUnsupportedProxiableUUID","inputs":[{"name":"slot","type":"bytes32","internalType":"bytes32"}]}],"bytecode":{"object":"0x60a080604052346100c257306080525f5160206113a45f395f51905f525460ff8160401c166100b3576002600160401b03196001600160401b03821601610060575b6040516112dd90816100c7823960805181818161049101526105340152f35b6001600160401b0319166001600160401b039081175f5160206113a45f395f51905f525581527fc7f505b2f371ae2175ee4913f4499e1f2633a7b5936321eed1cdaeb6115181d290602090a15f80610041565b63f92ee8a960e01b5f5260045ffd5b5f80fdfe60806040526004361015610011575f80fd5b5f3560e01c806306fdde0314610dc7578063095ea7b314610d4857806318160ddd14610d1f57806323b872dd14610c47578063313ce56714610c2c57806340c10f1914610b5b5780634cd88b76146106eb5780634f1ef286146104e557806352d1902d1461047f57806370a082311461043b578063715018a6146103d45780638da5cb5b146103a057806395d89b41146102b25780639dc29fac146101c9578063a9059cbb14610198578063ad3cb1cc14610155578063dd62ed3e1461010e5763f2fde38b146100df575f80fd5b3461010a57602036600319011261010a576101086100fb610eae565b61010361110b565b610fdc565b005b5f80fd5b3461010a57604036600319011261010a57610127610eae565b610138610132610ec4565b91610fa4565b9060018060a01b03165f52602052602060405f2054604051908152f35b3461010a575f36600319011261010a57610194604051610176604082610eda565b60058152640352e302e360dc1b602082015260405191829182610e84565b0390f35b3461010a57604036600319011261010a576101be6101b4610eae565b602435903361104d565b602060405160018152f35b3461010a57604036600319011261010a576101e2610eae565b602435906101ee61110b565b6001600160a01b0316801561029f57805f525f5160206111e85f395f51905f5260205260405f2054828110610286576020835f947fddf252ad1be2c89b69c2b068fc378daa952ba7f163c4a11628f55a4df523b3ef938587525f5160206111e85f395f51905f528452036040862055805f5160206112485f395f51905f5254035f5160206112485f395f51905f5255604051908152a3005b9063391434e360e21b5f5260045260245260445260645ffd5b634b637e8f60e11b5f525f60045260245ffd5b3461010a575f36600319011261010a576040515f5f5160206112085f395f51905f52546102de81610f6c565b808452906001811690811561037c5750600114610312575b6101948361030681850382610eda565b60405191829182610e84565b5f5160206112085f395f51905f525f9081527f46a2803e59a4de4e7a4c574b1243f25977ac4c77d5a1a4a609b5394cebb4a2aa939250905b808210610362575090915081016020016103066102f6565b91926001816020925483858801015201910190929161034a565b60ff191660208086019190915291151560051b8401909101915061030690506102f6565b3461010a575f36600319011261010a575f5160206112285f395f51905f52546040516001600160a01b039091168152602090f35b3461010a575f36600319011261010a576103ec61110b565b5f5160206112285f395f51905f5280546001600160a01b031981169091555f906001600160a01b03167f8be0079c531659141344cd1fd0a4f28419497f9722a3daafe3b4186f6b6457e08280a3005b3461010a57602036600319011261010a576001600160a01b0361045c610eae565b165f525f5160206111e85f395f51905f52602052602060405f2054604051908152f35b3461010a575f36600319011261010a577f00000000000000000000000000000000000000000000000000000000000000006001600160a01b031630036104d65760206040515f5160206112685f395f51905f528152f35b63703e46dd60e11b5f5260045ffd5b604036600319011261010a576104f9610eae565b60243567ffffffffffffffff811161010a573660238201121561010a5761052a903690602481600401359101610f18565b6001600160a01b037f0000000000000000000000000000000000000000000000000000000000000000163081149081156106c9575b506104d65761056c61110b565b6040516352d1902d60e01b81526001600160a01b0383169290602081600481875afa5f9181610695575b506105ae5783634c9c8ce360e01b5f5260045260245ffd5b805f5160206112685f395f51905f528592036106835750813b15610671575f5160206112685f395f51905f5280546001600160a01b031916821790557fbc7cd75a20ee27fd9adebab32041f755214dbc6bffa90cc0225b39da2e5c2d3b5f80a2815115610659575f8083602061010895519101845af43d15610651573d9161063583610efc565b926106436040519485610eda565b83523d5f602085013e611169565b606091611169565b50503461066257005b63b398979f60e01b5f5260045ffd5b634c9c8ce360e01b5f5260045260245ffd5b632a87526960e21b5f5260045260245ffd5b9091506020813d6020116106c1575b816106b160209383610eda565b8101031261010a57519085610596565b3d91506106a4565b5f5160206112685f395f51905f52546001600160a01b0316141590508361055f565b3461010a57604036600319011261010a5760043567ffffffffffffffff811161010a5761071c903690600401610f4e565b60243567ffffffffffffffff811161010a5761073c903690600401610f4e565b5f5160206112885f395f51905f525460ff8160401c16159067ffffffffffffffff811680159081610b53575b6001149081610b49575b159081610b40575b50610b315767ffffffffffffffff1981166001175f5160206112885f395f51905f525581610b05575b506107ac61113e565b6107b461113e565b825167ffffffffffffffff81116109fc576107dc5f5160206111c85f395f51905f5254610f6c565b601f8111610a96575b506020601f8211600114610a1b57819293945f92610a10575b50508160011b915f199060031b1c1916175f5160206111c85f395f51905f52555b815167ffffffffffffffff81116109fc576108475f5160206112085f395f51905f5254610f6c565b601f811161098d575b50602092601f821160011461091457928192935f92610909575b50508160011b915f199060031b1c1916175f5160206112085f395f51905f52555b61089361113e565b61089b61113e565b6108a361113e565b6108ac33610fdc565b6108b257005b68ff0000000000000000195f5160206112885f395f51905f5254165f5160206112885f395f51905f52557fc7f505b2f371ae2175ee4913f4499e1f2633a7b5936321eed1cdaeb6115181d2602060405160018152a1005b01519050838061086a565b601f198216935f5160206112085f395f51905f525f52805f20915f5b868110610975575083600195961061095d575b505050811b015f5160206112085f395f51905f525561088b565b01515f1960f88460031b161c19169055838080610943565b91926020600181928685015181550194019201610930565b5f5160206112085f395f51905f525f527f46a2803e59a4de4e7a4c574b1243f25977ac4c77d5a1a4a609b5394cebb4a2aa601f830160051c810191602084106109f2575b601f0160051c01905b8181106109e75750610850565b5f81556001016109da565b90915081906109d1565b634e487b7160e01b5f52604160045260245ffd5b0151905084806107fe565b601f198216905f5160206111c85f395f51905f525f52805f20915f5b818110610a7e57509583600195969710610a66575b505050811b015f5160206111c85f395f51905f525561081f565b01515f1960f88460031b161c19169055848080610a4c565b9192602060018192868b015181550194019201610a37565b5f5160206111c85f395f51905f525f527f2ae08a8e29253f69ac5d979a101956ab8f8d9d7ded63fa7a83b16fc47648eab0601f830160051c81019160208410610afb575b601f0160051c01905b818110610af057506107e5565b5f8155600101610ae3565b9091508190610ada565b68ffffffffffffffffff191668010000000000000001175f5160206112885f395f51905f5255836107a3565b63f92ee8a960e01b5f5260045ffd5b9050158561077a565b303b159150610772565b839150610768565b3461010a57604036600319011261010a57610b74610eae565b60243590610b8061110b565b6001600160a01b0316908115610c19575f5160206112485f395f51905f525490808201809211610c055760207fddf252ad1be2c89b69c2b068fc378daa952ba7f163c4a11628f55a4df523b3ef915f935f5160206112485f395f51905f52558484525f5160206111e85f395f51905f52825260408420818154019055604051908152a3005b634e487b7160e01b5f52601160045260245ffd5b63ec442f0560e01b5f525f60045260245ffd5b3461010a575f36600319011261010a57602060405160128152f35b3461010a57606036600319011261010a57610c60610eae565b610c68610ec4565b60443590610c7583610fa4565b335f9081526020919091526040902054925f198410610c99575b6101be935061104d565b828410610d04576001600160a01b03811615610cf1573315610cde576101be93610cc282610fa4565b60018060a01b0333165f526020528360405f2091039055610c8f565b634a1406b160e11b5f525f60045260245ffd5b63e602df0560e01b5f525f60045260245ffd5b8284637dc7a0d960e11b5f523360045260245260445260645ffd5b3461010a575f36600319011261010a5760205f5160206112485f395f51905f5254604051908152f35b3461010a57604036600319011261010a57610d61610eae565b602435903315610cf1576001600160a01b0316908115610cde57610d8433610fa4565b825f526020528060405f20556040519081527f8c5be1e5ebec7d5bd14f71427d1e84f3dd0314c0f7b2291e5b200ac8c7c3b92560203392a3602060405160018152f35b3461010a575f36600319011261010a576040515f5f5160206111c85f395f51905f5254610df381610f6c565b808452906001811690811561037c5750600114610e1a576101948361030681850382610eda565b5f5160206111c85f395f51905f525f9081527f2ae08a8e29253f69ac5d979a101956ab8f8d9d7ded63fa7a83b16fc47648eab0939250905b808210610e6a575090915081016020016103066102f6565b919260018160209254838588010152019101909291610e52565b602060409281835280519182918282860152018484015e5f828201840152601f01601f1916010190565b600435906001600160a01b038216820361010a57565b602435906001600160a01b038216820361010a57565b90601f8019910116810190811067ffffffffffffffff8211176109fc57604052565b67ffffffffffffffff81116109fc57601f01601f191660200190565b929192610f2482610efc565b91610f326040519384610eda565b82948184528183011161010a578281602093845f960137010152565b9080601f8301121561010a57816020610f6993359101610f18565b90565b90600182811c92168015610f9a575b6020831014610f8657565b634e487b7160e01b5f52602260045260245ffd5b91607f1691610f7b565b6001600160a01b03165f9081527f52c63247e1f47db19d5ce0460030c497f067ca4cebf71ba98eeadabe20bace016020526040902090565b6001600160a01b0316801561103a575f5160206112285f395f51905f5280546001600160a01b0319811683179091556001600160a01b03167f8be0079c531659141344cd1fd0a4f28419497f9722a3daafe3b4186f6b6457e05f80a3565b631e4fbdf760e01b5f525f60045260245ffd5b6001600160a01b031690811561029f576001600160a01b0316918215610c1957815f525f5160206111e85f395f51905f5260205260405f20548181106110f257817fddf252ad1be2c89b69c2b068fc378daa952ba7f163c4a11628f55a4df523b3ef92602092855f525f5160206111e85f395f51905f5284520360405f2055845f525f5160206111e85f395f51905f52825260405f20818154019055604051908152a3565b8263391434e360e21b5f5260045260245260445260645ffd5b5f5160206112285f395f51905f52546001600160a01b0316330361112b57565b63118cdaa760e01b5f523360045260245ffd5b60ff5f5160206112885f395f51905f525460401c161561115a57565b631afcd79f60e31b5f5260045ffd5b9061118d575080511561117e57602081519101fd5b63d6bda27560e01b5f5260045ffd5b815115806111be575b61119e575090565b639996b31560e01b5f9081526001600160a01b0391909116600452602490fd5b50803b1561119656fe52c63247e1f47db19d5ce0460030c497f067ca4cebf71ba98eeadabe20bace0352c63247e1f47db19d5ce0460030c497f067ca4cebf71ba98eeadabe20bace0052c63247e1f47db19d5ce0460030c497f067ca4cebf71ba98eeadabe20bace049016d09d72d40fdae2fd8ceac6b6234c7706214fd39c1cd1e609a0528c19930052c63247e1f47db19d5ce0460030c497f067ca4cebf71ba98eeadabe20bace02360894a13ba1a3210667c828492db98dca3e2076cc3735a920a3ca505d382bbcf0c57e16840df040f15088dc2f81fe391c3923bec73e23a9662efc9c229c6a00a26469706673582212206f82446eda2ef71abbf46aaaab6f279337c95725ba202174970436b03e2d890764736f6c634300081e0033f0c57e16840df040f15088dc2f81fe391c3923bec73e23a9662efc9c229c6a00","linkReferences":{}},"methodIdentifiers":{"UPGRADE_INTERFACE_VERSION()":"ad3cb1cc","allowance(address,address)":"dd62ed3e","approve(address,uint256)":"095ea7b3","balanceOf(address)":"70a08231","burn(address,uint256)":"9dc29fac","decimals()":"313ce567","initialize(string,string)":"4cd88b76","mint(address,uint256)":"40c10f19","name()":"06fdde03","owner()":"8da5cb5b","proxiableUUID()":"52d1902d","renounceOwnership()":"715018a6","symbol()":"95d89b41","totalSupply()":"18160ddd","transfer(address,uint256)":"a9059cbb","transferFrom(address,address,uint256)":"23b872dd","transferOwnership(address)":"f2fde38b","upgradeToAndCall(address,bytes)":"4f1ef286"},"id":21}