{"abi":[{"type":"constructor","inputs":[],"stateMutability":"nonpayable"},{"type":"function","name":"UPGRADE_INTERFACE_VERSION","inputs":[],"outputs":[{"name":"","type":"string","internalType":"string"}],"stateMutability":"view"},{"type":"function","name":"addLiquidity","inputs":[{"name":"_token","type":"address","internalType":"address"},{"name":"_amount","type":"uint256","internalType":"uint256"},{"name":"_minUsdy","type":"uint256","internalType":"uint256"},{"name":"_minYtLP","type":"uint256","internalType":"uint256"}],"outputs":[{"name":"","type":"uint256","internalType":"uint256"}],"stateMutability":"nonpayable"},{"type":"function","name":"getAccountValue","inputs":[{"name":"_account","type":"address","internalType":"address"}],"outputs":[{"name":"","type":"uint256","internalType":"uint256"}],"stateMutability":"view"},{"type":"function","name":"getYtLPPrice","inputs":[],"outputs":[{"name":"","type":"uint256","internalType":"uint256"}],"stateMutability":"view"},{"type":"function","name":"gov","inputs":[],"outputs":[{"name":"","type":"address","internalType":"address"}],"stateMutability":"view"},{"type":"function","name":"initialize","inputs":[{"name":"_usdy","type":"address","internalType":"address"},{"name":"_ytLP","type":"address","internalType":"address"},{"name":"_ytPoolManager","type":"address","internalType":"address"},{"name":"_ytVault","type":"address","internalType":"address"}],"outputs":[],"stateMutability":"nonpayable"},{"type":"function","name":"pause","inputs":[],"outputs":[],"stateMutability":"nonpayable"},{"type":"function","name":"paused","inputs":[],"outputs":[{"name":"","type":"bool","internalType":"bool"}],"stateMutability":"view"},{"type":"function","name":"proxiableUUID","inputs":[],"outputs":[{"name":"","type":"bytes32","internalType":"bytes32"}],"stateMutability":"view"},{"type":"function","name":"removeLiquidity","inputs":[{"name":"_tokenOut","type":"address","internalType":"address"},{"name":"_ytLPAmount","type":"uint256","internalType":"uint256"},{"name":"_minOut","type":"uint256","internalType":"uint256"},{"name":"_receiver","type":"address","internalType":"address"}],"outputs":[{"name":"","type":"uint256","internalType":"uint256"}],"stateMutability":"nonpayable"},{"type":"function","name":"swapYT","inputs":[{"name":"_tokenIn","type":"address","internalType":"address"},{"name":"_tokenOut","type":"address","internalType":"address"},{"name":"_amountIn","type":"uint256","internalType":"uint256"},{"name":"_minOut","type":"uint256","internalType":"uint256"},{"name":"_receiver","type":"address","internalType":"address"}],"outputs":[{"name":"","type":"uint256","internalType":"uint256"}],"stateMutability":"nonpayable"},{"type":"function","name":"unpause","inputs":[],"outputs":[],"stateMutability":"nonpayable"},{"type":"function","name":"upgradeToAndCall","inputs":[{"name":"newImplementation","type":"address","internalType":"address"},{"name":"data","type":"bytes","internalType":"bytes"}],"outputs":[],"stateMutability":"payable"},{"type":"function","name":"usdy","inputs":[],"outputs":[{"name":"","type":"address","internalType":"address"}],"stateMutability":"view"},{"type":"function","name":"ytLP","inputs":[],"outputs":[{"name":"","type":"address","internalType":"address"}],"stateMutability":"view"},{"type":"function","name":"ytPoolManager","inputs":[],"outputs":[{"name":"","type":"address","internalType":"address"}],"stateMutability":"view"},{"type":"function","name":"ytVault","inputs":[],"outputs":[{"name":"","type":"address","internalType":"address"}],"stateMutability":"view"},{"type":"event","name":"Initialized","inputs":[{"name":"version","type":"uint64","indexed":false,"internalType":"uint64"}],"anonymous":false},{"type":"event","name":"Paused","inputs":[{"name":"account","type":"address","indexed":false,"internalType":"address"}],"anonymous":false},{"type":"event","name":"Swap","inputs":[{"name":"account","type":"address","indexed":true,"internalType":"address"},{"name":"tokenIn","type":"address","indexed":false,"internalType":"address"},{"name":"tokenOut","type":"address","indexed":false,"internalType":"address"},{"name":"amountIn","type":"uint256","indexed":false,"internalType":"uint256"},{"name":"amountOut","type":"uint256","indexed":false,"internalType":"uint256"}],"anonymous":false},{"type":"event","name":"Unpaused","inputs":[{"name":"account","type":"address","indexed":false,"internalType":"address"}],"anonymous":false},{"type":"event","name":"Upgraded","inputs":[{"name":"implementation","type":"address","indexed":true,"internalType":"address"}],"anonymous":false},{"type":"error","name":"AddressEmptyCode","inputs":[{"name":"target","type":"address","internalType":"address"}]},{"type":"error","name":"AlreadyInitialized","inputs":[]},{"type":"error","name":"ERC1967InvalidImplementation","inputs":[{"name":"implementation","type":"address","internalType":"address"}]},{"type":"error","name":"ERC1967NonPayable","inputs":[]},{"type":"error","name":"EnforcedPause","inputs":[]},{"type":"error","name":"ExpectedPause","inputs":[]},{"type":"error","name":"FailedCall","inputs":[]},{"type":"error","name":"Forbidden","inputs":[]},{"type":"error","name":"InsufficientOutput","inputs":[]},{"type":"error","name":"InvalidAddress","inputs":[]},{"type":"error","name":"InvalidAmount","inputs":[]},{"type":"error","name":"InvalidInitialization","inputs":[]},{"type":"error","name":"NotInitializing","inputs":[]},{"type":"error","name":"ReentrancyGuardReentrantCall","inputs":[]},{"type":"error","name":"UUPSUnauthorizedCallContext","inputs":[]},{"type":"error","name":"UUPSUnsupportedProxiableUUID","inputs":[{"name":"slot","type":"bytes32","internalType":"bytes32"}]}],"bytecode":{"object":"0x60a080604052346100c257306080525f5160206110f25f395f51905f525460ff8160401c166100b3576002600160401b03196001600160401b03821601610060575b60405161102b90816100c782396080518181816108be015261098e0152f35b6001600160401b0319166001600160401b039081175f5160206110f25f395f51905f525581527fc7f505b2f371ae2175ee4913f4499e1f2633a7b5936321eed1cdaeb6115181d290602090a15f80610041565b63f92ee8a960e01b5f5260045ffd5b5f80fdfe6080806040526004361015610012575f80fd5b5f3560e01c90816312d43a5114610dbf575080631ece366a14610c5d5780631fb73c8b14610bd55780633f4ba83a14610b4e5780634f1ef2861461091257806352d1902d146108ac5780635ae809511461077b5780635c975abb1461074d578063778d733d146107255780638456cb591461069c57806384a08e63146106745780638fed0b2c1461058e578063925a9aef146103b757806398d506e91461038f578063ad3cb1cc14610331578063e348031b146103095763f8c8765e146100d7575f80fd5b34610305576080366003190112610305576100f0610de1565b6100f8610e0d565b6044356001600160a01b0381169081900361030557610115610df7565b5f516020610fd65f395f51905f52549360ff8560401c16159467ffffffffffffffff8116801590816102fd575b60011490816102f3575b1590816102ea575b506102db5767ffffffffffffffff1981166001175f516020610fd65f395f51905f5255856102af575b506001600160a01b03169283156102a0576001600160a01b03169081156102a05782156102a0576001600160a01b03169283156102a0576101bc610eec565b6101c4610eec565b60015f516020610fb65f395f51905f52556101dd610eec565b6101e5610eec565b336001600160601b0360a01b5f5416175f556001600160601b0360a01b60015416176001556001600160601b0360a01b60025416176002556001600160601b0360a01b60035416176003556001600160601b0360a01b600454161760045561024957005b68ff0000000000000000195f516020610fd65f395f51905f5254165f516020610fd65f395f51905f52557fc7f505b2f371ae2175ee4913f4499e1f2633a7b5936321eed1cdaeb6115181d2602060405160018152a1005b63e6c4247b60e01b5f5260045ffd5b68ffffffffffffffffff191668010000000000000001175f516020610fd65f395f51905f52555f61017d565b63f92ee8a960e01b5f5260045ffd5b9050155f610154565b303b15915061014c565b879150610142565b5f80fd5b34610305575f366003190112610305576002546040516001600160a01b039091168152602090f35b34610305575f3660031901126103055760408051906103508183610e23565b600582526020820191640352e302e360dc1b83528151928391602083525180918160208501528484015e5f828201840152601f01601f19168101030190f35b34610305575f366003190112610305576001546040516001600160a01b039091168152602090f35b346103055760a0366003190112610305576103d0610de1565b6103d8610e0d565b6084356001600160a01b03811692919060443590849003610305576103fb610e8d565b610403610ec5565b801561057f57600480546040516323b872dd60e01b815233928101929092526001600160a01b03908116602483015260448201839052909316916020846064815f875af1908115610549575f94602092610554575b5060048054604051634998b10960e11b81529182018690526001600160a01b0392831660248301819052604483019890985290958692606492849291165af1928315610549575f93610515575b506064358310610506576020936040519283528483015260408201528160608201527fcd3829a3813dc3cdd188fd3d01dcf3268c16be2fdd2dd21d0665418816e4606260803392a260015f516020610fb65f395f51905f5255604051908152f35b63bb2875c360e01b5f5260045ffd5b9092506020813d602011610541575b8161053160209383610e23565b81010312610305575191846104a5565b3d9150610524565b6040513d5f823e3d90fd5b61057390833d8511610578575b61056b8183610e23565b810190610e75565b610458565b503d610561565b63162908e360e11b5f5260045ffd5b34610305576080366003190112610305576105a7610de1565b602435906105b3610df7565b916105bc610e8d565b6105c4610ec5565b801561057f576003546040516371d597ad60e01b81523360048201526001600160a01b03938416602482015260448082019390935291356064830152928216608482015291602091839160a49183915f91165af18015610549575f90610641575b60209060015f516020610fb65f395f51905f5255604051908152f35b506020813d60201161066c575b8161065b60209383610e23565b810103126103055760209051610625565b3d915061064e565b34610305575f366003190112610305576004546040516001600160a01b039091168152602090f35b34610305575f366003190112610305575f546001600160a01b03163303610716576106c5610ec5565b600160ff195f516020610f965f395f51905f525416175f516020610f965f395f51905f52557f62e78cea01bee320cd4e420270b5ea74000d11b0c9f74754ebdbfc544b05a2586020604051338152a1005b631dd2188d60e31b5f5260045ffd5b34610305575f366003190112610305576003546040516001600160a01b039091168152602090f35b34610305575f36600319011261030557602060ff5f516020610f965f395f51905f5254166040519015158152f35b3461030557602036600319011261030557610794610de1565b6002546040516370a0823160e01b81526001600160a01b0392831660048201529160209183916024918391165afa8015610549575f90610879575b60035460405163e245b5af60e01b8152600160048201529250602090839060249082906001600160a01b03165afa918215610549575f92610845575b5081810291818304149015171561083157602090670de0b6b3a764000060405191048152f35b634e487b7160e01b5f52601160045260245ffd5b9091506020813d602011610871575b8161086160209383610e23565b810103126103055751908261080b565b3d9150610854565b506020813d6020116108a4575b8161089360209383610e23565b8101031261030557602490516107cf565b3d9150610886565b34610305575f366003190112610305577f00000000000000000000000000000000000000000000000000000000000000006001600160a01b031630036109035760206040515f516020610f765f395f51905f528152f35b63703e46dd60e11b5f5260045ffd5b604036600319011261030557610926610de1565b6024359067ffffffffffffffff821161030557366023830112156103055781600401359061095382610e59565b916109616040519384610e23565b8083526020830193366024838301011161030557815f926024602093018737840101526001600160a01b037f000000000000000000000000000000000000000000000000000000000000000016308114908115610b2c575b50610903575f546001600160a01b03163303610716576040516352d1902d60e01b81526001600160a01b0382169390602081600481885afa5f9181610af8575b50610a115784634c9c8ce360e01b5f5260045260245ffd5b805f516020610f765f395f51905f52869203610ae65750823b15610ad4575f516020610f765f395f51905f5280546001600160a01b031916821790557fbc7cd75a20ee27fd9adebab32041f755214dbc6bffa90cc0225b39da2e5c2d3b5f80a2825115610abb575f8091610ab1945190845af43d15610ab3573d91610a9583610e59565b92610aa36040519485610e23565b83523d5f602085013e610f17565b005b606091610f17565b50505034610ac557005b63b398979f60e01b5f5260045ffd5b634c9c8ce360e01b5f5260045260245ffd5b632a87526960e21b5f5260045260245ffd5b9091506020813d602011610b24575b81610b1460209383610e23565b81010312610305575190866109f9565b3d9150610b07565b5f516020610f765f395f51905f52546001600160a01b031614159050846109b9565b34610305575f366003190112610305575f546001600160a01b03163303610716575f516020610f965f395f51905f525460ff811615610bc65760ff19165f516020610f965f395f51905f52557f5db9ee0a495bf2e6ff9c91a7834c1ba4fdd244a5e8aa4e537bd38aeae4b073aa6020604051338152a1005b638dfc202b60e01b5f5260045ffd5b34610305575f3660031901126103055760035460405163e245b5af60e01b81526001600482015290602090829060249082906001600160a01b03165afa8015610549575f90610c2a575b602090604051908152f35b506020813d602011610c55575b81610c4460209383610e23565b810103126103055760209051610c1f565b3d9150610c37565b3461030557608036600319011261030557610c76610de1565b60243590610c82610e8d565b610c8a610ec5565b811561057f576040516323b872dd60e01b8152336004820152306024820152604481018390526001600160a01b039190911691906020816064815f875af1801561054957610da2575b5060035460405163095ea7b360e01b81526001600160a01b03909116600482015260248101829052906020826044815f875af191821561054957602092610d87575b5060c460018060a01b0360035416935f60405195869485936317eb2a1560e01b855230600486015233602486015260448501526064840152604435608484015260643560a48401525af18015610549575f906106415760209060015f516020610fb65f395f51905f5255604051908152f35b610d9d90833d85116105785761056b8183610e23565b610d15565b610dba9060203d6020116105785761056b8183610e23565b610cd3565b34610305575f366003190112610305575f546001600160a01b03168152602090f35b600435906001600160a01b038216820361030557565b606435906001600160a01b038216820361030557565b602435906001600160a01b038216820361030557565b90601f8019910116810190811067ffffffffffffffff821117610e4557604052565b634e487b7160e01b5f52604160045260245ffd5b67ffffffffffffffff8111610e4557601f01601f191660200190565b90816020910312610305575180151581036103055790565b60025f516020610fb65f395f51905f525414610eb65760025f516020610fb65f395f51905f5255565b633ee5aeb560e01b5f5260045ffd5b60ff5f516020610f965f395f51905f525416610edd57565b63d93c066560e01b5f5260045ffd5b60ff5f516020610fd65f395f51905f525460401c1615610f0857565b631afcd79f60e31b5f5260045ffd5b90610f3b5750805115610f2c57602081519101fd5b63d6bda27560e01b5f5260045ffd5b81511580610f6c575b610f4c575090565b639996b31560e01b5f9081526001600160a01b0391909116600452602490fd5b50803b15610f4456fe360894a13ba1a3210667c828492db98dca3e2076cc3735a920a3ca505d382bbccd5ed15c6e187e77e9aee88184c21f4f2182ab5827cb3b7e07fbedcd63f033009b779b17422d0df92223018b32b4d1fa46e071723d6817e2486d003becc55f00f0c57e16840df040f15088dc2f81fe391c3923bec73e23a9662efc9c229c6a00a26469706673582212206961b1f041e888ffcfad810b8269415f7f4ba3423ca0818eaa9a28b1191522f964736f6c634300081e0033f0c57e16840df040f15088dc2f81fe391c3923bec73e23a9662efc9c229c6a00","linkReferences":{}},"methodIdentifiers":{"UPGRADE_INTERFACE_VERSION()":"ad3cb1cc","addLiquidity(address,uint256,uint256,uint256)":"1ece366a","getAccountValue(address)":"5ae80951","getYtLPPrice()":"1fb73c8b","gov()":"12d43a51","initialize(address,address,address,address)":"f8c8765e","pause()":"8456cb59","paused()":"5c975abb","proxiableUUID()":"52d1902d","removeLiquidity(address,uint256,uint256,address)":"8fed0b2c","swapYT(address,address,uint256,uint256,address)":"925a9aef","unpause()":"3f4ba83a","upgradeToAndCall(address,bytes)":"4f1ef286","usdy()":"98d506e9","ytLP()":"e348031b","ytPoolManager()":"778d733d","ytVault()":"84a08e63"},"id":5}