{"abi":[{"type":"constructor","inputs":[],"stateMutability":"nonpayable"},{"type":"function","name":"UPGRADE_INTERFACE_VERSION","inputs":[],"outputs":[{"name":"","type":"string","internalType":"string"}],"stateMutability":"view"},{"type":"function","name":"allVaults","inputs":[{"name":"","type":"uint256","internalType":"uint256"}],"outputs":[{"name":"","type":"address","internalType":"address"}],"stateMutability":"view"},{"type":"function","name":"createVault","inputs":[{"name":"_name","type":"string","internalType":"string"},{"name":"_symbol","type":"string","internalType":"string"},{"name":"_manager","type":"address","internalType":"address"},{"name":"_hardCap","type":"uint256","internalType":"uint256"},{"name":"_usdc","type":"address","internalType":"address"},{"name":"_redemptionTime","type":"uint256","internalType":"uint256"},{"name":"_initialYtPrice","type":"uint256","internalType":"uint256"},{"name":"_usdcPriceFeed","type":"address","internalType":"address"}],"outputs":[{"name":"vault","type":"address","internalType":"address"}],"stateMutability":"nonpayable"},{"type":"function","name":"createVaultBatch","inputs":[{"name":"_names","type":"string[]","internalType":"string[]"},{"name":"_symbols","type":"string[]","internalType":"string[]"},{"name":"_managers","type":"address[]","internalType":"address[]"},{"name":"_hardCaps","type":"uint256[]","internalType":"uint256[]"},{"name":"_usdc","type":"address","internalType":"address"},{"name":"_redemptionTimes","type":"uint256[]","internalType":"uint256[]"},{"name":"_initialYtPrices","type":"uint256[]","internalType":"uint256[]"},{"name":"_usdcPriceFeed","type":"address","internalType":"address"}],"outputs":[{"name":"vaults","type":"address[]","internalType":"address[]"}],"stateMutability":"nonpayable"},{"type":"function","name":"defaultHardCap","inputs":[],"outputs":[{"name":"","type":"uint256","internalType":"uint256"}],"stateMutability":"view"},{"type":"function","name":"getAllVaults","inputs":[],"outputs":[{"name":"","type":"address[]","internalType":"address[]"}],"stateMutability":"view"},{"type":"function","name":"getVaultCount","inputs":[],"outputs":[{"name":"","type":"uint256","internalType":"uint256"}],"stateMutability":"view"},{"type":"function","name":"getVaultInfo","inputs":[{"name":"_vault","type":"address","internalType":"address"}],"outputs":[{"name":"exists","type":"bool","internalType":"bool"},{"name":"totalAssets","type":"uint256","internalType":"uint256"},{"name":"idleAssets","type":"uint256","internalType":"uint256"},{"name":"managedAssets","type":"uint256","internalType":"uint256"},{"name":"totalSupply","type":"uint256","internalType":"uint256"},{"name":"hardCap","type":"uint256","internalType":"uint256"},{"name":"usdcPrice","type":"uint256","internalType":"uint256"},{"name":"ytPrice","type":"uint256","internalType":"uint256"},{"name":"nextRedemptionTime","type":"uint256","internalType":"uint256"}],"stateMutability":"view"},{"type":"function","name":"getVaults","inputs":[{"name":"_start","type":"uint256","internalType":"uint256"},{"name":"_end","type":"uint256","internalType":"uint256"}],"outputs":[{"name":"vaults","type":"address[]","internalType":"address[]"}],"stateMutability":"view"},{"type":"function","name":"initialize","inputs":[{"name":"_vaultImplementation","type":"address","internalType":"address"},{"name":"_defaultHardCap","type":"uint256","internalType":"uint256"}],"outputs":[],"stateMutability":"nonpayable"},{"type":"function","name":"isVault","inputs":[{"name":"","type":"address","internalType":"address"}],"outputs":[{"name":"","type":"bool","internalType":"bool"}],"stateMutability":"view"},{"type":"function","name":"owner","inputs":[],"outputs":[{"name":"","type":"address","internalType":"address"}],"stateMutability":"view"},{"type":"function","name":"pauseVault","inputs":[{"name":"_vault","type":"address","internalType":"address"}],"outputs":[],"stateMutability":"nonpayable"},{"type":"function","name":"pauseVaultBatch","inputs":[{"name":"_vaults","type":"address[]","internalType":"address[]"}],"outputs":[],"stateMutability":"nonpayable"},{"type":"function","name":"proxiableUUID","inputs":[],"outputs":[{"name":"","type":"bytes32","internalType":"bytes32"}],"stateMutability":"view"},{"type":"function","name":"renounceOwnership","inputs":[],"outputs":[],"stateMutability":"nonpayable"},{"type":"function","name":"setDefaultHardCap","inputs":[{"name":"_defaultHardCap","type":"uint256","internalType":"uint256"}],"outputs":[],"stateMutability":"nonpayable"},{"type":"function","name":"setHardCap","inputs":[{"name":"_vault","type":"address","internalType":"address"},{"name":"_hardCap","type":"uint256","internalType":"uint256"}],"outputs":[],"stateMutability":"nonpayable"},{"type":"function","name":"setHardCapBatch","inputs":[{"name":"_vaults","type":"address[]","internalType":"address[]"},{"name":"_hardCaps","type":"uint256[]","internalType":"uint256[]"}],"outputs":[],"stateMutability":"nonpayable"},{"type":"function","name":"setPriceStalenessThreshold","inputs":[{"name":"_vault","type":"address","internalType":"address"},{"name":"_threshold","type":"uint256","internalType":"uint256"}],"outputs":[],"stateMutability":"nonpayable"},{"type":"function","name":"setVaultImplementation","inputs":[{"name":"_newImplementation","type":"address","internalType":"address"}],"outputs":[],"stateMutability":"nonpayable"},{"type":"function","name":"setVaultManager","inputs":[{"name":"_vault","type":"address","internalType":"address"},{"name":"_manager","type":"address","internalType":"address"}],"outputs":[],"stateMutability":"nonpayable"},{"type":"function","name":"setVaultNextRedemptionTime","inputs":[{"name":"_vault","type":"address","internalType":"address"},{"name":"_nextRedemptionTime","type":"uint256","internalType":"uint256"}],"outputs":[],"stateMutability":"nonpayable"},{"type":"function","name":"setVaultNextRedemptionTimeBatch","inputs":[{"name":"_vaults","type":"address[]","internalType":"address[]"},{"name":"_nextRedemptionTime","type":"uint256","internalType":"uint256"}],"outputs":[],"stateMutability":"nonpayable"},{"type":"function","name":"transferOwnership","inputs":[{"name":"newOwner","type":"address","internalType":"address"}],"outputs":[],"stateMutability":"nonpayable"},{"type":"function","name":"unpauseVault","inputs":[{"name":"_vault","type":"address","internalType":"address"}],"outputs":[],"stateMutability":"nonpayable"},{"type":"function","name":"unpauseVaultBatch","inputs":[{"name":"_vaults","type":"address[]","internalType":"address[]"}],"outputs":[],"stateMutability":"nonpayable"},{"type":"function","name":"updateVaultPrices","inputs":[{"name":"_vault","type":"address","internalType":"address"},{"name":"_ytPrice","type":"uint256","internalType":"uint256"}],"outputs":[],"stateMutability":"nonpayable"},{"type":"function","name":"updateVaultPricesBatch","inputs":[{"name":"_vaults","type":"address[]","internalType":"address[]"},{"name":"_ytPrices","type":"uint256[]","internalType":"uint256[]"}],"outputs":[],"stateMutability":"nonpayable"},{"type":"function","name":"upgradeToAndCall","inputs":[{"name":"newImplementation","type":"address","internalType":"address"},{"name":"data","type":"bytes","internalType":"bytes"}],"outputs":[],"stateMutability":"payable"},{"type":"function","name":"upgradeVault","inputs":[{"name":"_vault","type":"address","internalType":"address"},{"name":"_newImplementation","type":"address","internalType":"address"}],"outputs":[],"stateMutability":"nonpayable"},{"type":"function","name":"upgradeVaultBatch","inputs":[{"name":"_vaults","type":"address[]","internalType":"address[]"},{"name":"_newImplementation","type":"address","internalType":"address"}],"outputs":[],"stateMutability":"nonpayable"},{"type":"function","name":"vaultImplementation","inputs":[],"outputs":[{"name":"","type":"address","internalType":"address"}],"stateMutability":"view"},{"type":"event","name":"DefaultHardCapSet","inputs":[{"name":"newDefaultHardCap","type":"uint256","indexed":false,"internalType":"uint256"}],"anonymous":false},{"type":"event","name":"HardCapSet","inputs":[{"name":"vault","type":"address","indexed":true,"internalType":"address"},{"name":"newHardCap","type":"uint256","indexed":false,"internalType":"uint256"}],"anonymous":false},{"type":"event","name":"Initialized","inputs":[{"name":"version","type":"uint64","indexed":false,"internalType":"uint64"}],"anonymous":false},{"type":"event","name":"NextRedemptionTimeSet","inputs":[{"name":"vault","type":"address","indexed":true,"internalType":"address"},{"name":"redemptionTime","type":"uint256","indexed":false,"internalType":"uint256"}],"anonymous":false},{"type":"event","name":"OwnershipTransferred","inputs":[{"name":"previousOwner","type":"address","indexed":true,"internalType":"address"},{"name":"newOwner","type":"address","indexed":true,"internalType":"address"}],"anonymous":false},{"type":"event","name":"PricesUpdated","inputs":[{"name":"vault","type":"address","indexed":true,"internalType":"address"},{"name":"ytPrice","type":"uint256","indexed":false,"internalType":"uint256"}],"anonymous":false},{"type":"event","name":"Upgraded","inputs":[{"name":"implementation","type":"address","indexed":true,"internalType":"address"}],"anonymous":false},{"type":"event","name":"VaultCreated","inputs":[{"name":"vault","type":"address","indexed":true,"internalType":"address"},{"name":"manager","type":"address","indexed":true,"internalType":"address"},{"name":"name","type":"string","indexed":false,"internalType":"string"},{"name":"symbol","type":"string","indexed":false,"internalType":"string"},{"name":"hardCap","type":"uint256","indexed":false,"internalType":"uint256"},{"name":"index","type":"uint256","indexed":false,"internalType":"uint256"}],"anonymous":false},{"type":"event","name":"VaultImplementationUpdated","inputs":[{"name":"newImplementation","type":"address","indexed":true,"internalType":"address"}],"anonymous":false},{"type":"error","name":"AddressEmptyCode","inputs":[{"name":"target","type":"address","internalType":"address"}]},{"type":"error","name":"ERC1967InvalidImplementation","inputs":[{"name":"implementation","type":"address","internalType":"address"}]},{"type":"error","name":"ERC1967NonPayable","inputs":[]},{"type":"error","name":"FailedCall","inputs":[]},{"type":"error","name":"InvalidAddress","inputs":[]},{"type":"error","name":"InvalidHardCap","inputs":[]},{"type":"error","name":"InvalidInitialization","inputs":[]},{"type":"error","name":"NotInitializing","inputs":[]},{"type":"error","name":"OwnableInvalidOwner","inputs":[{"name":"owner","type":"address","internalType":"address"}]},{"type":"error","name":"OwnableUnauthorizedAccount","inputs":[{"name":"account","type":"address","internalType":"address"}]},{"type":"error","name":"UUPSUnauthorizedCallContext","inputs":[]},{"type":"error","name":"UUPSUnsupportedProxiableUUID","inputs":[{"name":"slot","type":"bytes32","internalType":"bytes32"}]},{"type":"error","name":"VaultNotExists","inputs":[]}],"bytecode":{"object":"0x60a080604052346100c257306080525f5160206122b35f395f51905f525460ff8160401c166100b3576002600160401b03196001600160401b03821601610060575b6040516121ec90816100c78239608051818181610f5c0152610ffe0152f35b6001600160401b0319166001600160401b039081175f5160206122b35f395f51905f525581527fc7f505b2f371ae2175ee4913f4499e1f2633a7b5936321eed1cdaeb6115181d290602090a15f80610041565b63f92ee8a960e01b5f5260045ffd5b5f80fdfe60806040526004361015610011575f80fd5b5f3560e01c806303213e9e14611842578063051c6b0614611739578063054bf171146116945780630dac11431461146d57806324cff45e146112205780632efbab2c146111b55780634f1ef28614610fb057806352d1902d14610f4a57806353e78b6b14610ee357806360bf3eac14610ec6578063652b9b4114610e89578063715018a614610e2257806374d4e49114610e0557806378db5eb614610d405780637912922514610cb357806383d8605914610ba95780638da5cb5b14610b7557806390229af714610b145780639094a91e14610ad257806396403a52146109d357806397331bf91461094a57806398d59b61146108415780639b18ba5f1461079b578063ad3cb1cc14610754578063b18800ee146106ae578063b98cca37146105e6578063bba48a90146105bf578063c0bd6f9e14610554578063c6ee542b1461048f578063cd6dc68714610300578063e01b768814610284578063ece3221d146101b35763f2fde38b14610184575f80fd5b346101af5760203660031901126101af576101ad6101a06118c6565b6101a8611dfd565b611d8c565b005b5f80fd5b346101af5760403660031901126101af576101cc6118c6565b602435906101d8611dfd565b6001600160a01b03165f8181526002602052604090205490919060ff161561027557813b156101af5760405163d18d944b60e01b815260048101829052905f8260248183875af190811561026a577fa665793cc0376980a860c5c155c641bf10dbf171a5913408c71bb6613aacaf099260209261025a575b50604051908152a2005b5f6102649161188e565b84610250565b6040513d5f823e3d90fd5b63055d22df60e51b5f5260045ffd5b346101af5760403660031901126101af5761029d6118c6565b6102a5611dfd565b6001600160a01b03165f8181526002602052604090205460ff161561027557803b156101af575f8091602460405180948193630922b50b60e31b8352833560048401525af1801561026a576102f657005b5f6101ad9161188e565b346101af5760403660031901126101af576103196118c6565b5f5160206121975f395f51905f52549060ff8260401c1615916001600160401b03811680159081610487575b600114908161047d575b159081610474575b506104655767ffffffffffffffff1981166001175f5160206121975f395f51905f525582610439575b506001600160a01b0316801561042a57610398611e30565b6103a0611e30565b6103a933611d8c565b6103b1611e30565b6bffffffffffffffffffffffff60a01b5f5416175f556024356003556103d357005b68ff0000000000000000195f5160206121975f395f51905f5254165f5160206121975f395f51905f52557fc7f505b2f371ae2175ee4913f4499e1f2633a7b5936321eed1cdaeb6115181d2602060405160018152a1005b63e6c4247b60e01b5f5260045ffd5b68ffffffffffffffffff191668010000000000000001175f5160206121975f395f51905f525582610380565b63f92ee8a960e01b5f5260045ffd5b90501584610357565b303b15915061034f565b849150610345565b346101af5760203660031901126101af576004356001600160401b0381116101af576104bf90369060040161191e565b6104c7611dfd565b5f5b81518110156101ad576001600160a01b036104e48284611bf0565b51165f52600260205260ff60405f20541615610275576001600160a01b0361050c8284611bf0565b511690813b156101af575f8092600460405180958193631fa5d41d60e11b83525af191821561026a57600192610544575b50016104c9565b5f61054e9161188e565b8361053d565b346101af5760203660031901126101af5761056d6118c6565b610575611dfd565b6001600160a01b03165f8181526002602052604090205460ff161561027557803b156101af575f8091600460405180948193638456cb5960e01b83525af1801561026a576102f657005b346101af575f3660031901126101af575f546040516001600160a01b039091168152602090f35b346101af5760403660031901126101af57600435602435808210806106a2575b1561066d5761061d6106188383611c6b565b611c78565b91805b82811061063957604051806106358682611b20565b0390f35b80610645600192611b62565b838060a01b0391549060031b1c166106666106608584611c6b565b87611bf0565b5201610620565b60405162461bcd60e51b815260206004820152600d60248201526c496e76616c69642072616e676560981b6044820152606490fd5b50600154811115610606565b346101af5760403660031901126101af576106c76118c6565b602435906106d3611dfd565b6001600160a01b03165f8181526002602052604090205490919060ff161561027557813b156101af5760405163792fbf3b60e01b815260048101829052905f8260248183875af190811561026a577f777741edb3f7326190bede5657cac675b5698ca728fb47631cedb1224d71b0479260209261025a5750604051908152a2005b346101af575f3660031901126101af5761063560405161077560408261188e565b60058152640352e302e360dc1b6020820152604051918291602083526020830190611b8e565b346101af5760403660031901126101af576107b46118c6565b602435906107c0611dfd565b6001600160a01b03165f8181526002602052604090205490919060ff161561027557813b156101af5760405163ae7e8d8160e01b815260048101829052905f8260248183875af190811561026a577f1db07317d944fb563c6d750946bf53313c09b4a1cd8117956f9f41aae9ba980c9260209261025a5750604051908152a2005b346101af5761084f366119e9565b610857611dfd565b6108648251825114611bb2565b5f5b82518110156101ad576001600160a01b036108818285611bf0565b51165f52600260205260ff60405f20541615610275576001600160a01b036108a98285611bf0565b5116906108b68184611bf0565b51823b156101af575f9260248492604051958693849263d18d944b60e01b845260048401525af191821561026a5760019261093a575b50818060a01b036108fd8286611bf0565b51167fa665793cc0376980a860c5c155c641bf10dbf171a5913408c71bb6613aacaf09602061092c8487611bf0565b51604051908152a201610866565b5f6109449161188e565b846108ec565b346101af575f3660031901126101af5760405180602060015491828152019060015f527fb10e2d527612073b26eecdfd717e6a320cf44b4afac2b0732d9fcbe2b7fa0cf6905f5b8181106109b457610635856109a88187038261188e565b60405191829182611b20565b82546001600160a01b0316845260209093019260019283019201610991565b346101af5760403660031901126101af576004356001600160401b0381116101af57610a0390369060040161191e565b610a0b6118dc565b90610a14611dfd565b6001600160a01b0382161561042a575f5b81518110156101ad576001600160a01b03610a408284611bf0565b51165f52600260205260ff60405f20541615610275576001600160a01b03610a688284611bf0565b511690813b156101af576040805163278f794360e11b81526001600160a01b038616600482015260248101919091525f6044820181905290928390606490829084905af191821561026a57600192610ac2575b5001610a25565b5f610acc9161188e565b84610abb565b346101af5760203660031901126101af576004356001548110156101af57610afb602091611b62565b905460405160039290921b1c6001600160a01b03168152f35b346101af5760203660031901126101af57610120610b38610b336118c6565b611caa565b966040969196959295949394519815158952602089015260408801526060870152608086015260a085015260c084015260e0830152610100820152f35b346101af575f3660031901126101af575f5160206121575f395f51905f52546040516001600160a01b039091168152602090f35b346101af5760403660031901126101af576004356001600160401b0381116101af57610bd990369060040161191e565b602435610be4611dfd565b5f5b82518110156101ad576001600160a01b03610c018285611bf0565b51165f52600260205260ff60405f20541615610275576001600160a01b03610c298285611bf0565b511690813b156101af575f809260246040518095819363792fbf3b60e01b83528860048401525af191821561026a57600192610ca3575b50818060a01b03610c718286611bf0565b51167f777741edb3f7326190bede5657cac675b5698ca728fb47631cedb1224d71b0476020604051868152a201610be6565b5f610cad9161188e565b84610c60565b346101af5760403660031901126101af57610ccc6118c6565b610cd46118dc565b90610cdd611dfd565b6001600160a01b03165f8181526002602052604090205490919060ff1615610275576001600160a01b0316801561042a57813b156101af575f9160248392604051948593849263d0ebdbe760e01b845260048401525af1801561026a576102f657005b346101af5760203660031901126101af576004356001600160401b0381116101af57610d7090369060040161191e565b610d78611dfd565b5f5b81518110156101ad576001600160a01b03610d958284611bf0565b51165f52600260205260ff60405f20541615610275576001600160a01b03610dbd8284611bf0565b511690813b156101af575f8092600460405180958193638456cb5960e01b83525af191821561026a57600192610df5575b5001610d7a565b5f610dff9161188e565b83610dee565b346101af575f3660031901126101af576020600154604051908152f35b346101af575f3660031901126101af57610e3a611dfd565b5f5160206121575f395f51905f5280546001600160a01b031981169091555f906001600160a01b03167f8be0079c531659141344cd1fd0a4f28419497f9722a3daafe3b4186f6b6457e08280a3005b346101af5760203660031901126101af576001600160a01b03610eaa6118c6565b165f526002602052602060ff60405f2054166040519015158152f35b346101af575f3660031901126101af576020600354604051908152f35b346101af5760203660031901126101af57610efc6118c6565b610f04611dfd565b6001600160a01b0316801561042a575f80546001600160a01b031916821781557fa18254b43b40616bb21983c995ff77276701b68421ab1512749ed80d91e12a859080a2005b346101af575f3660031901126101af577f00000000000000000000000000000000000000000000000000000000000000006001600160a01b03163003610fa15760206040515f5160206121775f395f51905f528152f35b63703e46dd60e11b5f5260045ffd5b60403660031901126101af57610fc46118c6565b6024356001600160401b0381116101af57366023820112156101af57610ff4903690602481600401359101611a51565b6001600160a01b037f000000000000000000000000000000000000000000000000000000000000000016308114908115611193575b50610fa157611036611dfd565b6040516352d1902d60e01b81526001600160a01b0383169290602081600481875afa5f918161115f575b506110785783634c9c8ce360e01b5f5260045260245ffd5b805f5160206121775f395f51905f5285920361114d5750813b1561113b575f5160206121775f395f51905f5280546001600160a01b031916821790557fbc7cd75a20ee27fd9adebab32041f755214dbc6bffa90cc0225b39da2e5c2d3b5f80a2815115611123575f808360206101ad95519101845af43d1561111b573d916110ff83611a36565b9261110d604051948561188e565b83523d5f602085013e611e5b565b606091611e5b565b50503461112c57005b63b398979f60e01b5f5260045ffd5b634c9c8ce360e01b5f5260045260245ffd5b632a87526960e21b5f5260045260245ffd5b9091506020813d60201161118b575b8161117b6020938361188e565b810103126101af57519085611060565b3d915061116e565b5f5160206121775f395f51905f52546001600160a01b03161415905083611029565b346101af5760203660031901126101af576111ce6118c6565b6111d6611dfd565b6001600160a01b03165f8181526002602052604090205460ff161561027557803b156101af575f8091600460405180948193631fa5d41d60e11b83525af1801561026a576102f657005b346101af576101003660031901126101af576004356001600160401b0381116101af57611251903690600401611aa2565b6024356001600160401b0381116101af57611270903690600401611aa2565b906044356001600160401b0381116101af5761129090369060040161191e565b6064356001600160401b0381116101af576112af90369060040161198c565b906112b86118f2565b9360a4356001600160401b0381116101af576112d890369060040161198c565b60c4356001600160401b0381116101af576112f790369060040161198c565b90611300611908565b91611309611dfd565b6113318751855181149081611462575b81611457575b8161144c575b81611441575b50611bb2565b61133b8751611c78565b975f5b88518110156114335780602088886113be8961138a8f978f98816113658161136c93611bf0565b5196611bf0565b51956001600160a01b0390611382908390611bf0565b511698611bf0565b51611395878c611bf0565b51896113a1898d611bf0565b51926040519a8b988998630dac114360e01b8a5260048a01611c04565b03815f305af1801561026a575f906113ef575b600192506113df828d611bf0565b90838060a01b031690520161133e565b50906020813d821161142b575b816114096020938361188e565b810103126101af5751906001600160a01b03821682036101af576001916113d1565b3d91506113fc565b604051806106358c82611b20565b90508251148a61132b565b845181149150611325565b88518114915061131f565b875181149150611319565b346101af576101003660031901126101af576004356001600160401b0381116101af5761149e903690600401611a87565b6024356001600160401b0381116101af576114bd903690600401611a87565b6044356001600160a01b038116908181036101af576064356114dd6118f2565b6114e5611908565b906114ee611dfd565b841561042a5761153161153f92889480155f1461168e5750600354955b604051958694635fcbbc0760e11b60208701528860c435938c60a4359460248a01611c04565b03601f19810183528261188e565b5f546040519161029d808401926001600160a01b031691906001600160401b0384118585101761167a57849361158693604092611eba873981528160208201520190611b8e565b03905ff0801561026a5760018060a01b0316926001546801000000000000000081101561167a578060016115bd9201600155611b62565b81546001600160a01b0360039290921b91821b19169086901b1790555f848152600260205260409020805460ff19166001908117909155545f198101919082116116665760209585937f886e083bee1affc6ceee5fa0f6210a363873440f01062b989895c303d787d9549361165061164394604051958695608087526080870190611b8e565b908582038c870152611b8e565b91604084015260608301520390a3604051908152f35b634e487b7160e01b5f52601160045260245ffd5b634e487b7160e01b5f52604160045260245ffd5b9561150b565b346101af5760403660031901126101af576116ad6118c6565b6116b56118dc565b906116be611dfd565b6001600160a01b03165f8181526002602052604090205460ff1615610275576001600160a01b0382161561042a57803b156101af576040805163278f794360e11b81526001600160a01b038416600482015260248101919091525f6044820181905290918290606490829084905af1801561026a576102f657005b346101af57611747366119e9565b61174f611dfd565b61175c8251825114611bb2565b5f5b82518110156101ad576001600160a01b036117798285611bf0565b51165f52600260205260ff60405f20541615610275576001600160a01b036117a18285611bf0565b5116906117ae8184611bf0565b51823b156101af575f9260248492604051958693849263ae7e8d8160e01b845260048401525af191821561026a57600192611832575b50818060a01b036117f58286611bf0565b51167f1db07317d944fb563c6d750946bf53313c09b4a1cd8117956f9f41aae9ba980c60206118248487611bf0565b51604051908152a20161175e565b5f61183c9161188e565b846117e4565b346101af5760203660031901126101af577f313330c0aba7de8d1883a630d2afa55482bc3d64e68700c5dcb3a1488205acbe6020600435611881611dfd565b80600355604051908152a1005b90601f801991011681019081106001600160401b0382111761167a57604052565b6001600160401b03811161167a5760051b60200190565b600435906001600160a01b03821682036101af57565b602435906001600160a01b03821682036101af57565b608435906001600160a01b03821682036101af57565b60e435906001600160a01b03821682036101af57565b9080601f830112156101af57813590611936826118af565b92611944604051948561188e565b82845260208085019360051b8201019182116101af57602001915b81831061196c5750505090565b82356001600160a01b03811681036101af5781526020928301920161195f565b9080601f830112156101af5781356119a3816118af565b926119b1604051948561188e565b81845260208085019260051b8201019283116101af57602001905b8282106119d95750505090565b81358152602091820191016119cc565b9060406003198301126101af576004356001600160401b0381116101af5782611a149160040161191e565b91602435906001600160401b0382116101af57611a339160040161198c565b90565b6001600160401b03811161167a57601f01601f191660200190565b929192611a5d82611a36565b91611a6b604051938461188e565b8294818452818301116101af578281602093845f960137010152565b9080601f830112156101af57816020611a3393359101611a51565b9080601f830112156101af578135611ab9816118af565b92611ac7604051948561188e565b81845260208085019260051b820101918383116101af5760208201905b838210611af357505050505090565b81356001600160401b0381116101af57602091611b1587848094880101611a87565b815201910190611ae4565b60206040818301928281528451809452019201905f5b818110611b435750505090565b82516001600160a01b0316845260209384019390920191600101611b36565b600154811015611b7a5760015f5260205f2001905f90565b634e487b7160e01b5f52603260045260245ffd5b805180835260209291819084018484015e5f828201840152601f01601f1916010190565b15611bb957565b60405162461bcd60e51b815260206004820152600f60248201526e098cadccee8d040dad2e6dac2e8c6d608b1b6044820152606490fd5b8051821015611b7a5760209160051b010190565b96939060e0969399989592611c26611c34926101008b526101008b0190611b8e565b9089820360208b0152611b8e565b6001600160a01b03998a1660408901526060880191909152908816608087015260a086019190915260c08501919091529416910152565b9190820391821161166657565b90611c82826118af565b611c8f604051918261188e565b8281528092611ca0601f19916118af565b0190602036910137565b6001600160a01b03165f8181526002602052604090205460ff1691908215611d765761010060049160405192838092637f98aa7160e01b82525afa801561026a575f915f915f915f915f915f915f915f91611d0b575b509091929394959697565b975050505050505050610100813d8211611d6e575b81611d2e610100938361188e565b810103126101af578051602082015160408301516060840151608085015160a086015160c087015160e0909701519596949593949293919290915f611d00565b3d9150611d20565b505f915081908190819081908190819081908190565b6001600160a01b03168015611dea575f5160206121575f395f51905f5280546001600160a01b0319811683179091556001600160a01b03167f8be0079c531659141344cd1fd0a4f28419497f9722a3daafe3b4186f6b6457e05f80a3565b631e4fbdf760e01b5f525f60045260245ffd5b5f5160206121575f395f51905f52546001600160a01b03163303611e1d57565b63118cdaa760e01b5f523360045260245ffd5b60ff5f5160206121975f395f51905f525460401c1615611e4c57565b631afcd79f60e31b5f5260045ffd5b90611e7f5750805115611e7057602081519101fd5b63d6bda27560e01b5f5260045ffd5b81511580611eb0575b611e90575090565b639996b31560e01b5f9081526001600160a01b0391909116600452602490fd5b50803b15611e8856fe608060405261029d8038038061001481610168565b92833981016040828203126101645781516001600160a01b03811692909190838303610164576020810151906001600160401b03821161016457019281601f8501121561016457835161006e610069826101a1565b610168565b9481865260208601936020838301011161016457815f926020809301865e86010152823b15610152577f360894a13ba1a3210667c828492db98dca3e2076cc3735a920a3ca505d382bbc80546001600160a01b031916821790557fbc7cd75a20ee27fd9adebab32041f755214dbc6bffa90cc0225b39da2e5c2d3b5f80a282511561013a575f8091610122945190845af43d15610132573d91610113610069846101a1565b9283523d5f602085013e6101bc565b505b6040516082908161021b8239f35b6060916101bc565b50505034156101245763b398979f60e01b5f5260045ffd5b634c9c8ce360e01b5f5260045260245ffd5b5f80fd5b6040519190601f01601f191682016001600160401b0381118382101761018d57604052565b634e487b7160e01b5f52604160045260245ffd5b6001600160401b03811161018d57601f01601f191660200190565b906101e057508051156101d157602081519101fd5b63d6bda27560e01b5f5260045ffd5b81511580610211575b6101f1575090565b639996b31560e01b5f9081526001600160a01b0391909116600452602490fd5b50803b156101e956fe60806040527f360894a13ba1a3210667c828492db98dca3e2076cc3735a920a3ca505d382bbc545f9081906001600160a01b0316368280378136915af43d5f803e156048573d5ff35b3d5ffdfea264697066735822122029ab628f7de87047b0e2719935f73617760bfde70876a7aab9aa3be8e9b2dde764736f6c634300081e00339016d09d72d40fdae2fd8ceac6b6234c7706214fd39c1cd1e609a0528c199300360894a13ba1a3210667c828492db98dca3e2076cc3735a920a3ca505d382bbcf0c57e16840df040f15088dc2f81fe391c3923bec73e23a9662efc9c229c6a00a2646970667358221220b10be5954640586cb129d0e4995117b178d254f86b5e1c8495f7f00cd0e6587864736f6c634300081e0033f0c57e16840df040f15088dc2f81fe391c3923bec73e23a9662efc9c229c6a00","linkReferences":{}},"methodIdentifiers":{"UPGRADE_INTERFACE_VERSION()":"ad3cb1cc","allVaults(uint256)":"9094a91e","createVault(string,string,address,uint256,address,uint256,uint256,address)":"0dac1143","createVaultBatch(string[],string[],address[],uint256[],address,uint256[],uint256[],address)":"24cff45e","defaultHardCap()":"60bf3eac","getAllVaults()":"97331bf9","getVaultCount()":"74d4e491","getVaultInfo(address)":"90229af7","getVaults(uint256,uint256)":"b98cca37","initialize(address,uint256)":"cd6dc687","isVault(address)":"652b9b41","owner()":"8da5cb5b","pauseVault(address)":"c0bd6f9e","pauseVaultBatch(address[])":"78db5eb6","proxiableUUID()":"52d1902d","renounceOwnership()":"715018a6","setDefaultHardCap(uint256)":"03213e9e","setHardCap(address,uint256)":"ece3221d","setHardCapBatch(address[],uint256[])":"98d59b61","setPriceStalenessThreshold(address,uint256)":"e01b7688","setVaultImplementation(address)":"53e78b6b","setVaultManager(address,address)":"79129225","setVaultNextRedemptionTime(address,uint256)":"b18800ee","setVaultNextRedemptionTimeBatch(address[],uint256)":"83d86059","transferOwnership(address)":"f2fde38b","unpauseVault(address)":"2efbab2c","unpauseVaultBatch(address[])":"c6ee542b","updateVaultPrices(address,uint256)":"9b18ba5f","updateVaultPricesBatch(address[],uint256[])":"051c6b06","upgradeToAndCall(address,bytes)":"4f1ef286","upgradeVault(address,address)":"054bf171","upgradeVaultBatch(address[],address)":"96403a52","vaultImplementation()":"bba48a90"},"id":22}