{"abi":[{"type":"constructor","inputs":[],"stateMutability":"nonpayable"},{"type":"function","name":"BASIS_POINTS_DIVISOR","inputs":[],"outputs":[{"name":"","type":"uint256","internalType":"uint256"}],"stateMutability":"view"},{"type":"function","name":"PRICE_PRECISION","inputs":[],"outputs":[{"name":"","type":"uint256","internalType":"uint256"}],"stateMutability":"view"},{"type":"function","name":"UPGRADE_INTERFACE_VERSION","inputs":[],"outputs":[{"name":"","type":"string","internalType":"string"}],"stateMutability":"view"},{"type":"function","name":"USDY_DECIMALS","inputs":[],"outputs":[{"name":"","type":"uint256","internalType":"uint256"}],"stateMutability":"view"},{"type":"function","name":"allWhitelistedTokens","inputs":[{"name":"","type":"uint256","internalType":"uint256"}],"outputs":[{"name":"","type":"address","internalType":"address"}],"stateMutability":"view"},{"type":"function","name":"buyUSDY","inputs":[{"name":"_token","type":"address","internalType":"address"},{"name":"_receiver","type":"address","internalType":"address"}],"outputs":[{"name":"","type":"uint256","internalType":"uint256"}],"stateMutability":"nonpayable"},{"type":"function","name":"clearWhitelistedToken","inputs":[{"name":"_token","type":"address","internalType":"address"}],"outputs":[],"stateMutability":"nonpayable"},{"type":"function","name":"emergencyMode","inputs":[],"outputs":[{"name":"","type":"bool","internalType":"bool"}],"stateMutability":"view"},{"type":"function","name":"getAllPoolTokens","inputs":[],"outputs":[{"name":"","type":"address[]","internalType":"address[]"}],"stateMutability":"view"},{"type":"function","name":"getFeeBasisPoints","inputs":[{"name":"_token","type":"address","internalType":"address"},{"name":"_usdyDelta","type":"uint256","internalType":"uint256"},{"name":"_feeBasisPoints","type":"uint256","internalType":"uint256"},{"name":"_taxBasisPoints","type":"uint256","internalType":"uint256"},{"name":"_increment","type":"bool","internalType":"bool"}],"outputs":[{"name":"","type":"uint256","internalType":"uint256"}],"stateMutability":"view"},{"type":"function","name":"getMaxPrice","inputs":[{"name":"_token","type":"address","internalType":"address"}],"outputs":[{"name":"","type":"uint256","internalType":"uint256"}],"stateMutability":"view"},{"type":"function","name":"getMinPrice","inputs":[{"name":"_token","type":"address","internalType":"address"}],"outputs":[{"name":"","type":"uint256","internalType":"uint256"}],"stateMutability":"view"},{"type":"function","name":"getPoolValue","inputs":[{"name":"_maximise","type":"bool","internalType":"bool"}],"outputs":[{"name":"","type":"uint256","internalType":"uint256"}],"stateMutability":"view"},{"type":"function","name":"getPrice","inputs":[{"name":"_token","type":"address","internalType":"address"},{"name":"_maximise","type":"bool","internalType":"bool"}],"outputs":[{"name":"","type":"uint256","internalType":"uint256"}],"stateMutability":"view"},{"type":"function","name":"getRedemptionFeeBasisPoints","inputs":[{"name":"_token","type":"address","internalType":"address"},{"name":"_usdyAmount","type":"uint256","internalType":"uint256"}],"outputs":[{"name":"","type":"uint256","internalType":"uint256"}],"stateMutability":"view"},{"type":"function","name":"getSwapAmountOut","inputs":[{"name":"_tokenIn","type":"address","internalType":"address"},{"name":"_tokenOut","type":"address","internalType":"address"},{"name":"_amountIn","type":"uint256","internalType":"uint256"}],"outputs":[{"name":"amountOut","type":"uint256","internalType":"uint256"},{"name":"amountOutAfterFees","type":"uint256","internalType":"uint256"},{"name":"feeBasisPoints","type":"uint256","internalType":"uint256"}],"stateMutability":"view"},{"type":"function","name":"getSwapFeeBasisPoints","inputs":[{"name":"_tokenIn","type":"address","internalType":"address"},{"name":"_tokenOut","type":"address","internalType":"address"},{"name":"_usdyAmount","type":"uint256","internalType":"uint256"}],"outputs":[{"name":"","type":"uint256","internalType":"uint256"}],"stateMutability":"view"},{"type":"function","name":"getTargetUsdyAmount","inputs":[{"name":"_token","type":"address","internalType":"address"}],"outputs":[{"name":"","type":"uint256","internalType":"uint256"}],"stateMutability":"view"},{"type":"function","name":"gov","inputs":[],"outputs":[{"name":"","type":"address","internalType":"address"}],"stateMutability":"view"},{"type":"function","name":"hasDynamicFees","inputs":[],"outputs":[{"name":"","type":"bool","internalType":"bool"}],"stateMutability":"view"},{"type":"function","name":"initialize","inputs":[{"name":"_usdy","type":"address","internalType":"address"},{"name":"_priceFeed","type":"address","internalType":"address"}],"outputs":[],"stateMutability":"nonpayable"},{"type":"function","name":"isSwapEnabled","inputs":[],"outputs":[{"name":"","type":"bool","internalType":"bool"}],"stateMutability":"view"},{"type":"function","name":"isSwapper","inputs":[{"name":"","type":"address","internalType":"address"}],"outputs":[{"name":"","type":"bool","internalType":"bool"}],"stateMutability":"view"},{"type":"function","name":"maxSwapAmount","inputs":[{"name":"","type":"address","internalType":"address"}],"outputs":[{"name":"","type":"uint256","internalType":"uint256"}],"stateMutability":"view"},{"type":"function","name":"maxSwapSlippageBps","inputs":[],"outputs":[{"name":"","type":"uint256","internalType":"uint256"}],"stateMutability":"view"},{"type":"function","name":"maxUsdyAmounts","inputs":[{"name":"","type":"address","internalType":"address"}],"outputs":[{"name":"","type":"uint256","internalType":"uint256"}],"stateMutability":"view"},{"type":"function","name":"poolAmounts","inputs":[{"name":"","type":"address","internalType":"address"}],"outputs":[{"name":"","type":"uint256","internalType":"uint256"}],"stateMutability":"view"},{"type":"function","name":"priceFeed","inputs":[],"outputs":[{"name":"","type":"address","internalType":"address"}],"stateMutability":"view"},{"type":"function","name":"proxiableUUID","inputs":[],"outputs":[{"name":"","type":"bytes32","internalType":"bytes32"}],"stateMutability":"view"},{"type":"function","name":"sellUSDY","inputs":[{"name":"_token","type":"address","internalType":"address"},{"name":"_receiver","type":"address","internalType":"address"}],"outputs":[{"name":"","type":"uint256","internalType":"uint256"}],"stateMutability":"nonpayable"},{"type":"function","name":"setDynamicFees","inputs":[{"name":"_hasDynamicFees","type":"bool","internalType":"bool"}],"outputs":[],"stateMutability":"nonpayable"},{"type":"function","name":"setEmergencyMode","inputs":[{"name":"_emergencyMode","type":"bool","internalType":"bool"}],"outputs":[],"stateMutability":"nonpayable"},{"type":"function","name":"setGov","inputs":[{"name":"_gov","type":"address","internalType":"address"}],"outputs":[],"stateMutability":"nonpayable"},{"type":"function","name":"setMaxSwapAmount","inputs":[{"name":"_token","type":"address","internalType":"address"},{"name":"_amount","type":"uint256","internalType":"uint256"}],"outputs":[],"stateMutability":"nonpayable"},{"type":"function","name":"setMaxSwapSlippageBps","inputs":[{"name":"_slippageBps","type":"uint256","internalType":"uint256"}],"outputs":[],"stateMutability":"nonpayable"},{"type":"function","name":"setPoolManager","inputs":[{"name":"_manager","type":"address","internalType":"address"}],"outputs":[],"stateMutability":"nonpayable"},{"type":"function","name":"setSwapEnabled","inputs":[{"name":"_isSwapEnabled","type":"bool","internalType":"bool"}],"outputs":[],"stateMutability":"nonpayable"},{"type":"function","name":"setSwapFees","inputs":[{"name":"_swapFee","type":"uint256","internalType":"uint256"},{"name":"_stableSwapFee","type":"uint256","internalType":"uint256"},{"name":"_taxBasisPoints","type":"uint256","internalType":"uint256"},{"name":"_stableTaxBasisPoints","type":"uint256","internalType":"uint256"}],"outputs":[],"stateMutability":"nonpayable"},{"type":"function","name":"setSwapper","inputs":[{"name":"_swapper","type":"address","internalType":"address"},{"name":"_isActive","type":"bool","internalType":"bool"}],"outputs":[],"stateMutability":"nonpayable"},{"type":"function","name":"setWhitelistedToken","inputs":[{"name":"_token","type":"address","internalType":"address"},{"name":"_decimals","type":"uint256","internalType":"uint256"},{"name":"_weight","type":"uint256","internalType":"uint256"},{"name":"_maxUsdyAmount","type":"uint256","internalType":"uint256"},{"name":"_isStable","type":"bool","internalType":"bool"}],"outputs":[],"stateMutability":"nonpayable"},{"type":"function","name":"stableSwapFeeBasisPoints","inputs":[],"outputs":[{"name":"","type":"uint256","internalType":"uint256"}],"stateMutability":"view"},{"type":"function","name":"stableTaxBasisPoints","inputs":[],"outputs":[{"name":"","type":"uint256","internalType":"uint256"}],"stateMutability":"view"},{"type":"function","name":"stableTokens","inputs":[{"name":"","type":"address","internalType":"address"}],"outputs":[{"name":"","type":"bool","internalType":"bool"}],"stateMutability":"view"},{"type":"function","name":"swap","inputs":[{"name":"_tokenIn","type":"address","internalType":"address"},{"name":"_tokenOut","type":"address","internalType":"address"},{"name":"_receiver","type":"address","internalType":"address"}],"outputs":[{"name":"","type":"uint256","internalType":"uint256"}],"stateMutability":"nonpayable"},{"type":"function","name":"swapFeeBasisPoints","inputs":[],"outputs":[{"name":"","type":"uint256","internalType":"uint256"}],"stateMutability":"view"},{"type":"function","name":"taxBasisPoints","inputs":[],"outputs":[{"name":"","type":"uint256","internalType":"uint256"}],"stateMutability":"view"},{"type":"function","name":"tokenBalances","inputs":[{"name":"","type":"address","internalType":"address"}],"outputs":[{"name":"","type":"uint256","internalType":"uint256"}],"stateMutability":"view"},{"type":"function","name":"tokenDecimals","inputs":[{"name":"","type":"address","internalType":"address"}],"outputs":[{"name":"","type":"uint256","internalType":"uint256"}],"stateMutability":"view"},{"type":"function","name":"tokenWeights","inputs":[{"name":"","type":"address","internalType":"address"}],"outputs":[{"name":"","type":"uint256","internalType":"uint256"}],"stateMutability":"view"},{"type":"function","name":"totalTokenWeights","inputs":[],"outputs":[{"name":"","type":"uint256","internalType":"uint256"}],"stateMutability":"view"},{"type":"function","name":"upgradeToAndCall","inputs":[{"name":"newImplementation","type":"address","internalType":"address"},{"name":"data","type":"bytes","internalType":"bytes"}],"outputs":[],"stateMutability":"payable"},{"type":"function","name":"usdy","inputs":[],"outputs":[{"name":"","type":"address","internalType":"address"}],"stateMutability":"view"},{"type":"function","name":"usdyAmounts","inputs":[{"name":"","type":"address","internalType":"address"}],"outputs":[{"name":"","type":"uint256","internalType":"uint256"}],"stateMutability":"view"},{"type":"function","name":"whitelistedTokens","inputs":[{"name":"","type":"address","internalType":"address"}],"outputs":[{"name":"","type":"bool","internalType":"bool"}],"stateMutability":"view"},{"type":"function","name":"withdrawToken","inputs":[{"name":"_token","type":"address","internalType":"address"},{"name":"_receiver","type":"address","internalType":"address"},{"name":"_amount","type":"uint256","internalType":"uint256"}],"outputs":[],"stateMutability":"nonpayable"},{"type":"function","name":"ytPoolManager","inputs":[],"outputs":[{"name":"","type":"address","internalType":"address"}],"stateMutability":"view"},{"type":"event","name":"AddLiquidity","inputs":[{"name":"account","type":"address","indexed":true,"internalType":"address"},{"name":"token","type":"address","indexed":true,"internalType":"address"},{"name":"amount","type":"uint256","indexed":false,"internalType":"uint256"},{"name":"usdyAmount","type":"uint256","indexed":false,"internalType":"uint256"}],"anonymous":false},{"type":"event","name":"EmergencyModeSet","inputs":[{"name":"enabled","type":"bool","indexed":false,"internalType":"bool"}],"anonymous":false},{"type":"event","name":"GovChanged","inputs":[{"name":"oldGov","type":"address","indexed":true,"internalType":"address"},{"name":"newGov","type":"address","indexed":true,"internalType":"address"}],"anonymous":false},{"type":"event","name":"Initialized","inputs":[{"name":"version","type":"uint64","indexed":false,"internalType":"uint64"}],"anonymous":false},{"type":"event","name":"PoolManagerChanged","inputs":[{"name":"oldManager","type":"address","indexed":true,"internalType":"address"},{"name":"newManager","type":"address","indexed":true,"internalType":"address"}],"anonymous":false},{"type":"event","name":"RemoveLiquidity","inputs":[{"name":"account","type":"address","indexed":true,"internalType":"address"},{"name":"token","type":"address","indexed":true,"internalType":"address"},{"name":"usdyAmount","type":"uint256","indexed":false,"internalType":"uint256"},{"name":"amountOut","type":"uint256","indexed":false,"internalType":"uint256"}],"anonymous":false},{"type":"event","name":"Swap","inputs":[{"name":"account","type":"address","indexed":true,"internalType":"address"},{"name":"tokenIn","type":"address","indexed":true,"internalType":"address"},{"name":"tokenOut","type":"address","indexed":true,"internalType":"address"},{"name":"amountIn","type":"uint256","indexed":false,"internalType":"uint256"},{"name":"amountOut","type":"uint256","indexed":false,"internalType":"uint256"},{"name":"feeBasisPoints","type":"uint256","indexed":false,"internalType":"uint256"}],"anonymous":false},{"type":"event","name":"SwapEnabledSet","inputs":[{"name":"enabled","type":"bool","indexed":false,"internalType":"bool"}],"anonymous":false},{"type":"event","name":"Upgraded","inputs":[{"name":"implementation","type":"address","indexed":true,"internalType":"address"}],"anonymous":false},{"type":"error","name":"AddressEmptyCode","inputs":[{"name":"target","type":"address","internalType":"address"}]},{"type":"error","name":"AmountExceedsLimit","inputs":[]},{"type":"error","name":"DailyLimitExceeded","inputs":[]},{"type":"error","name":"ERC1967InvalidImplementation","inputs":[{"name":"implementation","type":"address","internalType":"address"}]},{"type":"error","name":"ERC1967NonPayable","inputs":[]},{"type":"error","name":"EmergencyMode","inputs":[]},{"type":"error","name":"FailedCall","inputs":[]},{"type":"error","name":"Forbidden","inputs":[]},{"type":"error","name":"InsufficientPool","inputs":[]},{"type":"error","name":"InsufficientUSDYAmount","inputs":[]},{"type":"error","name":"InvalidAddress","inputs":[]},{"type":"error","name":"InvalidAmount","inputs":[]},{"type":"error","name":"InvalidFee","inputs":[]},{"type":"error","name":"InvalidInitialization","inputs":[]},{"type":"error","name":"InvalidPoolAmount","inputs":[]},{"type":"error","name":"MaxUSDYExceeded","inputs":[]},{"type":"error","name":"NotInEmergency","inputs":[]},{"type":"error","name":"NotInitializing","inputs":[]},{"type":"error","name":"NotSwapper","inputs":[]},{"type":"error","name":"OnlyPoolManager","inputs":[]},{"type":"error","name":"ReentrancyGuardReentrantCall","inputs":[]},{"type":"error","name":"SafeERC20FailedOperation","inputs":[{"name":"token","type":"address","internalType":"address"}]},{"type":"error","name":"SameToken","inputs":[]},{"type":"error","name":"SlippageTooHigh","inputs":[]},{"type":"error","name":"SwapDisabled","inputs":[]},{"type":"error","name":"TokenNotWhitelisted","inputs":[]},{"type":"error","name":"UUPSUnauthorizedCallContext","inputs":[]},{"type":"error","name":"UUPSUnsupportedProxiableUUID","inputs":[{"name":"slot","type":"bytes32","internalType":"bytes32"}]}],"bytecode":{"object":"0x60a080604052346100c257306080525f516020612a215f395f51905f525460ff8160401c166100b3576002600160401b03196001600160401b03821601610060575b60405161295a90816100c78239608051818181611106015261120f0152f35b6001600160401b0319166001600160401b039081175f516020612a215f395f51905f525581527fc7f505b2f371ae2175ee4913f4499e1f2633a7b5936321eed1cdaeb6115181d290602090a15f80610041565b63f92ee8a960e01b5f5260045ffd5b5f80fdfe60806040526004361015610011575f80fd5b5f5f3560e01c806301e3366714611e755780630905f56014611e5057806310eb56c214611e33578063126082cf14611e1757806312d43a5114611df05780631d517d6514611d355780632efc766014611b125780632f1983d414611ad4578063351a964d14611ab15780633a0ede36146119635780633d332583146116e65780633dd9bd82146116c25780633f2617cb1461164a57806342b60b031461160b578063485cc955146113ee5780634f1ef28614611193578063523fba7f1461115a57806352d1902d146110f357806352f55eed146110ba578063741bef1a1461109157806376cd370e14610fc957806376d6976014610f9c578063778d733d14610f735780637a210a2b14610f555780637aef671514610ec9578063802f927014610e945780638038cbd314610e1d57806381a612d614610df95780638b8e42ec14610c8d5780638ee573ac14610c5457806393316212146108c857806395082d25146108a157806398d506e9146108785780639f392eb314610855578063a22f239214610837578063a589d319146107f0578063ab2f3ad4146107b7578063ad3cb1cc1461075b578063b64230ba1461071c578063b7c3565d146106fe578063bab3e9e61461062e578063be32b3f8146105be578063c7e074c3146105a1578063cfad57a21461050e578063cffc734c146104f2578063d3af922d146104b9578063da1338161461049f578063daf9c21014610460578063dc8f5fac14610442578063df73a26714610424578063e01af92c146103ba578063e124e6d21461038e578063e17d430814610355578063e468baf014610311578063e7881011146102d85763e89d59de14610282575f80fd5b346102d55760203660031901126102d5578054600435906001600160a01b031633036102c6576107d081116102b75760155580f35b63428637bb60e11b8252600482fd5b631dd2188d60e31b8252600482fd5b80fd5b50346102d55760203660031901126102d5576020906040906001600160a01b03610300611ece565b168152601683522054604051908152f35b50346102d55760203660031901126102d557600435906006548210156102d557602061033c83611fdf565b905460405160039290921b1c6001600160a01b03168152f35b50346102d55760203660031901126102d5576020906040906001600160a01b0361037d611ece565b168152600f83522054604051908152f35b50346102d55760203660031901126102d55760206103b26103ad611ece565b612525565b604051908152f35b50346102d55760203660031901126102d5576103d4611f34565b81546001600160a01b031633036102c65760207f5a9e84f78f7957cb4ed7478eb0fcad35ee4ecbe2e0f298420b28a3955392573f91151560ff196005541660ff821617600555604051908152a180f35b50346102d557806003193601126102d5576020601154604051908152f35b50346102d557806003193601126102d5576020600b54604051908152f35b50346102d55760203660031901126102d55760209060ff906040906001600160a01b0361048b611ece565b168152600784522054166040519015158152f35b50346102d55760206103b26104b336611efa565b91612653565b50346102d55760203660031901126102d5576020906040906001600160a01b036104e1611ece565b168152600e83522054604051908152f35b50346102d557806003193601126102d557602060405160128152f35b50346102d55760203660031901126102d557610528611ece565b8154906001600160a01b0382169033829003610592576001600160a01b0316918215610583576001600160a01b031916821783557f3d1e4c3a68fed9f4f8315582b7297cf8fa264bc8e6704287603ba8c72bf05ac28380a380f35b63e6c4247b60e01b8452600484fd5b631dd2188d60e31b8452600484fd5b50346102d55760206103b26105b536611f52565b93929092612273565b50346102d55760203660031901126102d5576105d8611f34565b81546001600160a01b031633036102c65760207f63382423ad002e5a7fcc41286858cb0a9ac9251517adf5d154e219544c40f44591151560055461ff008260081b169061ff00191617600555604051908152a180f35b50346102d55760203660031901126102d557610648611f34565b60065460035483929083906001600160a01b03165b83861061066f57602085604051908152f35b9091929361067c86611fdf565b905460039190911b1c6001600160a01b03168084526007602052604084205460ff16156106f4576001916106e184836106e7948852600c60205268327cb2734119d3b7a9601e1b6106db60408a20546106d58c8561256b565b9061202c565b046125bf565b9061205d565b955b01949392919061065d565b50946001906106e9565b50346102d557806003193601126102d5576020601554604051908152f35b50346102d55760203660031901126102d55760209060ff906040906001600160a01b03610747611ece565b168152600484522054166040519015158152f35b50346102d557806003193601126102d5576040805161077a8282611f8d565b6005815260208101640352e302e360dc1b81528251938492602084525180928160208601528585015e828201840152601f01601f19168101030190f35b50346102d55760203660031901126102d5576020906040906001600160a01b036107df611ece565b168152600a83522054604051908152f35b50346102d55760403660031901126102d55761080a611ece565b81546001600160a01b031633036102c6576001600160a01b03168152601660205260408120602435905580f35b50346102d557806003193601126102d5576020601054604051908152f35b50346102d557806003193601126102d557602060ff601454166040519015158152f35b50346102d557806003193601126102d5576003546040516001600160a01b039091168152602090f35b50346102d557806003193601126102d557602060405168327cb2734119d3b7a9601e1b8152f35b50346102d55760603660031901126102d5576108e2611ece565b6108ea611ee4565b6044356001600160a01b0381168103610c5057338452600460205260ff6040852054161580610c3b575b610c2c576109206123e8565b60055460ff8160081c16610c1d5760ff1615610c0e576001600160a01b0383168085526007602052604085205490919060ff1615610bff576001600160a01b0383168086526007602052604086205490939060ff1615610bf057838314610be15761098a85612420565b918215610bd25783875260166020526040872054610baf575b6109ac866124b1565b95806109b784612525565b986109e968327cb2734119d3b7a9601e1b6109d28b8961202c565b6003546001600160a01b03169586929091046125bf565b9268327cb2734119d3b7a9601e1b840284810468327cb2734119d3b7a9601e1b1485151715610b6957610a2691610a218d899361203f565b6125bf565b99610a32848785612653565b9a8b61271003906127108211610b9b5761271091610a4f9161202c565b04998a15610b8c57898352600c6020528a604084205410610b7d5790610a78610a7d928961202c565b61203f565b898111610b23575b50507fd6d34547c69c5ee3d2667625c188acf1006abb93e0ee7cf03925c67cf776041393610ae589610b0795610adf86610ad960209f9888610aca8e610aea9b6126f4565b610ad4878a6127ae565b612746565b856127f4565b8a6122e2565b612371565b604080519485526020850188905284015233929081906060820190565b0390a460015f5160206128e55f395f51905f5255604051908152f35b610b2d8a8261200b565b6127108102908082046127101490151715610b695790610b4c9161203f565b60155410610b5a5780610a85565b63428637bb60e11b8152600490fd5b634e487b7160e01b83526011600452602483fd5b63785eab3760e01b8352600483fd5b63162908e360e11b8352600483fd5b634e487b7160e01b84526011600452602484fd5b838752601660205260408720548311156109a35763172bd6a160e31b8752600487fd5b63162908e360e11b8752600487fd5b63100dac0560e11b8652600486fd5b6307c241ad60e51b8652600486fd5b6307c241ad60e51b8552600485fd5b630527cf7960e11b8452600484fd5b63185079b960e01b8552600485fd5b630f1442d560e11b8452600484fd5b506001546001600160a01b0316331415610914565b8380fd5b50346102d55760203660031901126102d5576020906040906001600160a01b03610c7c611ece565b168152600983522054604051908152f35b50346102d557610c9c36611efa565b908115610dea576001600160a01b0383168085526007602052604085205460ff1615610bff576001600160a01b0382168086526007602052604086205490919060ff1615610bf05714610ddb5782610d2c68327cb2734119d3b7a9601e1b610d15610d06846124b1565b610d0f86612525565b9661202c565b6003546001600160a01b03169384929091046125bf565b9268327cb2734119d3b7a9601e1b840284810468327cb2734119d3b7a9601e1b1485151715610dc757928092610a21610d6993610d6f979661203f565b93612653565b918261271003906127108211610db35750612710610d90610daf928461202c565b0492604051938493846040919493926060820195825260208201520152565b0390f35b634e487b7160e01b81526011600452602490fd5b634e487b7160e01b87526011600452602487fd5b63100dac0560e11b8452600484fd5b63162908e360e11b8452600484fd5b50346102d55760203660031901126102d55760206103b2610e18611ece565b6124b1565b50346102d55760803660031901126102d557805460243590600435906001600160a01b03163303610e8557606481118015610e7b575b610e6c5760105560115560443560125560643560135580f35b6358d620b360e01b8352600483fd5b5060328211610e53565b631dd2188d60e31b8352600483fd5b50346102d55760403660031901126102d55760206103b2610eb3611ece565b60035460243591906001600160a01b0316612653565b50346102d55760203660031901126102d557610ee3611ece565b81546001600160a01b031633036102c6576001600160a01b03168015610f4657600180546001600160a01b0319811683179091556001600160a01b03167edeff9fe78b1f38e51f917f8ea2a7e4028c825ff9aa26757f819a9f203628498380a380f35b63e6c4247b60e01b8252600482fd5b50346102d557806003193601126102d5576020601254604051908152f35b50346102d557806003193601126102d5576001546040516001600160a01b039091168152602090f35b50346102d55760403660031901126102d55760206103b2610fbb611ece565b610fc3611f43565b9061256b565b50346102d557806003193601126102d55760405180602060065491828152018091600685527ff652222313e28459528d920b65115c16c04f3efc82aaedc97be59f3f377c0d3f90855b8181106110725750505082611028910383611f8d565b604051928392602084019060208552518091526040840192915b818110611050575050500390f35b82516001600160a01b0316845285945060209384019390920191600101611042565b82546001600160a01b0316845260209093019260019283019201611012565b50346102d557806003193601126102d5576002546040516001600160a01b039091168152602090f35b50346102d55760203660031901126102d5576020906040906001600160a01b036110e2611ece565b168152600c83522054604051908152f35b50346102d557806003193601126102d5577f00000000000000000000000000000000000000000000000000000000000000006001600160a01b0316300361114b5760206040515f5160206128c55f395f51905f528152f35b63703e46dd60e11b8152600490fd5b50346102d55760203660031901126102d5576020906040906001600160a01b03611182611ece565b168152600d83522054604051908152f35b5060403660031901126102d5576111a8611ece565b6024359067ffffffffffffffff82116113ea57366023830112156113ea57816004013590836111d683611fc3565b936111e46040519586611f8d565b838552602085019336602482840101116113ea57806024602093018637850101526001600160a01b037f0000000000000000000000000000000000000000000000000000000000000000163081149081156113c8575b506113b95783546001600160a01b03163303610592576040516352d1902d60e01b81526001600160a01b0382169390602081600481885afa869181611381575b5061129357634c9c8ce360e01b86526004859052602486fd5b93845f5160206128c55f395f51905f5287960361136f5750823b1561135d575f5160206128c55f395f51905f5280546001600160a01b031916821790558491907fbc7cd75a20ee27fd9adebab32041f755214dbc6bffa90cc0225b39da2e5c2d3b8380a2805115611342576113369382915190845af43d1561133a573d9161131a83611fc3565b926113286040519485611f8d565b83523d85602085013e612866565b5080f35b606091612866565b505050503461134e5780f35b63b398979f60e01b8152600490fd5b634c9c8ce360e01b8552600452602484fd5b632a87526960e21b8652600452602485fd5b9091506020813d6020116113b1575b8161139d60209383611f8d565b810103126113ad5751905f61127a565b8680fd5b3d9150611390565b63703e46dd60e11b8452600484fd5b5f5160206128c55f395f51905f52546001600160a01b0316141590505f61123a565b8280fd5b50346102d55760403660031901126102d557611408611ece565b611410611ee4565b5f5160206129055f395f51905f52549160ff8360401c16159267ffffffffffffffff811680159081611603575b60011490816115f9575b1590816115f0575b506115e15767ffffffffffffffff1981166001175f5160206129055f395f51905f5255836115b5575b506001600160a01b031690811580156115a4575b6105835761149861283b565b6114a061283b565b60015f5160206128e55f395f51905f52556114b961283b565b336001600160601b0360a01b855416178455816001600160601b0360a01b600354161760035560018060a01b03166001600160601b0360a01b6002541617600255600161ffff196005541617600555601e601055600460115560326012556014601355600160ff1960145416176014556103e86015558252600860205260408220600160ff1982541617905561154c5780f35b68ff0000000000000000195f5160206129055f395f51905f5254165f5160206129055f395f51905f52557fc7f505b2f371ae2175ee4913f4499e1f2633a7b5936321eed1cdaeb6115181d2602060405160018152a180f35b506001600160a01b0381161561148c565b68ffffffffffffffffff191668010000000000000001175f5160206129055f395f51905f52555f611478565b63f92ee8a960e01b8552600485fd5b9050155f61144f565b303b159150611447565b85915061143d565b50346102d55760203660031901126102d55760209060ff906040906001600160a01b03611636611ece565b168152600884522054166040519015158152f35b50346102d55760403660031901126102d557611664611ece565b61166c611f43565b82549091906001600160a01b03163303610e85576001600160a01b031680156116b357906116b09183526004602052604083209060ff801983541691151516179055565b80f35b63e6c4247b60e01b8352600483fd5b50346102d55760203660031901126102d55760206103b26116e1611ece565b61206a565b50346102d55760403660031901126102d557611700611ece565b90611709611ee4565b6001549092906001600160a01b03163303611954576117266123e8565b6005549060ff8260081c16611945576001600160a01b0381168084526007602052604084205490929060ff16156119365760ff161561192757600354611774906001600160a01b0316612420565b908115610dea5761178481612525565b9368327cb2734119d3b7a9601e1b830283810468327cb2734119d3b7a9601e1b0361191357856117b39161203f565b6003546001600160a01b0316906117cd90849083906125bf565b8015610b8c576117de818584612653565b61271003906127108211610b9b57612710916117f99161202c565b04958615610b8c57858352600c60205286604084205410610b7d57611843918468327cb2734119d3b7a9601e1b6106db611833948b61202c565b61183d87856127ae565b836127f4565b6003546001600160a01b0316803b1561190f57604051632770a7eb60e21b8152306004820152602481018590529082908290604490829084905af18015611904576118ef575b50506040856118c07f34ef8e86237e7385b43618862e895c6ce827b2b7d6107ad415d54336c1dd2dd693610ae58860209a896122e2565b81519384528684018690526001600160a01b031692a360015f5160206128e55f395f51905f5255604051908152f35b6118fa828092611f8d565b6102d55780611889565b6040513d84823e3d90fd5b5080fd5b634e487b7160e01b82526011600452602482fd5b630527cf7960e11b8352600483fd5b6307c241ad60e51b8452600484fd5b63185079b960e01b8352600483fd5b63f655705d60e01b8252600482fd5b50346102d55761197236611f52565b855493959490936001600160a01b03163303611aa2576001600160a01b0316918215611a9357828552600760205260ff60408620541615611a1b575b6116b094956119d5826119d0600b54878b52600a60205260408b20549061200b565b61205d565b600b5583875260096020526040872055828652600a6020526040862055818552600f602052604085205583526008602052604083209060ff801983541691151516179055565b6006549568010000000000000000871015611a7f57611a448760016116b0989901600655611fdf565b81546001600160a01b0360039290921b91821b19169086901b179055838752600760205260408720805460ff191660011790559594506119ae565b634e487b7160e01b86526041600452602486fd5b63e6c4247b60e01b8552600485fd5b631dd2188d60e31b8552600485fd5b50346102d557806003193601126102d557602060ff600554166040519015158152f35b50346102d55760203660031901126102d557611aee611f34565b81546001600160a01b031633036102c65760ff801960145416911515161760145580f35b34611ce6576040366003190112611ce657611b2b611ece565b611b33611ee4565b6001549091906001600160a01b03163303611d2657611b506123e8565b60055460ff8160081c16611d17576001600160a01b0382165f8181526007602052604090205490919060ff1615611d085760ff1615611cf957611b9282612420565b8015611cea5782611ba2816124b1565b611bd368327cb2734119d3b7a9601e1b611bbc838661202c565b6003546001600160a01b03169485929091046125bf565b918215611cea578568327cb2734119d3b7a9601e1b6106db611c1894611c13612710611c0c611c06611c249a8989612653565b8b61202c565b048961200b565b61202c565b84610ad48483976126f4565b6003546001600160a01b0316803b15611ce6576040516340c10f1960e01b81526001600160a01b038616600482015260248101859052905f908290604490829084905af18015611cdb576020957fd2491a9b4fe81a7cd4511e8b7b7743951b061dad5bed7da8a7795b080ee08c7e92604092611ccb575b5081519384528684018690526001600160a01b031692a360015f5160206128e55f395f51905f5255604051908152f35b5f611cd591611f8d565b5f611c9b565b6040513d5f823e3d90fd5b5f80fd5b63162908e360e11b5f5260045ffd5b630527cf7960e11b5f5260045ffd5b6307c241ad60e51b5f5260045ffd5b63185079b960e01b5f5260045ffd5b63f655705d60e01b5f5260045ffd5b34611ce6576020366003190112611ce657611d4e611ece565b5f546001600160a01b03163303611de1576001600160a01b03165f8181526007602052604090205460ff1615611d0857611d97600b54825f52600a60205260405f20549061200b565b600b555f908152600760209081526040808320805460ff19908116909155600883528184208054909116905560098252808320839055600a8252808320839055600f909152812055005b631dd2188d60e31b5f5260045ffd5b34611ce6575f366003190112611ce6575f546040516001600160a01b039091168152602090f35b34611ce6575f366003190112611ce65760206040516127108152f35b34611ce6575f366003190112611ce6576020601354604051908152f35b34611ce6575f366003190112611ce657602060ff60055460081c166040519015158152f35b34611ce657611e8336611efa565b5f54909291906001600160a01b03163303611de15760ff60055460081c1615611ebf57611ebd92610ae5916001600160a01b0384166122e2565b005b633b1cf39760e21b5f5260045ffd5b600435906001600160a01b0382168203611ce657565b602435906001600160a01b0382168203611ce657565b6060906003190112611ce6576004356001600160a01b0381168103611ce657906024356001600160a01b0381168103611ce6579060443590565b600435908115158203611ce657565b602435908115158203611ce657565b60a0906003190112611ce6576004356001600160a01b0381168103611ce657906024359060443590606435906084358015158103611ce65790565b90601f8019910116810190811067ffffffffffffffff821117611faf57604052565b634e487b7160e01b5f52604160045260245ffd5b67ffffffffffffffff8111611faf57601f01601f191660200190565b600654811015611ff75760065f5260205f2001905f90565b634e487b7160e01b5f52603260045260245ffd5b9190820391821161201857565b634e487b7160e01b5f52601160045260245ffd5b8181029291811591840414171561201857565b8115612049570490565b634e487b7160e01b5f52601260045260245ffd5b9190820180921161201857565b6003546040516318160ddd60e01b81529190602090839060049082906001600160a01b03165afa918215611cdb575f926120dc575b5081156120d6576001600160a01b03165f908152600a60205260409020546120d3916120ca9161202c565b600b549061203f565b90565b50505f90565b9091506020813d602011612108575b816120f860209383611f8d565b81010312611ce65751905f61209f565b3d91506120eb565b92909260ff601454161561221a5760018060a01b0381165f52600e60205261214661214060405f2054958661205d565b9161206a565b9384156122125784808211156122025761215f9161200b565b905b84808211156121f2576121739161200b565b905b8082106121cb57906121869161205d565b838160011c116121b5575b61219a9161202c565b8260011b928304600203612018576120d3926106e19161203f565b508260011b908382046002036120185790612191565b610a7891506121db93949261202c565b818111156121e95750505f90565b6120d39161200b565b906121fc9161200b565b90612175565b9061220c9161200b565b90612161565b505050905090565b5050905090565b92909260ff601454161561221a576001600160a01b0381165f908152600e602052604090205493612252818661205d565b508481111561226657506121465f9161206a565b612140612146918661200b565b93909392919260ff6014541615612212576001600160a01b0381165f908152600e6020526040902054946122a7818761205d565b92156122b8575b506121469061206a565b909150848111156122d057506121465f5b91906122ae565b6122dd612146918661200b565b6122c9565b60405163a9059cbb60e01b60208083019182526001600160a01b0394909416602483015260448083019590955293815290925f91612321606482611f8d565b519082855af115611cdb575f513d61236857506001600160a01b0381163b155b6123485750565b635274afe760e01b5f9081526001600160a01b0391909116600452602490fd5b60011415612341565b6040516370a0823160e01b8152306004820152906001600160a01b0316602082602481845afa918215611cdb575f926123b4575b505f52600d60205260405f2055565b9091506020813d6020116123e0575b816123d060209383611f8d565b81010312611ce65751905f6123a5565b3d91506123c3565b60025f5160206128e55f395f51905f5254146124115760025f5160206128e55f395f51905f5255565b633ee5aeb560e01b5f5260045ffd5b6001600160a01b03165f818152600d60209081526040918290205491516370a0823160e01b8152306004820152929083602481845afa908115611cdb575f9161247b575b6120d393505f52600d6020528060405f205561200b565b90506020833d6020116124a9575b8161249660209383611f8d565b81010312611ce6576120d3925190612464565b3d9150612489565b6002546040516303b6b4bb60e51b81526001600160a01b0392831660048201525f60248201529160209183916044918391165afa908115611cdb575f916124f6575090565b90506020813d60201161251d575b8161251160209383611f8d565b81010312611ce6575190565b3d9150612504565b6002546040516303b6b4bb60e51b81526001600160a01b039283166004820152600160248201529160209183916044918391165afa908115611cdb575f916124f6575090565b6002546040516303b6b4bb60e51b81526001600160a01b039283166004820152921515602484015260209183916044918391165afa908115611cdb575f916124f6575090565b604d811161201857600a0a90565b60035490916001600160a01b03918216911680820361264157506012925b6001600160a01b0316908103612630575060125b80831461262a578083116126145761260f6120d3936106d59261200b565b6125b1565b61260f612624916120d39461200b565b9061203f565b50905090565b5f52600960205260405f20546125f1565b5f52600960205260405f2054926125dd565b9160018060a01b0383165f52600860205260ff60405f205416806126d3575b80156126ca57601154905b156126c157601354915b60ff60145416156126b9576126a28383836126a89798612110565b94612221565b808211156126b4575090565b905090565b509250505090565b60125491612687565b6010549061267d565b506001600160a01b0382165f9081526008602052604090205460ff16612672565b60018060a01b031690815f52600c60205261271460405f2091825461205d565b9055805f52600c60205260405f2054905f52600d60205260405f20541061273757565b634c937ab560e01b5f5260045ffd5b6001600160a01b03165f818152600e602052604090205490916127689161205d565b815f52600e60205260405f2055805f52600f60205260405f2054908161278c575050565b5f52600e60205260405f20541161279f57565b6352b2cc0960e11b5f5260045ffd5b6001600160a01b03165f818152600c602052604090205482116127e5575f52600c6020526127e160405f2091825461200b565b9055565b63785eab3760e01b5f5260045ffd5b6001600160a01b03165f818152600e6020526040902054909180821061282c5761281d9161200b565b905f52600e60205260405f2055565b6355dcccf360e01b5f5260045ffd5b60ff5f5160206129055f395f51905f525460401c161561285757565b631afcd79f60e31b5f5260045ffd5b9061288a575080511561287b57602081519101fd5b63d6bda27560e01b5f5260045ffd5b815115806128bb575b61289b575090565b639996b31560e01b5f9081526001600160a01b0391909116600452602490fd5b50803b1561289356fe360894a13ba1a3210667c828492db98dca3e2076cc3735a920a3ca505d382bbc9b779b17422d0df92223018b32b4d1fa46e071723d6817e2486d003becc55f00f0c57e16840df040f15088dc2f81fe391c3923bec73e23a9662efc9c229c6a00a26469706673582212202a31165c2b41c2506dcd29f767ac8aa4458af3ffadcabedcc8ea42aac54e0b7064736f6c634300081e0033f0c57e16840df040f15088dc2f81fe391c3923bec73e23a9662efc9c229c6a00","linkReferences":{}},"methodIdentifiers":{"BASIS_POINTS_DIVISOR()":"126082cf","PRICE_PRECISION()":"95082d25","UPGRADE_INTERFACE_VERSION()":"ad3cb1cc","USDY_DECIMALS()":"cffc734c","allWhitelistedTokens(uint256)":"e468baf0","buyUSDY(address,address)":"2efc7660","clearWhitelistedToken(address)":"1d517d65","emergencyMode()":"0905f560","getAllPoolTokens()":"76cd370e","getFeeBasisPoints(address,uint256,uint256,uint256,bool)":"c7e074c3","getMaxPrice(address)":"e124e6d2","getMinPrice(address)":"81a612d6","getPoolValue(bool)":"bab3e9e6","getPrice(address,bool)":"76d69760","getRedemptionFeeBasisPoints(address,uint256)":"802f9270","getSwapAmountOut(address,address,uint256)":"8b8e42ec","getSwapFeeBasisPoints(address,address,uint256)":"da133816","getTargetUsdyAmount(address)":"3dd9bd82","gov()":"12d43a51","hasDynamicFees()":"9f392eb3","initialize(address,address)":"485cc955","isSwapEnabled()":"351a964d","isSwapper(address)":"b64230ba","maxSwapAmount(address)":"e7881011","maxSwapSlippageBps()":"b7c3565d","maxUsdyAmounts(address)":"e17d4308","poolAmounts(address)":"52f55eed","priceFeed()":"741bef1a","proxiableUUID()":"52d1902d","sellUSDY(address,address)":"3d332583","setDynamicFees(bool)":"2f1983d4","setEmergencyMode(bool)":"be32b3f8","setGov(address)":"cfad57a2","setMaxSwapAmount(address,uint256)":"a589d319","setMaxSwapSlippageBps(uint256)":"e89d59de","setPoolManager(address)":"7aef6715","setSwapEnabled(bool)":"e01af92c","setSwapFees(uint256,uint256,uint256,uint256)":"8038cbd3","setSwapper(address,bool)":"3f2617cb","setWhitelistedToken(address,uint256,uint256,uint256,bool)":"3a0ede36","stableSwapFeeBasisPoints()":"df73a267","stableTaxBasisPoints()":"10eb56c2","stableTokens(address)":"42b60b03","swap(address,address,address)":"93316212","swapFeeBasisPoints()":"a22f2392","taxBasisPoints()":"7a210a2b","tokenBalances(address)":"523fba7f","tokenDecimals(address)":"8ee573ac","tokenWeights(address)":"ab2f3ad4","totalTokenWeights()":"dc8f5fac","upgradeToAndCall(address,bytes)":"4f1ef286","usdy()":"98d506e9","usdyAmounts(address)":"d3af922d","whitelistedTokens(address)":"daf9c210","withdrawToken(address,address,uint256)":"01e33667","ytPoolManager()":"778d733d"},"id":7}