{"abi":[{"type":"constructor","inputs":[],"stateMutability":"nonpayable"},{"type":"function","name":"UPGRADE_INTERFACE_VERSION","inputs":[],"outputs":[{"name":"","type":"string","internalType":"string"}],"stateMutability":"view"},{"type":"function","name":"getPrice","inputs":[{"name":"_token","type":"address","internalType":"address"}],"outputs":[{"name":"","type":"uint256","internalType":"uint256"}],"stateMutability":"view"},{"type":"function","name":"initialize","inputs":[{"name":"_usdcAddress","type":"address","internalType":"address"},{"name":"_usdcPriceFeed","type":"address","internalType":"address"}],"outputs":[],"stateMutability":"nonpayable"},{"type":"function","name":"owner","inputs":[],"outputs":[{"name":"","type":"address","internalType":"address"}],"stateMutability":"view"},{"type":"function","name":"priceStalenesThreshold","inputs":[],"outputs":[{"name":"","type":"uint256","internalType":"uint256"}],"stateMutability":"view"},{"type":"function","name":"proxiableUUID","inputs":[],"outputs":[{"name":"","type":"bytes32","internalType":"bytes32"}],"stateMutability":"view"},{"type":"function","name":"renounceOwnership","inputs":[],"outputs":[],"stateMutability":"nonpayable"},{"type":"function","name":"setPriceStalenessThreshold","inputs":[{"name":"_threshold","type":"uint256","internalType":"uint256"}],"outputs":[],"stateMutability":"nonpayable"},{"type":"function","name":"setUsdcAddress","inputs":[{"name":"_usdcAddress","type":"address","internalType":"address"}],"outputs":[],"stateMutability":"nonpayable"},{"type":"function","name":"transferOwnership","inputs":[{"name":"newOwner","type":"address","internalType":"address"}],"outputs":[],"stateMutability":"nonpayable"},{"type":"function","name":"upgradeToAndCall","inputs":[{"name":"newImplementation","type":"address","internalType":"address"},{"name":"data","type":"bytes","internalType":"bytes"}],"outputs":[],"stateMutability":"payable"},{"type":"function","name":"usdcAddress","inputs":[],"outputs":[{"name":"","type":"address","internalType":"address"}],"stateMutability":"view"},{"type":"event","name":"Initialized","inputs":[{"name":"version","type":"uint64","indexed":false,"internalType":"uint64"}],"anonymous":false},{"type":"event","name":"OwnershipTransferred","inputs":[{"name":"previousOwner","type":"address","indexed":true,"internalType":"address"},{"name":"newOwner","type":"address","indexed":true,"internalType":"address"}],"anonymous":false},{"type":"event","name":"Upgraded","inputs":[{"name":"implementation","type":"address","indexed":true,"internalType":"address"}],"anonymous":false},{"type":"error","name":"AddressEmptyCode","inputs":[{"name":"target","type":"address","internalType":"address"}]},{"type":"error","name":"ERC1967InvalidImplementation","inputs":[{"name":"implementation","type":"address","internalType":"address"}]},{"type":"error","name":"ERC1967NonPayable","inputs":[]},{"type":"error","name":"FailedCall","inputs":[]},{"type":"error","name":"InvalidChainlinkPrice","inputs":[]},{"type":"error","name":"InvalidInitialization","inputs":[]},{"type":"error","name":"InvalidUsdcAddress","inputs":[]},{"type":"error","name":"InvalidUsdcPriceFeedAddress","inputs":[]},{"type":"error","name":"NotInitializing","inputs":[]},{"type":"error","name":"OwnableInvalidOwner","inputs":[{"name":"owner","type":"address","internalType":"address"}]},{"type":"error","name":"OwnableUnauthorizedAccount","inputs":[{"name":"account","type":"address","internalType":"address"}]},{"type":"error","name":"StalePrice","inputs":[]},{"type":"error","name":"UUPSUnauthorizedCallContext","inputs":[]},{"type":"error","name":"UUPSUnsupportedProxiableUUID","inputs":[{"name":"slot","type":"bytes32","internalType":"bytes32"}]}],"bytecode":{"object":"0x60a080604052346100c257306080525f516020610bec5f395f51905f525460ff8160401c166100b3576002600160401b03196001600160401b03821601610060575b604051610b2590816100c7823960805181818161024b015261031b0152f35b6001600160401b0319166001600160401b039081175f516020610bec5f395f51905f525581527fc7f505b2f371ae2175ee4913f4499e1f2633a7b5936321eed1cdaeb6115181d290602090a15f80610041565b63f92ee8a960e01b5f5260045ffd5b5f80fdfe6080806040526004361015610012575f80fd5b5f3560e01c90816302d45457146107295750806341976e09146106fe578063485cc955146105455780634915a858146104d05780634f1ef2861461029f57806352d1902d14610239578063715018a6146101d25780638da5cb5b1461019e578063ad3cb1cc14610140578063b3b8a99414610123578063d38bcdee146100cf5763f2fde38b146100a0575f80fd5b346100cb5760203660031901126100cb576100c96100bc61074b565b6100c46109d3565b61094b565b005b5f80fd5b346100cb5760203660031901126100cb576100e861074b565b6100f06109d3565b6001600160a01b03168015610114576001600160601b0360a01b5f5416175f555f80f35b633c80384560e21b5f5260045ffd5b346100cb575f3660031901126100cb576020600254604051908152f35b346100cb575f3660031901126100cb57604080519061015f8183610761565b600582526020820191640352e302e360dc1b83528151928391602083525180918160208501528484015e5f828201840152601f01601f19168101030190f35b346100cb575f3660031901126100cb575f516020610a905f395f51905f52546040516001600160a01b039091168152602090f35b346100cb575f3660031901126100cb576101ea6109d3565b5f516020610a905f395f51905f5280546001600160a01b031981169091555f906001600160a01b03167f8be0079c531659141344cd1fd0a4f28419497f9722a3daafe3b4186f6b6457e08280a3005b346100cb575f3660031901126100cb577f00000000000000000000000000000000000000000000000000000000000000006001600160a01b031630036102905760206040515f516020610ab05f395f51905f528152f35b63703e46dd60e11b5f5260045ffd5b60403660031901126100cb576102b361074b565b6024359067ffffffffffffffff82116100cb57366023830112156100cb578160040135906102e082610797565b916102ee6040519384610761565b808352602083019336602483830101116100cb57815f926024602093018737840101526001600160a01b037f0000000000000000000000000000000000000000000000000000000000000000163081149081156104ae575b50610290576103536109d3565b6040516352d1902d60e01b81526001600160a01b0382169390602081600481885afa5f918161047a575b506103955784634c9c8ce360e01b5f5260045260245ffd5b805f516020610ab05f395f51905f528692036104685750823b15610456575f516020610ab05f395f51905f5280546001600160a01b031916821790557fbc7cd75a20ee27fd9adebab32041f755214dbc6bffa90cc0225b39da2e5c2d3b5f80a282511561043d575f80916100c9945190845af43d15610435573d9161041983610797565b926104276040519485610761565b83523d5f602085013e610a31565b606091610a31565b5050503461044757005b63b398979f60e01b5f5260045ffd5b634c9c8ce360e01b5f5260045260245ffd5b632a87526960e21b5f5260045260245ffd5b9091506020813d6020116104a6575b8161049660209383610761565b810103126100cb5751908661037d565b3d9150610489565b5f516020610ab05f395f51905f52546001600160a01b03161415905084610346565b346100cb5760203660031901126100cb576004356104ec6109d3565b80151580610538575b156104ff57600255005b60405162461bcd60e51b8152602060048201526011602482015270125b9d985b1a59081d1a1c995cda1bdb19607a1b6044820152606490fd5b5062093a808111156104f5565b346100cb5760403660031901126100cb5761055e61074b565b6024356001600160a01b038116908190036100cb575f516020610ad05f395f51905f52549160ff8360401c16159267ffffffffffffffff8116801590816106f6575b60011490816106ec575b1590816106e3575b506106d45767ffffffffffffffff1981166001175f516020610ad05f395f51905f5255836106a8575b506105e4610a06565b6105ec610a06565b6105f4610a06565b6105fd3361094b565b6001600160a01b03168015610114578115610699576001600160601b0360a01b5f5416175f556001600160601b0360a01b6001541617600155610e1060025561064257005b68ff0000000000000000195f516020610ad05f395f51905f5254165f516020610ad05f395f51905f52557fc7f505b2f371ae2175ee4913f4499e1f2633a7b5936321eed1cdaeb6115181d2602060405160018152a1005b6339ab5ef760e11b5f5260045ffd5b68ffffffffffffffffff191668010000000000000001175f516020610ad05f395f51905f5255836105db565b63f92ee8a960e01b5f5260045ffd5b905015856105b2565b303b1591506105aa565b8591506105a0565b346100cb5760203660031901126100cb57602061072161071c61074b565b6107b3565b604051908152f35b346100cb575f3660031901126100cb575f546001600160a01b03168152602090f35b600435906001600160a01b03821682036100cb57565b90601f8019910116810190811067ffffffffffffffff82111761078357604052565b634e487b7160e01b5f52604160045260245ffd5b67ffffffffffffffff811161078357601f01601f191660200190565b5f546001600160a01b039182169116811461082b5760206004916040519283809263adcc40cb60e01b82525afa908115610820575f916107f1575090565b90506020813d602011610818575b8161080c60209383610761565b810103126100cb575190565b3d91506107ff565b6040513d5f823e3d90fd5b50600154604051633fabe5a360e21b81529060a090829060049082906001600160a01b03165afa908115610820575f915f925f925f926108f5575b505f8413156108e65782156108d75769ffffffffffffffffffff8091169116106108d75742034281116108c357600254106108d75769021e19e0c9bab240000081029080820469021e19e0c9bab240000014901517156108c35790565b634e487b7160e01b5f52601160045260245ffd5b630cd5fa0760e11b5f5260045ffd5b638002905d60e01b5f5260045ffd5b935050505060a0813d60a011610943575b8161091360a09383610761565b810103126100cb57610924816109bc565b602082015161093a6080606085015194016109bc565b9092915f610866565b3d9150610906565b6001600160a01b031680156109a9575f516020610a905f395f51905f5280546001600160a01b0319811683179091556001600160a01b03167f8be0079c531659141344cd1fd0a4f28419497f9722a3daafe3b4186f6b6457e05f80a3565b631e4fbdf760e01b5f525f60045260245ffd5b519069ffffffffffffffffffff821682036100cb57565b5f516020610a905f395f51905f52546001600160a01b031633036109f357565b63118cdaa760e01b5f523360045260245ffd5b60ff5f516020610ad05f395f51905f525460401c1615610a2257565b631afcd79f60e31b5f5260045ffd5b90610a555750805115610a4657602081519101fd5b63d6bda27560e01b5f5260045ffd5b81511580610a86575b610a66575090565b639996b31560e01b5f9081526001600160a01b0391909116600452602490fd5b50803b15610a5e56fe9016d09d72d40fdae2fd8ceac6b6234c7706214fd39c1cd1e609a0528c199300360894a13ba1a3210667c828492db98dca3e2076cc3735a920a3ca505d382bbcf0c57e16840df040f15088dc2f81fe391c3923bec73e23a9662efc9c229c6a00a264697066735822122056f167714363d40647577ecad4354501a3ad4c581ef586e07d5e341ccb64bee064736f6c634300081e0033f0c57e16840df040f15088dc2f81fe391c3923bec73e23a9662efc9c229c6a00","linkReferences":{}},"methodIdentifiers":{"UPGRADE_INTERFACE_VERSION()":"ad3cb1cc","getPrice(address)":"41976e09","initialize(address,address)":"485cc955","owner()":"8da5cb5b","priceStalenesThreshold()":"b3b8a994","proxiableUUID()":"52d1902d","renounceOwnership()":"715018a6","setPriceStalenessThreshold(uint256)":"4915a858","setUsdcAddress(address)":"d38bcdee","transferOwnership(address)":"f2fde38b","upgradeToAndCall(address,bytes)":"4f1ef286","usdcAddress()":"02d45457"},"id":14}