{"abi":[{"type":"constructor","inputs":[],"stateMutability":"nonpayable"},{"type":"function","name":"UPGRADE_INTERFACE_VERSION","inputs":[],"outputs":[{"name":"","type":"string","internalType":"string"}],"stateMutability":"view"},{"type":"function","name":"allowance","inputs":[{"name":"owner","type":"address","internalType":"address"},{"name":"spender","type":"address","internalType":"address"}],"outputs":[{"name":"","type":"uint256","internalType":"uint256"}],"stateMutability":"view"},{"type":"function","name":"approve","inputs":[{"name":"spender","type":"address","internalType":"address"},{"name":"value","type":"uint256","internalType":"uint256"}],"outputs":[{"name":"","type":"bool","internalType":"bool"}],"stateMutability":"nonpayable"},{"type":"function","name":"balanceOf","inputs":[{"name":"account","type":"address","internalType":"address"}],"outputs":[{"name":"","type":"uint256","internalType":"uint256"}],"stateMutability":"view"},{"type":"function","name":"burn","inputs":[{"name":"_from","type":"address","internalType":"address"},{"name":"_amount","type":"uint256","internalType":"uint256"}],"outputs":[],"stateMutability":"nonpayable"},{"type":"function","name":"decimals","inputs":[],"outputs":[{"name":"","type":"uint8","internalType":"uint8"}],"stateMutability":"view"},{"type":"function","name":"initialize","inputs":[],"outputs":[],"stateMutability":"nonpayable"},{"type":"function","name":"isMinter","inputs":[{"name":"","type":"address","internalType":"address"}],"outputs":[{"name":"","type":"bool","internalType":"bool"}],"stateMutability":"view"},{"type":"function","name":"mint","inputs":[{"name":"_to","type":"address","internalType":"address"},{"name":"_amount","type":"uint256","internalType":"uint256"}],"outputs":[],"stateMutability":"nonpayable"},{"type":"function","name":"name","inputs":[],"outputs":[{"name":"","type":"string","internalType":"string"}],"stateMutability":"view"},{"type":"function","name":"owner","inputs":[],"outputs":[{"name":"","type":"address","internalType":"address"}],"stateMutability":"view"},{"type":"function","name":"poolManager","inputs":[],"outputs":[{"name":"","type":"address","internalType":"address"}],"stateMutability":"view"},{"type":"function","name":"proxiableUUID","inputs":[],"outputs":[{"name":"","type":"bytes32","internalType":"bytes32"}],"stateMutability":"view"},{"type":"function","name":"renounceOwnership","inputs":[],"outputs":[],"stateMutability":"nonpayable"},{"type":"function","name":"setMinter","inputs":[{"name":"_minter","type":"address","internalType":"address"},{"name":"_isActive","type":"bool","internalType":"bool"}],"outputs":[],"stateMutability":"nonpayable"},{"type":"function","name":"setPoolManager","inputs":[{"name":"_poolManager","type":"address","internalType":"address"}],"outputs":[],"stateMutability":"nonpayable"},{"type":"function","name":"symbol","inputs":[],"outputs":[{"name":"","type":"string","internalType":"string"}],"stateMutability":"view"},{"type":"function","name":"totalSupply","inputs":[],"outputs":[{"name":"","type":"uint256","internalType":"uint256"}],"stateMutability":"view"},{"type":"function","name":"transfer","inputs":[{"name":"to","type":"address","internalType":"address"},{"name":"value","type":"uint256","internalType":"uint256"}],"outputs":[{"name":"","type":"bool","internalType":"bool"}],"stateMutability":"nonpayable"},{"type":"function","name":"transferFrom","inputs":[{"name":"from","type":"address","internalType":"address"},{"name":"to","type":"address","internalType":"address"},{"name":"value","type":"uint256","internalType":"uint256"}],"outputs":[{"name":"","type":"bool","internalType":"bool"}],"stateMutability":"nonpayable"},{"type":"function","name":"transferOwnership","inputs":[{"name":"newOwner","type":"address","internalType":"address"}],"outputs":[],"stateMutability":"nonpayable"},{"type":"function","name":"upgradeToAndCall","inputs":[{"name":"newImplementation","type":"address","internalType":"address"},{"name":"data","type":"bytes","internalType":"bytes"}],"outputs":[],"stateMutability":"payable"},{"type":"event","name":"Approval","inputs":[{"name":"owner","type":"address","indexed":true,"internalType":"address"},{"name":"spender","type":"address","indexed":true,"internalType":"address"},{"name":"value","type":"uint256","indexed":false,"internalType":"uint256"}],"anonymous":false},{"type":"event","name":"Initialized","inputs":[{"name":"version","type":"uint64","indexed":false,"internalType":"uint64"}],"anonymous":false},{"type":"event","name":"MinterSet","inputs":[{"name":"minter","type":"address","indexed":true,"internalType":"address"},{"name":"isActive","type":"bool","indexed":false,"internalType":"bool"}],"anonymous":false},{"type":"event","name":"OwnershipTransferred","inputs":[{"name":"previousOwner","type":"address","indexed":true,"internalType":"address"},{"name":"newOwner","type":"address","indexed":true,"internalType":"address"}],"anonymous":false},{"type":"event","name":"Transfer","inputs":[{"name":"from","type":"address","indexed":true,"internalType":"address"},{"name":"to","type":"address","indexed":true,"internalType":"address"},{"name":"value","type":"uint256","indexed":false,"internalType":"uint256"}],"anonymous":false},{"type":"event","name":"Upgraded","inputs":[{"name":"implementation","type":"address","indexed":true,"internalType":"address"}],"anonymous":false},{"type":"error","name":"AddressEmptyCode","inputs":[{"name":"target","type":"address","internalType":"address"}]},{"type":"error","name":"ERC1967InvalidImplementation","inputs":[{"name":"implementation","type":"address","internalType":"address"}]},{"type":"error","name":"ERC1967NonPayable","inputs":[]},{"type":"error","name":"ERC20InsufficientAllowance","inputs":[{"name":"spender","type":"address","internalType":"address"},{"name":"allowance","type":"uint256","internalType":"uint256"},{"name":"needed","type":"uint256","internalType":"uint256"}]},{"type":"error","name":"ERC20InsufficientBalance","inputs":[{"name":"sender","type":"address","internalType":"address"},{"name":"balance","type":"uint256","internalType":"uint256"},{"name":"needed","type":"uint256","internalType":"uint256"}]},{"type":"error","name":"ERC20InvalidApprover","inputs":[{"name":"approver","type":"address","internalType":"address"}]},{"type":"error","name":"ERC20InvalidReceiver","inputs":[{"name":"receiver","type":"address","internalType":"address"}]},{"type":"error","name":"ERC20InvalidSender","inputs":[{"name":"sender","type":"address","internalType":"address"}]},{"type":"error","name":"ERC20InvalidSpender","inputs":[{"name":"spender","type":"address","internalType":"address"}]},{"type":"error","name":"FailedCall","inputs":[]},{"type":"error","name":"InvalidInitialization","inputs":[]},{"type":"error","name":"InvalidMinter","inputs":[]},{"type":"error","name":"InvalidPoolManager","inputs":[]},{"type":"error","name":"NotInitializing","inputs":[]},{"type":"error","name":"NotMinter","inputs":[]},{"type":"error","name":"OwnableInvalidOwner","inputs":[{"name":"owner","type":"address","internalType":"address"}]},{"type":"error","name":"OwnableUnauthorizedAccount","inputs":[{"name":"account","type":"address","internalType":"address"}]},{"type":"error","name":"UUPSUnauthorizedCallContext","inputs":[]},{"type":"error","name":"UUPSUnsupportedProxiableUUID","inputs":[{"name":"slot","type":"bytes32","internalType":"bytes32"}]}],"bytecode":{"object":"0x60a080604052346100c257306080525f5160206115e35f395f51905f525460ff8160401c166100b3576002600160401b03196001600160401b03821601610060575b60405161151c90816100c78239608051818181610aab0152610b7b0152f35b6001600160401b0319166001600160401b039081175f5160206115e35f395f51905f525581527fc7f505b2f371ae2175ee4913f4499e1f2633a7b5936321eed1cdaeb6115181d290602090a15f80610041565b63f92ee8a960e01b5f5260045ffd5b5f80fdfe60806040526004361015610011575f80fd5b5f3560e01c806306fdde0314610f81578063095ea7b314610f0257806318160ddd14610ed957806323b872dd14610e01578063313ce56714610de657806340c10f1914610d095780634f1ef28614610aff57806352d1902d14610a9957806370a0823114610a55578063715018a6146109ee5780637aef6715146109935780638129fc1c146105115780638da5cb5b146104dd57806395d89b41146103ef5780639dc29fac146102eb578063a9059cbb146102ba578063aa271e1a1461027e578063ad3cb1cc1461023b578063cf456ae7146101a9578063dc4c90d314610181578063dd62ed3e1461013a5763f2fde38b1461010b575f80fd5b3461013657602036600319011261013657610134610127611068565b61012f61131b565b611142565b005b5f80fd5b3461013657604036600319011261013657610153611068565b61016461015e61107e565b916110d2565b9060018060a01b03165f52602052602060405f2054604051908152f35b34610136575f366003190112610136576001546040516001600160a01b039091168152602090f35b34610136576040366003190112610136576101c2611068565b60243590811515809203610136576101d861131b565b6001600160a01b031690811561022c5760207f583b0aa0e528532caf4b907c11d7a8158a122fe2a6fb80cd9b09776ebea8d92d91835f525f825260405f2060ff1981541660ff8316179055604051908152a2005b63d8d5894f60e01b5f5260045ffd5b34610136575f3660031901126101365761027a60405161025c604082611094565b60058152640352e302e360dc1b60208201526040519182918261103e565b0390f35b34610136576020366003190112610136576001600160a01b0361029f611068565b165f525f602052602060ff60405f2054166040519015158152f35b34610136576040366003190112610136576102e06102d6611068565b60243590336111b3565b602060405160018152f35b3461013657604036600319011261013657610304611068565b60243590335f525f60205260ff60405f205416156103e0576001600160a01b031680156103cd57805f525f5160206114275f395f51905f5260205260405f20548281106103b4576020835f947fddf252ad1be2c89b69c2b068fc378daa952ba7f163c4a11628f55a4df523b3ef938587525f5160206114275f395f51905f528452036040862055805f5160206114875f395f51905f5254035f5160206114875f395f51905f5255604051908152a3005b9063391434e360e21b5f5260045260245260445260645ffd5b634b637e8f60e11b5f525f60045260245ffd5b633e34a41b60e21b5f5260045ffd5b34610136575f366003190112610136576040515f5f5160206114475f395f51905f525461041b8161110a565b80845290600181169081156104b9575060011461044f575b61027a8361044381850382611094565b6040519182918261103e565b5f5160206114475f395f51905f525f9081527f46a2803e59a4de4e7a4c574b1243f25977ac4c77d5a1a4a609b5394cebb4a2aa939250905b80821061049f57509091508101602001610443610433565b919260018160209254838588010152019101909291610487565b60ff191660208086019190915291151560051b840190910191506104439050610433565b34610136575f366003190112610136575f5160206114675f395f51905f52546040516001600160a01b039091168152602090f35b34610136575f366003190112610136575f5160206114c75f395f51905f525460ff8160401c16159067ffffffffffffffff81168015908161098b575b6001149081610981575b159081610978575b506109695767ffffffffffffffff1981166001175f5160206114c75f395f51905f52558161093d575b506040908151916105998184611094565b60158352742caa102634b8bab4b234ba3c90283937bb34b232b960591b60208401528051916105c88284611094565b6004835263079744c560e41b60208401526105e161137d565b6105e961137d565b835167ffffffffffffffff8111610834576106115f5160206114075f395f51905f525461110a565b601f81116108ce575b50602094601f8211600114610853579481929394955f92610848575b50508160011b915f199060031b1c1916175f5160206114075f395f51905f52555b825167ffffffffffffffff81116108345761067f5f5160206114475f395f51905f525461110a565b601f81116107c5575b506020601f821160011461074a57819293945f9261073f575b50508160011b915f199060031b1c1916175f5160206114475f395f51905f52555b6106ca61137d565b6106d261137d565b6106db33611142565b6106e361137d565b6106e957005b60207fc7f505b2f371ae2175ee4913f4499e1f2633a7b5936321eed1cdaeb6115181d29168ff0000000000000000195f5160206114c75f395f51905f5254165f5160206114c75f395f51905f52555160018152a1005b0151905084806106a1565b601f198216905f5160206114475f395f51905f525f52805f20915f5b8181106107ad57509583600195969710610795575b505050811b015f5160206114475f395f51905f52556106c2565b01515f1960f88460031b161c1916905584808061077b565b9192602060018192868b015181550194019201610766565b5f5160206114475f395f51905f525f527f46a2803e59a4de4e7a4c574b1243f25977ac4c77d5a1a4a609b5394cebb4a2aa601f830160051c8101916020841061082a575b601f0160051c01905b81811061081f5750610688565b5f8155600101610812565b9091508190610809565b634e487b7160e01b5f52604160045260245ffd5b015190508580610636565b601f198216955f5160206114075f395f51905f525f52805f20915f5b8881106108b65750836001959697981061089e575b505050811b015f5160206114075f395f51905f5255610657565b01515f1960f88460031b161c19169055858080610884565b9192602060018192868501518155019401920161086f565b5f5160206114075f395f51905f525f527f2ae08a8e29253f69ac5d979a101956ab8f8d9d7ded63fa7a83b16fc47648eab0601f830160051c81019160208410610933575b601f0160051c01905b818110610928575061061a565b5f815560010161091b565b9091508190610912565b68ffffffffffffffffff191668010000000000000001175f5160206114c75f395f51905f525581610588565b63f92ee8a960e01b5f5260045ffd5b9050158361055f565b303b159150610557565b83915061054d565b34610136576020366003190112610136576109ac611068565b6109b461131b565b6001600160a01b031680156109df576bffffffffffffffffffffffff60a01b60015416176001555f80f35b63bc12814760e01b5f5260045ffd5b34610136575f36600319011261013657610a0661131b565b5f5160206114675f395f51905f5280546001600160a01b031981169091555f906001600160a01b03167f8be0079c531659141344cd1fd0a4f28419497f9722a3daafe3b4186f6b6457e08280a3005b34610136576020366003190112610136576001600160a01b03610a76611068565b165f525f5160206114275f395f51905f52602052602060405f2054604051908152f35b34610136575f366003190112610136577f00000000000000000000000000000000000000000000000000000000000000006001600160a01b03163003610af05760206040515f5160206114a75f395f51905f528152f35b63703e46dd60e11b5f5260045ffd5b604036600319011261013657610b13611068565b6024359067ffffffffffffffff8211610136573660238301121561013657816004013590610b40826110b6565b91610b4e6040519384611094565b8083526020830193366024838301011161013657815f926024602093018737840101526001600160a01b037f000000000000000000000000000000000000000000000000000000000000000016308114908115610ce7575b50610af057610bb361131b565b6040516352d1902d60e01b81526001600160a01b0382169390602081600481885afa5f9181610cb3575b50610bf55784634c9c8ce360e01b5f5260045260245ffd5b805f5160206114a75f395f51905f52869203610ca15750823b15610c8f575f5160206114a75f395f51905f5280546001600160a01b031916821790557fbc7cd75a20ee27fd9adebab32041f755214dbc6bffa90cc0225b39da2e5c2d3b5f80a2825115610c76575f8091610134945190845af4610c7061134e565b916113a8565b50505034610c8057005b63b398979f60e01b5f5260045ffd5b634c9c8ce360e01b5f5260045260245ffd5b632a87526960e21b5f5260045260245ffd5b9091506020813d602011610cdf575b81610ccf60209383611094565b8101031261013657519086610bdd565b3d9150610cc2565b5f5160206114a75f395f51905f52546001600160a01b03161415905084610ba6565b3461013657604036600319011261013657610d22611068565b60243590335f525f60205260ff60405f205416156103e0576001600160a01b0316908115610dd3575f5160206114875f395f51905f525490808201809211610dbf5760207fddf252ad1be2c89b69c2b068fc378daa952ba7f163c4a11628f55a4df523b3ef915f935f5160206114875f395f51905f52558484525f5160206114275f395f51905f52825260408420818154019055604051908152a3005b634e487b7160e01b5f52601160045260245ffd5b63ec442f0560e01b5f525f60045260245ffd5b34610136575f36600319011261013657602060405160128152f35b3461013657606036600319011261013657610e1a611068565b610e2261107e565b60443590610e2f836110d2565b335f9081526020919091526040902054925f198410610e53575b6102e093506111b3565b828410610ebe576001600160a01b03811615610eab573315610e98576102e093610e7c826110d2565b60018060a01b0333165f526020528360405f2091039055610e49565b634a1406b160e11b5f525f60045260245ffd5b63e602df0560e01b5f525f60045260245ffd5b8284637dc7a0d960e11b5f523360045260245260445260645ffd5b34610136575f3660031901126101365760205f5160206114875f395f51905f5254604051908152f35b3461013657604036600319011261013657610f1b611068565b602435903315610eab576001600160a01b0316908115610e9857610f3e336110d2565b825f526020528060405f20556040519081527f8c5be1e5ebec7d5bd14f71427d1e84f3dd0314c0f7b2291e5b200ac8c7c3b92560203392a3602060405160018152f35b34610136575f366003190112610136576040515f5f5160206114075f395f51905f5254610fad8161110a565b80845290600181169081156104b95750600114610fd45761027a8361044381850382611094565b5f5160206114075f395f51905f525f9081527f2ae08a8e29253f69ac5d979a101956ab8f8d9d7ded63fa7a83b16fc47648eab0939250905b80821061102457509091508101602001610443610433565b91926001816020925483858801015201910190929161100c565b602060409281835280519182918282860152018484015e5f828201840152601f01601f1916010190565b600435906001600160a01b038216820361013657565b602435906001600160a01b038216820361013657565b90601f8019910116810190811067ffffffffffffffff82111761083457604052565b67ffffffffffffffff811161083457601f01601f191660200190565b6001600160a01b03165f9081527f52c63247e1f47db19d5ce0460030c497f067ca4cebf71ba98eeadabe20bace016020526040902090565b90600182811c92168015611138575b602083101461112457565b634e487b7160e01b5f52602260045260245ffd5b91607f1691611119565b6001600160a01b031680156111a0575f5160206114675f395f51905f5280546001600160a01b0319811683179091556001600160a01b03167f8be0079c531659141344cd1fd0a4f28419497f9722a3daafe3b4186f6b6457e05f80a3565b631e4fbdf760e01b5f525f60045260245ffd5b6001600160a01b03169081156103cd576001600160a01b0316918215610dd357815f525f5160206114275f395f51905f5260205260405f2054818110611302577fddf252ad1be2c89b69c2b068fc378daa952ba7f163c4a11628f55a4df523b3ef60208386948694855f525f5160206114275f395f51905f5284520360405f2055845f525f5160206114275f395f51905f52825260405f20818154019055604051908152a36001546001600160a01b031661126c575050565b5f9182918260018060a01b036001541692604051906020820193639d2b744960e01b855260248301526044820152604481526112a9606482611094565b51925af16112b561134e565b50156112bd57565b60405162461bcd60e51b815260206004820152601b60248201527f4661696c656420746f2063616c6c206f6e4c505472616e7366657200000000006044820152606490fd5b8263391434e360e21b5f5260045260245260445260645ffd5b5f5160206114675f395f51905f52546001600160a01b0316330361133b57565b63118cdaa760e01b5f523360045260245ffd5b3d15611378573d9061135f826110b6565b9161136d6040519384611094565b82523d5f602084013e565b606090565b60ff5f5160206114c75f395f51905f525460401c161561139957565b631afcd79f60e31b5f5260045ffd5b906113cc57508051156113bd57602081519101fd5b63d6bda27560e01b5f5260045ffd5b815115806113fd575b6113dd575090565b639996b31560e01b5f9081526001600160a01b0391909116600452602490fd5b50803b156113d556fe52c63247e1f47db19d5ce0460030c497f067ca4cebf71ba98eeadabe20bace0352c63247e1f47db19d5ce0460030c497f067ca4cebf71ba98eeadabe20bace0052c63247e1f47db19d5ce0460030c497f067ca4cebf71ba98eeadabe20bace049016d09d72d40fdae2fd8ceac6b6234c7706214fd39c1cd1e609a0528c19930052c63247e1f47db19d5ce0460030c497f067ca4cebf71ba98eeadabe20bace02360894a13ba1a3210667c828492db98dca3e2076cc3735a920a3ca505d382bbcf0c57e16840df040f15088dc2f81fe391c3923bec73e23a9662efc9c229c6a00a264697066735822122030996fb464352227861b55ec52af610aeb6fa93a240e686006da466fa338e68f64736f6c634300081e0033f0c57e16840df040f15088dc2f81fe391c3923bec73e23a9662efc9c229c6a00","linkReferences":{}},"methodIdentifiers":{"UPGRADE_INTERFACE_VERSION()":"ad3cb1cc","allowance(address,address)":"dd62ed3e","approve(address,uint256)":"095ea7b3","balanceOf(address)":"70a08231","burn(address,uint256)":"9dc29fac","decimals()":"313ce567","initialize()":"8129fc1c","isMinter(address)":"aa271e1a","mint(address,uint256)":"40c10f19","name()":"06fdde03","owner()":"8da5cb5b","poolManager()":"dc4c90d3","proxiableUUID()":"52d1902d","renounceOwnership()":"715018a6","setMinter(address,bool)":"cf456ae7","setPoolManager(address)":"7aef6715","symbol()":"95d89b41","totalSupply()":"18160ddd","transfer(address,uint256)":"a9059cbb","transferFrom(address,address,uint256)":"23b872dd","transferOwnership(address)":"f2fde38b","upgradeToAndCall(address,bytes)":"4f1ef286"},"id":11}