{"abi":[{"type":"constructor","inputs":[],"stateMutability":"nonpayable"},{"type":"function","name":"CHAINLINK_PRICE_PRECISION","inputs":[],"outputs":[{"name":"","type":"uint256","internalType":"uint256"}],"stateMutability":"view"},{"type":"function","name":"PRICE_PRECISION","inputs":[],"outputs":[{"name":"","type":"uint256","internalType":"uint256"}],"stateMutability":"view"},{"type":"function","name":"UPGRADE_INTERFACE_VERSION","inputs":[],"outputs":[{"name":"","type":"string","internalType":"string"}],"stateMutability":"view"},{"type":"function","name":"allowance","inputs":[{"name":"owner","type":"address","internalType":"address"},{"name":"spender","type":"address","internalType":"address"}],"outputs":[{"name":"","type":"uint256","internalType":"uint256"}],"stateMutability":"view"},{"type":"function","name":"approve","inputs":[{"name":"spender","type":"address","internalType":"address"},{"name":"value","type":"uint256","internalType":"uint256"}],"outputs":[{"name":"","type":"bool","internalType":"bool"}],"stateMutability":"nonpayable"},{"type":"function","name":"balanceOf","inputs":[{"name":"account","type":"address","internalType":"address"}],"outputs":[{"name":"","type":"uint256","internalType":"uint256"}],"stateMutability":"view"},{"type":"function","name":"canRedeemNow","inputs":[],"outputs":[{"name":"","type":"bool","internalType":"bool"}],"stateMutability":"view"},{"type":"function","name":"decimals","inputs":[],"outputs":[{"name":"","type":"uint8","internalType":"uint8"}],"stateMutability":"view"},{"type":"function","name":"depositManagedAssets","inputs":[{"name":"_amount","type":"uint256","internalType":"uint256"}],"outputs":[],"stateMutability":"nonpayable"},{"type":"function","name":"depositYT","inputs":[{"name":"_usdcAmount","type":"uint256","internalType":"uint256"}],"outputs":[{"name":"ytAmount","type":"uint256","internalType":"uint256"}],"stateMutability":"nonpayable"},{"type":"function","name":"factory","inputs":[],"outputs":[{"name":"","type":"address","internalType":"address"}],"stateMutability":"view"},{"type":"function","name":"getPendingRequestsCount","inputs":[],"outputs":[{"name":"","type":"uint256","internalType":"uint256"}],"stateMutability":"view"},{"type":"function","name":"getQueueProgress","inputs":[],"outputs":[{"name":"currentIndex","type":"uint256","internalType":"uint256"},{"name":"totalRequests","type":"uint256","internalType":"uint256"},{"name":"pendingRequests","type":"uint256","internalType":"uint256"}],"stateMutability":"view"},{"type":"function","name":"getRequestDetails","inputs":[{"name":"_requestId","type":"uint256","internalType":"uint256"}],"outputs":[{"name":"request","type":"tuple","internalType":"struct YTAssetVault.WithdrawRequest","components":[{"name":"user","type":"address","internalType":"address"},{"name":"ytAmount","type":"uint256","internalType":"uint256"},{"name":"usdcAmount","type":"uint256","internalType":"uint256"},{"name":"requestTime","type":"uint256","internalType":"uint256"},{"name":"queueIndex","type":"uint256","internalType":"uint256"},{"name":"processed","type":"bool","internalType":"bool"}]}],"stateMutability":"view"},{"type":"function","name":"getTimeUntilNextRedemption","inputs":[],"outputs":[{"name":"remainingTime","type":"uint256","internalType":"uint256"}],"stateMutability":"view"},{"type":"function","name":"getUserPendingRequests","inputs":[{"name":"_user","type":"address","internalType":"address"}],"outputs":[{"name":"pendingRequests","type":"tuple[]","internalType":"struct YTAssetVault.WithdrawRequest[]","components":[{"name":"user","type":"address","internalType":"address"},{"name":"ytAmount","type":"uint256","internalType":"uint256"},{"name":"usdcAmount","type":"uint256","internalType":"uint256"},{"name":"requestTime","type":"uint256","internalType":"uint256"},{"name":"queueIndex","type":"uint256","internalType":"uint256"},{"name":"processed","type":"bool","internalType":"bool"}]}],"stateMutability":"view"},{"type":"function","name":"getUserRequestIds","inputs":[{"name":"_user","type":"address","internalType":"address"}],"outputs":[{"name":"","type":"uint256[]","internalType":"uint256[]"}],"stateMutability":"view"},{"type":"function","name":"getVaultInfo","inputs":[],"outputs":[{"name":"_totalAssets","type":"uint256","internalType":"uint256"},{"name":"_idleAssets","type":"uint256","internalType":"uint256"},{"name":"_managedAssets","type":"uint256","internalType":"uint256"},{"name":"_totalSupply","type":"uint256","internalType":"uint256"},{"name":"_hardCap","type":"uint256","internalType":"uint256"},{"name":"_usdcPrice","type":"uint256","internalType":"uint256"},{"name":"_ytPrice","type":"uint256","internalType":"uint256"},{"name":"_nextRedemptionTime","type":"uint256","internalType":"uint256"}],"stateMutability":"view"},{"type":"function","name":"hardCap","inputs":[],"outputs":[{"name":"","type":"uint256","internalType":"uint256"}],"stateMutability":"view"},{"type":"function","name":"idleAssets","inputs":[],"outputs":[{"name":"","type":"uint256","internalType":"uint256"}],"stateMutability":"view"},{"type":"function","name":"initialize","inputs":[{"name":"_name","type":"string","internalType":"string"},{"name":"_symbol","type":"string","internalType":"string"},{"name":"_manager","type":"address","internalType":"address"},{"name":"_hardCap","type":"uint256","internalType":"uint256"},{"name":"_usdc","type":"address","internalType":"address"},{"name":"_redemptionTime","type":"uint256","internalType":"uint256"},{"name":"_initialYtPrice","type":"uint256","internalType":"uint256"},{"name":"_usdcPriceFeed","type":"address","internalType":"address"}],"outputs":[],"stateMutability":"nonpayable"},{"type":"function","name":"managedAssets","inputs":[],"outputs":[{"name":"","type":"uint256","internalType":"uint256"}],"stateMutability":"view"},{"type":"function","name":"manager","inputs":[],"outputs":[{"name":"","type":"address","internalType":"address"}],"stateMutability":"view"},{"type":"function","name":"name","inputs":[],"outputs":[{"name":"","type":"string","internalType":"string"}],"stateMutability":"view"},{"type":"function","name":"nextRedemptionTime","inputs":[],"outputs":[{"name":"","type":"uint256","internalType":"uint256"}],"stateMutability":"view"},{"type":"function","name":"pause","inputs":[],"outputs":[],"stateMutability":"nonpayable"},{"type":"function","name":"paused","inputs":[],"outputs":[{"name":"","type":"bool","internalType":"bool"}],"stateMutability":"view"},{"type":"function","name":"pendingRequestsCount","inputs":[],"outputs":[{"name":"","type":"uint256","internalType":"uint256"}],"stateMutability":"view"},{"type":"function","name":"previewBuy","inputs":[{"name":"_usdcAmount","type":"uint256","internalType":"uint256"}],"outputs":[{"name":"ytAmount","type":"uint256","internalType":"uint256"}],"stateMutability":"view"},{"type":"function","name":"previewSell","inputs":[{"name":"_ytAmount","type":"uint256","internalType":"uint256"}],"outputs":[{"name":"usdcAmount","type":"uint256","internalType":"uint256"}],"stateMutability":"view"},{"type":"function","name":"priceStalenesThreshold","inputs":[],"outputs":[{"name":"","type":"uint256","internalType":"uint256"}],"stateMutability":"view"},{"type":"function","name":"processBatchWithdrawals","inputs":[{"name":"_batchSize","type":"uint256","internalType":"uint256"}],"outputs":[{"name":"processedCount","type":"uint256","internalType":"uint256"},{"name":"totalDistributed","type":"uint256","internalType":"uint256"}],"stateMutability":"nonpayable"},{"type":"function","name":"processedUpToIndex","inputs":[],"outputs":[{"name":"","type":"uint256","internalType":"uint256"}],"stateMutability":"view"},{"type":"function","name":"proxiableUUID","inputs":[],"outputs":[{"name":"","type":"bytes32","internalType":"bytes32"}],"stateMutability":"view"},{"type":"function","name":"requestIdCounter","inputs":[],"outputs":[{"name":"","type":"uint256","internalType":"uint256"}],"stateMutability":"view"},{"type":"function","name":"setHardCap","inputs":[{"name":"_hardCap","type":"uint256","internalType":"uint256"}],"outputs":[],"stateMutability":"nonpayable"},{"type":"function","name":"setManager","inputs":[{"name":"_manager","type":"address","internalType":"address"}],"outputs":[],"stateMutability":"nonpayable"},{"type":"function","name":"setNextRedemptionTime","inputs":[{"name":"_nextRedemptionTime","type":"uint256","internalType":"uint256"}],"outputs":[],"stateMutability":"nonpayable"},{"type":"function","name":"setPriceStalenessThreshold","inputs":[{"name":"_threshold","type":"uint256","internalType":"uint256"}],"outputs":[],"stateMutability":"nonpayable"},{"type":"function","name":"symbol","inputs":[],"outputs":[{"name":"","type":"string","internalType":"string"}],"stateMutability":"view"},{"type":"function","name":"totalAssets","inputs":[],"outputs":[{"name":"","type":"uint256","internalType":"uint256"}],"stateMutability":"view"},{"type":"function","name":"totalSupply","inputs":[],"outputs":[{"name":"","type":"uint256","internalType":"uint256"}],"stateMutability":"view"},{"type":"function","name":"transfer","inputs":[{"name":"to","type":"address","internalType":"address"},{"name":"value","type":"uint256","internalType":"uint256"}],"outputs":[{"name":"","type":"bool","internalType":"bool"}],"stateMutability":"nonpayable"},{"type":"function","name":"transferFrom","inputs":[{"name":"from","type":"address","internalType":"address"},{"name":"to","type":"address","internalType":"address"},{"name":"value","type":"uint256","internalType":"uint256"}],"outputs":[{"name":"","type":"bool","internalType":"bool"}],"stateMutability":"nonpayable"},{"type":"function","name":"unpause","inputs":[],"outputs":[],"stateMutability":"nonpayable"},{"type":"function","name":"updatePrices","inputs":[{"name":"_ytPrice","type":"uint256","internalType":"uint256"}],"outputs":[],"stateMutability":"nonpayable"},{"type":"function","name":"upgradeToAndCall","inputs":[{"name":"newImplementation","type":"address","internalType":"address"},{"name":"data","type":"bytes","internalType":"bytes"}],"outputs":[],"stateMutability":"payable"},{"type":"function","name":"usdcAddress","inputs":[],"outputs":[{"name":"","type":"address","internalType":"address"}],"stateMutability":"view"},{"type":"function","name":"usdcDecimals","inputs":[],"outputs":[{"name":"","type":"uint8","internalType":"uint8"}],"stateMutability":"view"},{"type":"function","name":"withdrawForManagement","inputs":[{"name":"_to","type":"address","internalType":"address"},{"name":"_amount","type":"uint256","internalType":"uint256"}],"outputs":[],"stateMutability":"nonpayable"},{"type":"function","name":"withdrawRequests","inputs":[{"name":"","type":"uint256","internalType":"uint256"}],"outputs":[{"name":"user","type":"address","internalType":"address"},{"name":"ytAmount","type":"uint256","internalType":"uint256"},{"name":"usdcAmount","type":"uint256","internalType":"uint256"},{"name":"requestTime","type":"uint256","internalType":"uint256"},{"name":"queueIndex","type":"uint256","internalType":"uint256"},{"name":"processed","type":"bool","internalType":"bool"}],"stateMutability":"view"},{"type":"function","name":"withdrawYT","inputs":[{"name":"_ytAmount","type":"uint256","internalType":"uint256"}],"outputs":[{"name":"requestId","type":"uint256","internalType":"uint256"}],"stateMutability":"nonpayable"},{"type":"function","name":"ytPrice","inputs":[],"outputs":[{"name":"","type":"uint256","internalType":"uint256"}],"stateMutability":"view"},{"type":"event","name":"Approval","inputs":[{"name":"owner","type":"address","indexed":true,"internalType":"address"},{"name":"spender","type":"address","indexed":true,"internalType":"address"},{"name":"value","type":"uint256","indexed":false,"internalType":"uint256"}],"anonymous":false},{"type":"event","name":"AssetsDeposited","inputs":[{"name":"amount","type":"uint256","indexed":false,"internalType":"uint256"}],"anonymous":false},{"type":"event","name":"AssetsWithdrawn","inputs":[{"name":"to","type":"address","indexed":true,"internalType":"address"},{"name":"amount","type":"uint256","indexed":false,"internalType":"uint256"}],"anonymous":false},{"type":"event","name":"BatchProcessed","inputs":[{"name":"startIndex","type":"uint256","indexed":false,"internalType":"uint256"},{"name":"endIndex","type":"uint256","indexed":false,"internalType":"uint256"},{"name":"processedCount","type":"uint256","indexed":false,"internalType":"uint256"},{"name":"totalUsdcDistributed","type":"uint256","indexed":false,"internalType":"uint256"}],"anonymous":false},{"type":"event","name":"Buy","inputs":[{"name":"user","type":"address","indexed":true,"internalType":"address"},{"name":"usdcAmount","type":"uint256","indexed":false,"internalType":"uint256"},{"name":"ytAmount","type":"uint256","indexed":false,"internalType":"uint256"}],"anonymous":false},{"type":"event","name":"HardCapSet","inputs":[{"name":"newHardCap","type":"uint256","indexed":false,"internalType":"uint256"}],"anonymous":false},{"type":"event","name":"Initialized","inputs":[{"name":"version","type":"uint64","indexed":false,"internalType":"uint64"}],"anonymous":false},{"type":"event","name":"ManagerSet","inputs":[{"name":"newManager","type":"address","indexed":true,"internalType":"address"}],"anonymous":false},{"type":"event","name":"NextRedemptionTimeSet","inputs":[{"name":"newRedemptionTime","type":"uint256","indexed":false,"internalType":"uint256"}],"anonymous":false},{"type":"event","name":"Paused","inputs":[{"name":"account","type":"address","indexed":false,"internalType":"address"}],"anonymous":false},{"type":"event","name":"PriceUpdated","inputs":[{"name":"ytPrice","type":"uint256","indexed":false,"internalType":"uint256"},{"name":"timestamp","type":"uint256","indexed":false,"internalType":"uint256"}],"anonymous":false},{"type":"event","name":"Sell","inputs":[{"name":"user","type":"address","indexed":true,"internalType":"address"},{"name":"ytAmount","type":"uint256","indexed":false,"internalType":"uint256"},{"name":"usdcAmount","type":"uint256","indexed":false,"internalType":"uint256"}],"anonymous":false},{"type":"event","name":"Transfer","inputs":[{"name":"from","type":"address","indexed":true,"internalType":"address"},{"name":"to","type":"address","indexed":true,"internalType":"address"},{"name":"value","type":"uint256","indexed":false,"internalType":"uint256"}],"anonymous":false},{"type":"event","name":"Unpaused","inputs":[{"name":"account","type":"address","indexed":false,"internalType":"address"}],"anonymous":false},{"type":"event","name":"Upgraded","inputs":[{"name":"implementation","type":"address","indexed":true,"internalType":"address"}],"anonymous":false},{"type":"event","name":"WithdrawRequestCreated","inputs":[{"name":"requestId","type":"uint256","indexed":true,"internalType":"uint256"},{"name":"user","type":"address","indexed":true,"internalType":"address"},{"name":"ytAmount","type":"uint256","indexed":false,"internalType":"uint256"},{"name":"usdcAmount","type":"uint256","indexed":false,"internalType":"uint256"},{"name":"queueIndex","type":"uint256","indexed":false,"internalType":"uint256"}],"anonymous":false},{"type":"event","name":"WithdrawRequestProcessed","inputs":[{"name":"requestId","type":"uint256","indexed":true,"internalType":"uint256"},{"name":"user","type":"address","indexed":true,"internalType":"address"},{"name":"usdcAmount","type":"uint256","indexed":false,"internalType":"uint256"}],"anonymous":false},{"type":"error","name":"AddressEmptyCode","inputs":[{"name":"target","type":"address","internalType":"address"}]},{"type":"error","name":"ERC1967InvalidImplementation","inputs":[{"name":"implementation","type":"address","internalType":"address"}]},{"type":"error","name":"ERC1967NonPayable","inputs":[]},{"type":"error","name":"ERC20InsufficientAllowance","inputs":[{"name":"spender","type":"address","internalType":"address"},{"name":"allowance","type":"uint256","internalType":"uint256"},{"name":"needed","type":"uint256","internalType":"uint256"}]},{"type":"error","name":"ERC20InsufficientBalance","inputs":[{"name":"sender","type":"address","internalType":"address"},{"name":"balance","type":"uint256","internalType":"uint256"},{"name":"needed","type":"uint256","internalType":"uint256"}]},{"type":"error","name":"ERC20InvalidApprover","inputs":[{"name":"approver","type":"address","internalType":"address"}]},{"type":"error","name":"ERC20InvalidReceiver","inputs":[{"name":"receiver","type":"address","internalType":"address"}]},{"type":"error","name":"ERC20InvalidSender","inputs":[{"name":"sender","type":"address","internalType":"address"}]},{"type":"error","name":"ERC20InvalidSpender","inputs":[{"name":"spender","type":"address","internalType":"address"}]},{"type":"error","name":"EnforcedPause","inputs":[]},{"type":"error","name":"ExpectedPause","inputs":[]},{"type":"error","name":"FailedCall","inputs":[]},{"type":"error","name":"Forbidden","inputs":[]},{"type":"error","name":"HardCapExceeded","inputs":[]},{"type":"error","name":"InsufficientUSDC","inputs":[]},{"type":"error","name":"InsufficientYTA","inputs":[]},{"type":"error","name":"InvalidAmount","inputs":[]},{"type":"error","name":"InvalidBatchSize","inputs":[]},{"type":"error","name":"InvalidChainlinkPrice","inputs":[]},{"type":"error","name":"InvalidHardCap","inputs":[]},{"type":"error","name":"InvalidInitialization","inputs":[]},{"type":"error","name":"InvalidPrice","inputs":[]},{"type":"error","name":"InvalidPriceFeed","inputs":[]},{"type":"error","name":"NotInitializing","inputs":[]},{"type":"error","name":"ReentrancyGuardReentrantCall","inputs":[]},{"type":"error","name":"RequestAlreadyProcessed","inputs":[]},{"type":"error","name":"RequestNotFound","inputs":[]},{"type":"error","name":"SafeERC20FailedOperation","inputs":[{"name":"token","type":"address","internalType":"address"}]},{"type":"error","name":"StalePrice","inputs":[]},{"type":"error","name":"StillInLockPeriod","inputs":[]},{"type":"error","name":"UUPSUnauthorizedCallContext","inputs":[]},{"type":"error","name":"UUPSUnsupportedProxiableUUID","inputs":[{"name":"slot","type":"bytes32","internalType":"bytes32"}]}],"bytecode":{"object":"0x60a080604052346100c257306080525f516020612ca15f395f51905f525460ff8160401c166100b3576002600160401b03196001600160401b03821601610060575b604051612bda90816100c782396080518181816119710152611a140152f35b6001600160401b0319166001600160401b039081175f516020612ca15f395f51905f525581527fc7f505b2f371ae2175ee4913f4499e1f2633a7b5936321eed1cdaeb6115181d290602090a15f80610041565b63f92ee8a960e01b5f5260045ffd5b5f80fdfe60806040526004361015610011575f80fd5b5f3560e01c806301e1d114146123d157806302d45457146123a957806306fdde03146122ec578063095ea7b31461226d57806311a270cc1461215257806318160ddd14612129578063188c26cc1461078d57806323b872dd1461205157806329a2644514611d54578063313ce56714611d395780633f4ba83a14611cb25780634815327914611c7d578063481c6a7514611c555780634915a85814611bd65780634f1ef286146119c557806352d1902d1461195f578063532e20b51461192e5780635985aa91146119115780635c975abb146118e35780635caa814f146118c957806360df7c6c146118155780636d1b7711146117f857806370a08231146117b45780637229bc3c1461151a57806373a3387714611413578063792fbf3b146113bc5780637bf42165146113995780637f98aa71146113225780638456cb59146112a85780638db5888a1461128b57806395082d251461126457806395d89b4114611176578063992a7dfb14611108578063a287417214610f13578063a747f07214610ef3578063a9059cbb14610ec2578063ad3cb1cc14610e7f578063adcc40cb14610e62578063ae7e8d8114610df2578063b3b8a99414610dd5578063bf97780e146107d1578063c45a0155146107aa578063ca1d4dbf1461078d578063cb4b687a1461076f578063d0ebdbe714610700578063d18d944b14610676578063dd62ed3e1461062f578063e16b03a314610615578063e3992fc0146103c5578063f34d4c63146102e9578063f4a0877f146102cc578063fb3dd95f146102815763fb86a40414610260575f80fd5b3461027d575f36600319011261027d576020600254604051908152f35b5f80fd5b3461027d57602036600319011261027d5760206102c461029f6128e8565b6102be6102aa6129cf565b6102b86005546004356125c6565b926125c6565b906125d9565b604051908152f35b3461027d575f36600319011261027d576020600354604051908152f35b3461027d57602036600319011261027d576004356103056126f6565b50600b548110156103b6575f52600960205260c060405f2060ff60056040519261032e84612441565b60018060a01b03815416845260018101546020850152600281015460408501526003810154606085015260048101546080850152015416151560a08201526103b4604051809260a08091600180831b0381511684526020810151602085015260408101516040850152606081015160608501526080810151608085015201511515910152565bf35b632589d98f60e11b5f5260045ffd5b3461027d57602036600319011261027d576001600160a01b036103e6612415565b165f52600a60205260405f20604051808260208294549384815201905f5260205f20925f5b8181106105fc5750506104209250038261245d565b5f5f5b825181101561046b5761043681846126ca565b515f52600960205260ff600560405f2001541615610457575b600101610423565b906104636001916125ab565b91905061044f565b50610475816126de565b90610483604051928361245d565b808252610492601f19916126de565b015f5b8181106105e55750505f905f5b835181101561055a576104b581856126ca565b51805f52600960205260ff600560405f20015416156104d8575b506001016104a2565b60019193610553915f52600960205260405f2060ff6005604051926104fc84612441565b868060a01b038154168452868101546020850152600281015460408501526003810154606085015260048101546080850152015416151560a082015261054282866126ca565b5261054d81856126ca565b506125ab565b92906104cf565b506040518091602082016020835281518091526020604084019201905f5b818110610586575050500390f35b91935091602060c0826105d7600194885160a08091600180831b0381511684526020810151602085015260408101516040850152606081015160608501526080810151608085015201511515910152565b019401910191849392610578565b6020906105f06126f6565b82828601015201610495565b845483526001948501948694506020909301920161040b565b3461027d575f36600319011261027d5760206102c4612662565b3461027d57604036600319011261027d57610648612415565b61065961065361242b565b91612612565b9060018060a01b03165f52602052602060405f2054604051908152f35b3461027d57602036600319011261027d575f54600435906001600160a01b031633036106f1575f516020612b055f395f51905f525481106106e2576020817f917681cdf3d8a5ef720fb56128d5382782db742feb1d89fc6d376111254537b192600255604051908152a1005b631a683d1960e11b5f5260045ffd5b631dd2188d60e31b5f5260045ffd5b3461027d57602036600319011261027d57610719612415565b5f546001600160a01b031633036106f157600180546001600160a01b0319166001600160a01b039290921691821790557f60a0f5b9f9e81e98216071b85826681c796256fe3d1354ecb675580fba64fa695f80a2005b3461027d575f36600319011261027d5760206040516305f5e1008152f35b3461027d575f36600319011261027d576020600d54604051908152f35b3461027d575f36600319011261027d575f546040516001600160a01b039091168152602090f35b3461027d5761010036600319011261027d5760043567ffffffffffffffff811161027d576108039036906004016124d1565b60243567ffffffffffffffff811161027d576108239036906004016124d1565b6044356001600160a01b0381169081900361027d576084356001600160a01b0381169081900361027d5760c4359260e4356001600160a01b038116919082900361027d575f516020612b855f395f51905f52549560ff8760401c16159667ffffffffffffffff811680159081610dcd575b6001149081610dc3575b159081610dba575b50610dab5767ffffffffffffffff1981166001175f516020612b855f395f51905f525587610d7f575b506108d8612a1b565b6108e0612a1b565b80519067ffffffffffffffff8211610c6857819061090b5f516020612aa55f395f51905f5254612573565b601f8111610d05575b50602090601f8311600114610c87575f92610c7c575b50508160011b915f199060031b1c1916175f516020612aa55f395f51905f52555b80519067ffffffffffffffff8211610c685781906109765f516020612ae55f395f51905f5254612573565b601f8111610bee575b50602090601f8311600114610b70575f92610b65575b50508160011b915f199060031b1c1916175f516020612ae55f395f51905f52555b6109be612a1b565b6109c6612a1b565b6109ce612a1b565b60015f516020612b655f395f51905f52556109e7612a1b565b8015610b56576001600160601b0360a01b600854161760085560045490806001600160601b0360a01b83161760045560405163313ce56760e01b8152602081600481855afa908115610b4b575f91610b0f575b5060ff60a01b9060a01b16916affffffffffffffffffffff60a81b161717600455336001600160601b0360a01b5f5416175f556001600160601b0360a01b600154161760015560643560025580155f14610b0a57506c0c9f2c9cd04674edea400000005b60055560a435600755610e10600655610ab357005b68ff0000000000000000195f516020612b855f395f51905f5254165f516020612b855f395f51905f52557fc7f505b2f371ae2175ee4913f4499e1f2633a7b5936321eed1cdaeb6115181d2602060405160018152a1005b610a9e565b90506020813d602011610b43575b81610b2a6020938361245d565b8101031261027d575160ff8116810361027d5786610a3a565b3d9150610b1d565b6040513d5f823e3d90fd5b6352cc3f7d60e01b5f5260045ffd5b015190508780610995565b5f516020612ae55f395f51905f525f9081528281209350601f198516905b818110610bd65750908460019594939210610bbe575b505050811b015f516020612ae55f395f51905f52556109b6565b01515f1960f88460031b161c19169055878080610ba4565b92936020600181928786015181550195019301610b8e565b5f516020612ae55f395f51905f525f529091507f46a2803e59a4de4e7a4c574b1243f25977ac4c77d5a1a4a609b5394cebb4a2aa601f840160051c81019160208510610c5e575b90601f859493920160051c01905b818110610c50575061097f565b5f8155849350600101610c43565b9091508190610c35565b634e487b7160e01b5f52604160045260245ffd5b01519050888061092a565b5f516020612aa55f395f51905f525f9081528281209350601f198516905b818110610ced5750908460019594939210610cd5575b505050811b015f516020612aa55f395f51905f525561094b565b01515f1960f88460031b161c19169055888080610cbb565b92936020600181928786015181550195019301610ca5565b5f516020612aa55f395f51905f525f529091507f2ae08a8e29253f69ac5d979a101956ab8f8d9d7ded63fa7a83b16fc47648eab0601f840160051c81019160208510610d75575b90601f859493920160051c01905b818110610d675750610914565b5f8155849350600101610d5a565b9091508190610d4c565b68ffffffffffffffffff191668010000000000000001175f516020612b855f395f51905f5255876108cf565b63f92ee8a960e01b5f5260045ffd5b905015896108a6565b303b15915061089e565b899150610894565b3461027d575f36600319011261027d576020600654604051908152f35b3461027d57602036600319011261027d575f54600435906001600160a01b031633036106f1578015610e54576040817f945c1c4e99aa89f648fbfe3df471b916f719e16d960fcec0737d4d56bd696838926005558151908152426020820152a1005b62bfc92160e01b5f5260045ffd5b3461027d575f36600319011261027d576020600554604051908152f35b3461027d575f36600319011261027d57610ebe604051610ea060408261245d565b60058152640352e302e360dc1b6020820152604051918291826123eb565b0390f35b3461027d57604036600319011261027d57610ee8610ede612415565b6024359033612813565b602060405160018152f35b3461027d575f36600319011261027d576020600754421015604051908152f35b3461027d57602036600319011261027d57600435610f2f612726565b610f3761275e565b80156110f957610f6b610f62610f4b6128e8565b610f5d610f566129cf565b91856125c6565b6125c6565b600554906125d9565b60025480151590816110d8575b506110c957600480546040516323b872dd60e01b8152339281019290925230602483015260448201849052602090829060649082905f906001600160a01b03165af18015610b4b5761109c575b50331561108957602091610fe7825f516020612b055f395f51905f52546124ef565b5f516020612b055f395f51905f5255335f525f516020612ac55f395f51905f52835260405f208281540190556040518281525f7fddf252ad1be2c89b69c2b068fc378daa952ba7f163c4a11628f55a4df523b3ef853393a360405190815281838201527f1cbc5ab135991bd2b6a4b034a04aa2aa086dac1371cb9b16b8b5e2ed6b036bed60403392a260015f516020612b655f395f51905f5255604051908152f35b63ec442f0560e01b5f525f60045260245ffd5b6110bd9060203d6020116110c2575b6110b5818361245d565b81019061264a565b610fc5565b503d6110ab565b631c4af3c960e11b5f5260045ffd5b90506110f2825f516020612b055f395f51905f52546124ef565b1183610f78565b63162908e360e11b5f5260045ffd5b3461027d57602036600319011261027d576004355f52600960205260c060405f2060018060a01b0381541690600181015490600281015460038201549060ff6005600485015494015416936040519586526020860152604085015260608401526080830152151560a0820152f35b3461027d575f36600319011261027d576040515f5f516020612ae55f395f51905f52546111a281612573565b808452906001811690811561124057506001146111d6575b610ebe836111ca8185038261245d565b604051918291826123eb565b5f516020612ae55f395f51905f525f9081527f46a2803e59a4de4e7a4c574b1243f25977ac4c77d5a1a4a609b5394cebb4a2aa939250905b808210611226575090915081016020016111ca6111ba565b91926001816020925483858801015201910190929161120e565b60ff191660208086019190915291151560051b840190910191506111ca90506111ba565b3461027d575f36600319011261027d5760206040516c0c9f2c9cd04674edea400000008152f35b3461027d575f36600319011261027d576020600b54604051908152f35b3461027d575f36600319011261027d575f546001600160a01b031633036106f1576112d161275e565b600160ff195f516020612b455f395f51905f525416175f516020612b455f395f51905f52557f62e78cea01bee320cd4e420270b5ea74000d11b0c9f74754ebdbfc544b05a2586020604051338152a1005b3461027d575f36600319011261027d5761010061133d6128e8565b6113456124fc565b9061134e612662565b90600354905f516020612b055f395f51905f5254600254906005549360075495604051978852602088015260408701526060860152608085015260a084015260c083015260e0820152f35b3461027d575f36600319011261027d57602060ff60045460a01c16604051908152f35b3461027d57602036600319011261027d575f54600435906001600160a01b031633036106f1576020817f416fcf16acb00f8607906e6ef2dc1a381d4bf32971ab1c3d2f73e4160718df4892600755604051908152a1005b3461027d57602036600319011261027d57600154600435906001600160a01b031633036106f157611442612726565b61144a61275e565b80156110f957600354818181106115095750505f6003555b600480546040516323b872dd60e01b8152339281019290925230602483015260448201839052909190602090839060649082905f906001600160a01b03165af1908115610b4b577fc9f7a13e1c4c85a54db88e66f7e4e45fd1c96aa33d720e0c7d737d2fe0c35589926020926114ee575b50604051908152a160015f516020612b655f395f51905f5255005b61150490833d85116110c2576110b5818361245d565b6114d3565b611512916125b9565b600355611462565b3461027d57602036600319011261027d57600435611536612726565b61153e61275e565b80156110f957335f525f516020612ac55f395f51905f526020528060405f2054106117a55760075442106117965761158e6115776128e8565b6102be6115826129cf565b6102b8600554866125c6565b90331561178357335f525f516020612ac55f395f51905f5260205260405f205481811061176a578190335f525f516020612ac55f395f51905f526020520360405f2055805f516020612b055f395f51905f5254035f516020612b055f395f51905f52555f6040518281527fddf252ad1be2c89b69c2b068fc378daa952ba7f163c4a11628f55a4df523b3ef60203392a3600b549060405161162e81612441565b338152600560208201918383526040810186815260608201428152608083019187835260a08401955f8752885f52600960205260405f209460018060a01b039051166001600160601b0360a01b865416178555516001850155516002840155516003830155516004820155019051151560ff80198354169116179055335f52600a60205260405f209283549368010000000000000000851015610c68576001850180825585101561175657838092816020977f20f7dfd9f0abf903e86253c3c8003c824588449e922c1950794a7e95482fde9f945f52885f200155611714600b546125ab565b600b55611722600d546125ab565b600d556040805195865260208601919091528401523392606090a360015f516020612b655f395f51905f5255604051908152f35b634e487b7160e01b5f52603260045260245ffd5b63391434e360e21b5f523360045260245260445260645ffd5b634b637e8f60e11b5f525f60045260245ffd5b63326d51b360e21b5f5260045ffd5b637035ce0760e01b5f5260045ffd5b3461027d57602036600319011261027d576001600160a01b036117d5612415565b165f525f516020612ac55f395f51905f52602052602060405f2054604051908152f35b3461027d575f36600319011261027d576020600754604051908152f35b3461027d57602036600319011261027d576001600160a01b03611836612415565b165f52600a60205260405f20604051806020835491828152019081935f5260205f20905f5b8181106118b3575050508161187191038261245d565b604051918291602083019060208452518091526040830191905f5b81811061189a575050500390f35b825184528594506020938401939092019160010161188c565b825484526020909301926001928301920161185b565b3461027d575f36600319011261027d5760206102c46125f7565b3461027d575f36600319011261027d57602060ff5f516020612b455f395f51905f5254166040519015158152f35b3461027d575f36600319011261027d576020600c54604051908152f35b3461027d575f36600319011261027d57600c54600b54600d5460408051938452602084019290925290820152606090f35b3461027d575f36600319011261027d577f00000000000000000000000000000000000000000000000000000000000000006001600160a01b031630036119b65760206040515f516020612b255f395f51905f528152f35b63703e46dd60e11b5f5260045ffd5b604036600319011261027d576119d9612415565b60243567ffffffffffffffff811161027d573660238201121561027d57611a0a90369060248160040135910161249b565b6001600160a01b037f000000000000000000000000000000000000000000000000000000000000000016308114908115611bb4575b506119b6575f546001600160a01b031633036106f1576040516352d1902d60e01b81526001600160a01b0383169290602081600481875afa5f9181611b80575b50611a975783634c9c8ce360e01b5f5260045260245ffd5b805f516020612b255f395f51905f52859203611b6e5750813b15611b5c575f516020612b255f395f51905f5280546001600160a01b031916821790557fbc7cd75a20ee27fd9adebab32041f755214dbc6bffa90cc0225b39da2e5c2d3b5f80a2815115611b44575f80836020611b3a95519101845af43d15611b3c573d91611b1e8361247f565b92611b2c604051948561245d565b83523d5f602085013e612a46565b005b606091612a46565b505034611b4d57005b63b398979f60e01b5f5260045ffd5b634c9c8ce360e01b5f5260045260245ffd5b632a87526960e21b5f5260045260245ffd5b9091506020813d602011611bac575b81611b9c6020938361245d565b8101031261027d57519085611a7f565b3d9150611b8f565b5f516020612b255f395f51905f52546001600160a01b03161415905083611a3f565b3461027d57602036600319011261027d575f54600435906001600160a01b031633036106f15780151580611c48575b15611c0f57600655005b60405162461bcd60e51b8152602060048201526011602482015270125b9d985b1a59081d1a1c995cda1bdb19607a1b6044820152606490fd5b5062093a80811115611c05565b3461027d575f36600319011261027d576001546040516001600160a01b039091168152602090f35b3461027d57602036600319011261027d5760206102c4610f62611c9e6128e8565b610f5d611ca96129cf565b916004356125c6565b3461027d575f36600319011261027d575f546001600160a01b031633036106f1575f516020612b455f395f51905f525460ff811615611d2a5760ff19165f516020612b455f395f51905f52557f5db9ee0a495bf2e6ff9c91a7834c1ba4fdd244a5e8aa4e537bd38aeae4b073aa6020604051338152a1005b638dfc202b60e01b5f5260045ffd5b3461027d575f36600319011261027d57602060405160128152f35b3461027d57602036600319011261027d57600435611d70612726565b611d7861275e565b6001546001600160a01b031633036106f1575f5f918015612042576024602060018060a01b0360045416604051928380926370a0823160e01b82523060048301525afa908115610b4b575f91612010575b5092909192600c5491825b600b54811080612007575b15611ffc57805f52600960205260405f2090600582019360ff855416611fee57600283018054909590808310611ecb576004548554611e5994611e539490939092611e36926001600160a01b039081169116612785565b600160ff19825416179055611e4d875480926125b9565b956124ef565b976125ab565b93600d548015611eb7575f1901600d5591549154604051908152611eae926001600160a01b03169082907fa6f8d99476ac27e3ad3ba71b521ed76898081c2e37dfe7bbc219456306b8b07090602090a36125ab565b94909194611dd4565b634e487b7160e01b5f52601160045260245ffd5b505050505091939250505b81611f38575b7f59d088174aee33f5ff817f6507a076513b43d5b623c805aaca6d79677742f6e76080604094600c54865191825260208201528486820152836060820152a160015f516020612b655f395f51905f525582519182526020820152f35b90600c545b600b549081811015611fc057805f52600960205260ff600560405f2001541615611f87575f19820191808311611eb7576001928214611f7e575b5001611f3d565b600c5585611f77565b7f59d088174aee33f5ff817f6507a076513b43d5b623c805aaca6d79677742f6e79150604094608091600c959495555b94505050611edc565b5050907f59d088174aee33f5ff817f6507a076513b43d5b623c805aaca6d79677742f6e76080604094611fb7565b92969350611eae91506125ab565b509193925050611ed6565b50848610611ddf565b90506020813d60201161203a575b8161202b6020938361245d565b8101031261027d575184611dc9565b3d915061201e565b637862e95960e01b5f5260045ffd5b3461027d57606036600319011261027d5761206a612415565b61207261242b565b6044359061207f83612612565b335f9081526020919091526040902054925f1984106120a3575b610ee89350612813565b82841061210e576001600160a01b038116156120fb5733156120e857610ee8936120cc82612612565b60018060a01b0333165f526020528360405f2091039055612099565b634a1406b160e11b5f525f60045260245ffd5b63e602df0560e01b5f525f60045260245ffd5b8284637dc7a0d960e11b5f523360045260245260445260645ffd5b3461027d575f36600319011261027d5760205f516020612b055f395f51905f5254604051908152f35b3461027d57604036600319011261027d5761216b612415565b60015460243591906001600160a01b031633036106f15761218a612726565b61219261275e565b81156110f957600480546040516370a0823160e01b815230928101929092526001600160a01b031690602081602481855afa908115610b4b575f9161223b575b5083116110f95781612217847f9c7d81f5c562ad9c8121c58f01611d162a1a92cd745d05620728cbf3b497d9469460209461220f836003546124ef565b600355612785565b6040519384526001600160a01b031692a260015f516020612b655f395f51905f5255005b90506020813d602011612265575b816122566020938361245d565b8101031261027d5751846121d2565b3d9150612249565b3461027d57604036600319011261027d57612286612415565b6024359033156120fb576001600160a01b03169081156120e8576122a933612612565b825f526020528060405f20556040519081527f8c5be1e5ebec7d5bd14f71427d1e84f3dd0314c0f7b2291e5b200ac8c7c3b92560203392a3602060405160018152f35b3461027d575f36600319011261027d576040515f5f516020612aa55f395f51905f525461231881612573565b8084529060018116908115611240575060011461233f57610ebe836111ca8185038261245d565b5f516020612aa55f395f51905f525f9081527f2ae08a8e29253f69ac5d979a101956ab8f8d9d7ded63fa7a83b16fc47648eab0939250905b80821061238f575090915081016020016111ca6111ba565b919260018160209254838588010152019101909291612377565b3461027d575f36600319011261027d576004546040516001600160a01b039091168152602090f35b3461027d575f36600319011261027d5760206102c46124fc565b602060409281835280519182918282860152018484015e5f828201840152601f01601f1916010190565b600435906001600160a01b038216820361027d57565b602435906001600160a01b038216820361027d57565b60c0810190811067ffffffffffffffff821117610c6857604052565b90601f8019910116810190811067ffffffffffffffff821117610c6857604052565b67ffffffffffffffff8111610c6857601f01601f191660200190565b9291926124a78261247f565b916124b5604051938461245d565b82948184528183011161027d578281602093845f960137010152565b9080601f8301121561027d578160206124ec9335910161249b565b90565b91908201809211611eb757565b6024602060018060a01b0360045416604051928380926370a0823160e01b82523060048301525afa8015610b4b575f9061253f575b6124ec9150600354906124ef565b506020813d60201161256b575b816125596020938361245d565b8101031261027d576124ec9051612531565b3d915061254c565b90600182811c921680156125a1575b602083101461258d57565b634e487b7160e01b5f52602260045260245ffd5b91607f1691612582565b5f198114611eb75760010190565b91908203918211611eb757565b81810292918115918404141715611eb757565b81156125e3570490565b634e487b7160e01b5f52601260045260245ffd5b6007548042101561260d576124ec9042906125b9565b505f90565b6001600160a01b03165f9081527f52c63247e1f47db19d5ce0460030c497f067ca4cebf71ba98eeadabe20bace016020526040902090565b9081602091031261027d5751801515810361027d5790565b6024602060018060a01b0360045416604051928380926370a0823160e01b82523060048301525afa908115610b4b575f9161269b575090565b90506020813d6020116126c2575b816126b66020938361245d565b8101031261027d575190565b3d91506126a9565b80518210156117565760209160051b010190565b67ffffffffffffffff8111610c685760051b60200190565b6040519061270382612441565b5f60a0838281528260208201528260408201528260608201528260808201520152565b60025f516020612b655f395f51905f52541461274f5760025f516020612b655f395f51905f5255565b633ee5aeb560e01b5f5260045ffd5b60ff5f516020612b455f395f51905f52541661277657565b63d93c066560e01b5f5260045ffd5b60405163a9059cbb60e01b60208281019182526001600160a01b03909416602483015260448083019590955293815290925f916127c360648261245d565b519082855af115610b4b575f513d61280a57506001600160a01b0381163b155b6127ea5750565b635274afe760e01b5f9081526001600160a01b0391909116600452602490fd5b600114156127e3565b6001600160a01b0316908115611783576001600160a01b031691821561108957815f525f516020612ac55f395f51905f5260205260405f20548181106128b857817fddf252ad1be2c89b69c2b068fc378daa952ba7f163c4a11628f55a4df523b3ef92602092855f525f516020612ac55f395f51905f5284520360405f2055845f525f516020612ac55f395f51905f52825260405f20818154019055604051908152a3565b8263391434e360e21b5f5260045260245260445260645ffd5b519069ffffffffffffffffffff8216820361027d57565b600854604051633fabe5a360e21b81529060a090829060049082906001600160a01b03165afa908115610b4b575f915f925f925f92612979575b505f84131561296a57821561295b5769ffffffffffffffffffff80911691161061295b5761295090426125b9565b6006541061295b5790565b630cd5fa0760e11b5f5260045ffd5b638002905d60e01b5f5260045ffd5b935050505060a0813d60a0116129c7575b8161299760a0938361245d565b8101031261027d576129a8816128d1565b60208201516129be6080606085015194016128d1565b9092915f612922565b3d915061298a565b60ff60045460a01c16604d8111611eb757600a0a6305f5e1008102908082046305f5e1001490151715611eb75780156125e35773af298d050e4395d69670b12b7f410000000000000490565b60ff5f516020612b855f395f51905f525460401c1615612a3757565b631afcd79f60e31b5f5260045ffd5b90612a6a5750805115612a5b57602081519101fd5b63d6bda27560e01b5f5260045ffd5b81511580612a9b575b612a7b575090565b639996b31560e01b5f9081526001600160a01b0391909116600452602490fd5b50803b15612a7356fe52c63247e1f47db19d5ce0460030c497f067ca4cebf71ba98eeadabe20bace0352c63247e1f47db19d5ce0460030c497f067ca4cebf71ba98eeadabe20bace0052c63247e1f47db19d5ce0460030c497f067ca4cebf71ba98eeadabe20bace0452c63247e1f47db19d5ce0460030c497f067ca4cebf71ba98eeadabe20bace02360894a13ba1a3210667c828492db98dca3e2076cc3735a920a3ca505d382bbccd5ed15c6e187e77e9aee88184c21f4f2182ab5827cb3b7e07fbedcd63f033009b779b17422d0df92223018b32b4d1fa46e071723d6817e2486d003becc55f00f0c57e16840df040f15088dc2f81fe391c3923bec73e23a9662efc9c229c6a00a2646970667358221220b7dd2eccfde2d71426aac794733697fc51c30e950a8f4552be8487e8bbf1b87d64736f6c634300081e0033f0c57e16840df040f15088dc2f81fe391c3923bec73e23a9662efc9c229c6a00","linkReferences":{}},"methodIdentifiers":{"CHAINLINK_PRICE_PRECISION()":"cb4b687a","PRICE_PRECISION()":"95082d25","UPGRADE_INTERFACE_VERSION()":"ad3cb1cc","allowance(address,address)":"dd62ed3e","approve(address,uint256)":"095ea7b3","balanceOf(address)":"70a08231","canRedeemNow()":"a747f072","decimals()":"313ce567","depositManagedAssets(uint256)":"73a33877","depositYT(uint256)":"a2874172","factory()":"c45a0155","getPendingRequestsCount()":"188c26cc","getQueueProgress()":"532e20b5","getRequestDetails(uint256)":"f34d4c63","getTimeUntilNextRedemption()":"5caa814f","getUserPendingRequests(address)":"e3992fc0","getUserRequestIds(address)":"60df7c6c","getVaultInfo()":"7f98aa71","hardCap()":"fb86a404","idleAssets()":"e16b03a3","initialize(string,string,address,uint256,address,uint256,uint256,address)":"bf97780e","managedAssets()":"f4a0877f","manager()":"481c6a75","name()":"06fdde03","nextRedemptionTime()":"6d1b7711","pause()":"8456cb59","paused()":"5c975abb","pendingRequestsCount()":"ca1d4dbf","previewBuy(uint256)":"48153279","previewSell(uint256)":"fb3dd95f","priceStalenesThreshold()":"b3b8a994","processBatchWithdrawals(uint256)":"29a26445","processedUpToIndex()":"5985aa91","proxiableUUID()":"52d1902d","requestIdCounter()":"8db5888a","setHardCap(uint256)":"d18d944b","setManager(address)":"d0ebdbe7","setNextRedemptionTime(uint256)":"792fbf3b","setPriceStalenessThreshold(uint256)":"4915a858","symbol()":"95d89b41","totalAssets()":"01e1d114","totalSupply()":"18160ddd","transfer(address,uint256)":"a9059cbb","transferFrom(address,address,uint256)":"23b872dd","unpause()":"3f4ba83a","updatePrices(uint256)":"ae7e8d81","upgradeToAndCall(address,bytes)":"4f1ef286","usdcAddress()":"02d45457","usdcDecimals()":"7bf42165","withdrawForManagement(address,uint256)":"11a270cc","withdrawRequests(uint256)":"992a7dfb","withdrawYT(uint256)":"7229bc3c","ytPrice()":"adcc40cb"},"id":23}