{"abi":[{"type":"constructor","inputs":[],"stateMutability":"nonpayable"},{"type":"function","name":"BASIS_POINTS_DIVISOR","inputs":[],"outputs":[{"name":"","type":"uint256","internalType":"uint256"}],"stateMutability":"view"},{"type":"function","name":"MAX_SPREAD_BASIS_POINTS","inputs":[],"outputs":[{"name":"","type":"uint256","internalType":"uint256"}],"stateMutability":"view"},{"type":"function","name":"PRICE_PRECISION","inputs":[],"outputs":[{"name":"","type":"uint256","internalType":"uint256"}],"stateMutability":"view"},{"type":"function","name":"UPGRADE_INTERFACE_VERSION","inputs":[],"outputs":[{"name":"","type":"string","internalType":"string"}],"stateMutability":"view"},{"type":"function","name":"forceUpdatePrice","inputs":[{"name":"_token","type":"address","internalType":"address"},{"name":"_price","type":"uint256","internalType":"uint256"}],"outputs":[],"stateMutability":"nonpayable"},{"type":"function","name":"getMaxPrice","inputs":[{"name":"_token","type":"address","internalType":"address"}],"outputs":[{"name":"","type":"uint256","internalType":"uint256"}],"stateMutability":"view"},{"type":"function","name":"getMinPrice","inputs":[{"name":"_token","type":"address","internalType":"address"}],"outputs":[{"name":"","type":"uint256","internalType":"uint256"}],"stateMutability":"view"},{"type":"function","name":"getPrice","inputs":[{"name":"_token","type":"address","internalType":"address"},{"name":"_maximise","type":"bool","internalType":"bool"}],"outputs":[{"name":"","type":"uint256","internalType":"uint256"}],"stateMutability":"view"},{"type":"function","name":"getPriceInfo","inputs":[{"name":"_token","type":"address","internalType":"address"}],"outputs":[{"name":"currentPrice","type":"uint256","internalType":"uint256"},{"name":"cachedPrice","type":"uint256","internalType":"uint256"},{"name":"maxPrice","type":"uint256","internalType":"uint256"},{"name":"minPrice","type":"uint256","internalType":"uint256"},{"name":"spread","type":"uint256","internalType":"uint256"}],"stateMutability":"view"},{"type":"function","name":"gov","inputs":[],"outputs":[{"name":"","type":"address","internalType":"address"}],"stateMutability":"view"},{"type":"function","name":"initialize","inputs":[{"name":"_usdcAddress","type":"address","internalType":"address"},{"name":"_usdcPriceFeed","type":"address","internalType":"address"}],"outputs":[],"stateMutability":"nonpayable"},{"type":"function","name":"isKeeper","inputs":[{"name":"","type":"address","internalType":"address"}],"outputs":[{"name":"","type":"bool","internalType":"bool"}],"stateMutability":"view"},{"type":"function","name":"lastPrice","inputs":[{"name":"","type":"address","internalType":"address"}],"outputs":[{"name":"","type":"uint256","internalType":"uint256"}],"stateMutability":"view"},{"type":"function","name":"maxPriceChangeBps","inputs":[],"outputs":[{"name":"","type":"uint256","internalType":"uint256"}],"stateMutability":"view"},{"type":"function","name":"priceStalenesThreshold","inputs":[],"outputs":[{"name":"","type":"uint256","internalType":"uint256"}],"stateMutability":"view"},{"type":"function","name":"proxiableUUID","inputs":[],"outputs":[{"name":"","type":"bytes32","internalType":"bytes32"}],"stateMutability":"view"},{"type":"function","name":"setKeeper","inputs":[{"name":"_keeper","type":"address","internalType":"address"},{"name":"_isActive","type":"bool","internalType":"bool"}],"outputs":[],"stateMutability":"nonpayable"},{"type":"function","name":"setMaxPriceChangeBps","inputs":[{"name":"_maxPriceChangeBps","type":"uint256","internalType":"uint256"}],"outputs":[],"stateMutability":"nonpayable"},{"type":"function","name":"setPriceStalenessThreshold","inputs":[{"name":"_threshold","type":"uint256","internalType":"uint256"}],"outputs":[],"stateMutability":"nonpayable"},{"type":"function","name":"setSpreadBasisPoints","inputs":[{"name":"_token","type":"address","internalType":"address"},{"name":"_spreadBasisPoints","type":"uint256","internalType":"uint256"}],"outputs":[],"stateMutability":"nonpayable"},{"type":"function","name":"setSpreadBasisPointsForMultiple","inputs":[{"name":"_tokens","type":"address[]","internalType":"address[]"},{"name":"_spreadBasisPoints","type":"uint256[]","internalType":"uint256[]"}],"outputs":[],"stateMutability":"nonpayable"},{"type":"function","name":"setUSDCAddress","inputs":[{"name":"_usdcAddress","type":"address","internalType":"address"}],"outputs":[],"stateMutability":"nonpayable"},{"type":"function","name":"setUSDCPriceFeed","inputs":[{"name":"_usdcPriceFeed","type":"address","internalType":"address"}],"outputs":[],"stateMutability":"nonpayable"},{"type":"function","name":"spreadBasisPoints","inputs":[{"name":"","type":"address","internalType":"address"}],"outputs":[{"name":"","type":"uint256","internalType":"uint256"}],"stateMutability":"view"},{"type":"function","name":"updatePrice","inputs":[{"name":"_token","type":"address","internalType":"address"}],"outputs":[{"name":"","type":"uint256","internalType":"uint256"}],"stateMutability":"nonpayable"},{"type":"function","name":"upgradeToAndCall","inputs":[{"name":"newImplementation","type":"address","internalType":"address"},{"name":"data","type":"bytes","internalType":"bytes"}],"outputs":[],"stateMutability":"payable"},{"type":"function","name":"usdcAddress","inputs":[],"outputs":[{"name":"","type":"address","internalType":"address"}],"stateMutability":"view"},{"type":"event","name":"Initialized","inputs":[{"name":"version","type":"uint64","indexed":false,"internalType":"uint64"}],"anonymous":false},{"type":"event","name":"KeeperSet","inputs":[{"name":"keeper","type":"address","indexed":true,"internalType":"address"},{"name":"isActive","type":"bool","indexed":false,"internalType":"bool"}],"anonymous":false},{"type":"event","name":"PriceUpdate","inputs":[{"name":"token","type":"address","indexed":true,"internalType":"address"},{"name":"oldPrice","type":"uint256","indexed":false,"internalType":"uint256"},{"name":"newPrice","type":"uint256","indexed":false,"internalType":"uint256"},{"name":"timestamp","type":"uint256","indexed":false,"internalType":"uint256"}],"anonymous":false},{"type":"event","name":"SpreadUpdate","inputs":[{"name":"token","type":"address","indexed":true,"internalType":"address"},{"name":"spreadBps","type":"uint256","indexed":false,"internalType":"uint256"}],"anonymous":false},{"type":"event","name":"Upgraded","inputs":[{"name":"implementation","type":"address","indexed":true,"internalType":"address"}],"anonymous":false},{"type":"error","name":"AddressEmptyCode","inputs":[{"name":"target","type":"address","internalType":"address"}]},{"type":"error","name":"ERC1967InvalidImplementation","inputs":[{"name":"implementation","type":"address","internalType":"address"}]},{"type":"error","name":"ERC1967NonPayable","inputs":[]},{"type":"error","name":"FailedCall","inputs":[]},{"type":"error","name":"Forbidden","inputs":[]},{"type":"error","name":"InvalidAddress","inputs":[]},{"type":"error","name":"InvalidChainlinkPrice","inputs":[]},{"type":"error","name":"InvalidInitialization","inputs":[]},{"type":"error","name":"MaxChangeTooHigh","inputs":[]},{"type":"error","name":"NotInitializing","inputs":[]},{"type":"error","name":"PriceChangeTooLarge","inputs":[]},{"type":"error","name":"SpreadTooHigh","inputs":[]},{"type":"error","name":"StalePrice","inputs":[]},{"type":"error","name":"UUPSUnauthorizedCallContext","inputs":[]},{"type":"error","name":"UUPSUnsupportedProxiableUUID","inputs":[{"name":"slot","type":"bytes32","internalType":"bytes32"}]}],"bytecode":{"object":"0x60a080604052346100c257306080525f5160206114155f395f51905f525460ff8160401c166100b3576002600160401b03196001600160401b03821601610060575b60405161134e90816100c782396080518181816107eb01526108bb0152f35b6001600160401b0319166001600160401b039081175f5160206114155f395f51905f525581527fc7f505b2f371ae2175ee4913f4499e1f2633a7b5936321eed1cdaeb6115181d290602090a15f80610041565b63f92ee8a960e01b5f5260045ffd5b5f80fdfe6080806040526004361015610012575f80fd5b5f3560e01c90816302d4545714610d11575080630957aed914610cf6578063126082cf14610cda57806312d43a5114610cb3578063485cc95514610afa5780634915a85814610a7b5780634f1ef2861461083f57806352d1902d146107d95780635d42fb6b14610750578063697cd71a146107335780636ba42aaa146106f657806376d69760146106dd57806381a612d6146106ba57806383daeb47146106775780638edbf436146105d957806395082d25146105b257806396e85ced1461055f5780639b889380146104e5578063a27ea386146104ad578063aaf5bfc31461044e578063ad3cb1cc146103f0578063b3b8a994146103d3578063c9e0c1061461027b578063d1b9e85314610207578063e124e6d2146101dc578063ed0df72b146101815763f5a6ba2e14610145575f80fd5b3461017d57602036600319011261017d576001600160a01b03610166610d34565b165f526006602052602060405f2054604051908152f35b5f80fd5b3461017d57602036600319011261017d5761019a610d34565b5f546001600160a01b031633036101cd57600480546001600160a01b0319166001600160a01b0392909216919091179055005b631dd2188d60e31b5f5260045ffd5b3461017d57602036600319011261017d5760206101ff6101fa610d34565b610f3f565b604051908152f35b3461017d5761021536610d9c565b5f549091906001600160a01b031633036101cd5760207f8dd62d4e1f60b96148552898e743aa2b571686baa26f4f1b647565dc3996c1a79160018060a01b031692835f526007825260405f209015159060ff1981541660ff8316179055604051908152a2005b3461017d57604036600319011261017d5760043567ffffffffffffffff811161017d576102ac903690600401610dcb565b60243567ffffffffffffffff811161017d576102cc903690600401610dcb565b5f549092906001600160a01b031633036101cd5782810361039c575f5b8181106102f257005b60c86102ff828686610f07565b351161038d57806103136001928686610f07565b35828060a01b0361032d61032884878b610f07565b610f2b565b165f52600560205260405f2055610348610328828589610f07565b7fdc57d8716d6b33bf807c6d4f1dd2addbf67960c73ada97819316dc745dfa11796020610376848989610f07565b3592604051938452858060a01b031692a2016102e9565b639821c0c960e01b5f5260045ffd5b60405162461bcd60e51b815260206004820152600f60248201526e0d8cadccee8d040dad2e6dac2e8c6d608b1b6044820152606490fd5b3461017d575f36600319011261017d576020600354604051908152f35b3461017d575f36600319011261017d57604080519061040f8183610d4a565b600582526020820191640352e302e360dc1b83528151928391602083525180918160208501528484015e5f828201840152601f01601f19168101030190f35b3461017d57602036600319011261017d57610467610d34565b5f546001600160a01b031633036101cd576001600160a01b0316801561049e576001600160601b0360a01b60015416176001555f80f35b63e6c4247b60e01b5f5260045ffd5b3461017d57602036600319011261017d576001600160a01b036104ce610d34565b165f526005602052602060405f2054604051908152f35b3461017d57604036600319011261017d576104fe610d34565b5f5460243591906001600160a01b031633036101cd5760c8821161038d5760207fdc57d8716d6b33bf807c6d4f1dd2addbf67960c73ada97819316dc745dfa11799160018060a01b031692835f52600582528060405f2055604051908152a2005b3461017d57602036600319011261017d57610578610d34565b335f52600760205260ff60405f205416158061059e575b6101cd576101ff602091610e79565b505f546001600160a01b031633141561058f565b3461017d575f36600319011261017d5760206040516c0c9f2c9cd04674edea400000008152f35b3461017d57602036600319011261017d576105f2610d34565b6001546001600160a01b038281169116810361063557505060a0610614610fbc565b5f8180805b6040519485526020850152604084015260608301526080820152f35b8161064160a0936110d2565b91805f52600660205260405f2054905f52600560205260405f2054916106718461066b81846111a3565b926111e3565b91610619565b3461017d57602036600319011261017d575f54600435906001600160a01b031633036101cd576107d081116106ab57600255005b63165376f560e21b5f5260045ffd5b3461017d57602036600319011261017d5760206101ff6106d8610d34565b610e3e565b3461017d5760206101ff6106f036610d9c565b90610dfc565b3461017d57602036600319011261017d576001600160a01b03610717610d34565b165f526007602052602060ff60405f2054166040519015158152f35b3461017d575f36600319011261017d576020600254604051908152f35b3461017d57604036600319011261017d57610769610d34565b5f5460243591906001600160a01b031633036101cd576001600160a01b03165f818152600660209081526040918290208054908590558251908152908101939093524290830152907f8647dab5101cbe18afb171756e9753802f9d66725bf2346b079b8b1a275e011690606090a2005b3461017d575f36600319011261017d577f00000000000000000000000000000000000000000000000000000000000000006001600160a01b031630036108305760206040515f5160206112d95f395f51905f528152f35b63703e46dd60e11b5f5260045ffd5b604036600319011261017d57610853610d34565b6024359067ffffffffffffffff821161017d573660238301121561017d5781600401359061088082610d80565b9161088e6040519384610d4a565b8083526020830193366024838301011161017d57815f926024602093018737840101526001600160a01b037f000000000000000000000000000000000000000000000000000000000000000016308114908115610a59575b50610830575f546001600160a01b031633036101cd576040516352d1902d60e01b81526001600160a01b0382169390602081600481885afa5f9181610a25575b5061093e5784634c9c8ce360e01b5f5260045260245ffd5b805f5160206112d95f395f51905f52869203610a135750823b15610a01575f5160206112d95f395f51905f5280546001600160a01b031916821790557fbc7cd75a20ee27fd9adebab32041f755214dbc6bffa90cc0225b39da2e5c2d3b5f80a28251156109e8575f80916109de945190845af43d156109e0573d916109c283610d80565b926109d06040519485610d4a565b83523d5f602085013e61127a565b005b60609161127a565b505050346109f257005b63b398979f60e01b5f5260045ffd5b634c9c8ce360e01b5f5260045260245ffd5b632a87526960e21b5f5260045260245ffd5b9091506020813d602011610a51575b81610a4160209383610d4a565b8101031261017d57519086610926565b3d9150610a34565b5f5160206112d95f395f51905f52546001600160a01b031614159050846108e6565b3461017d57602036600319011261017d575f54600435906001600160a01b031633036101cd5780151580610aed575b15610ab457600355005b60405162461bcd60e51b8152602060048201526011602482015270125b9d985b1a59081d1a1c995cda1bdb19607a1b6044820152606490fd5b5062093a80811115610aaa565b3461017d57604036600319011261017d57610b13610d34565b6024356001600160a01b0381169081900361017d575f5160206112f95f395f51905f52549060ff8260401c16159167ffffffffffffffff811680159081610cab575b6001149081610ca1575b159081610c98575b50610c895767ffffffffffffffff1981166001175f5160206112f95f395f51905f525582610c5d575b505f5160206112f95f395f51905f52549260ff8460401c1615610c4e576001600160a01b0316801561049e576001600160601b0360a01b60015416176001556001600160601b0360a01b6004541617600455336001600160601b0360a01b5f5416175f556101f4600255610e10600355610c0657005b68ff000000000000000019165f5160206112f95f395f51905f52557fc7f505b2f371ae2175ee4913f4499e1f2633a7b5936321eed1cdaeb6115181d2602060405160018152a1005b631afcd79f60e31b5f5260045ffd5b68ffffffffffffffffff191668010000000000000001175f5160206112f95f395f51905f525583610b90565b63f92ee8a960e01b5f5260045ffd5b90501585610b67565b303b159150610b5f565b849150610b55565b3461017d575f36600319011261017d575f546040516001600160a01b039091168152602090f35b3461017d575f36600319011261017d5760206040516127108152f35b3461017d575f36600319011261017d57602060405160c88152f35b3461017d575f36600319011261017d576001546001600160a01b03168152602090f35b600435906001600160a01b038216820361017d57565b90601f8019910116810190811067ffffffffffffffff821117610d6c57604052565b634e487b7160e01b5f52604160045260245ffd5b67ffffffffffffffff8111610d6c57601f01601f191660200190565b604090600319011261017d576004356001600160a01b038116810361017d5790602435801515810361017d5790565b9181601f8401121561017d5782359167ffffffffffffffff831161017d576020808501948460051b01011161017d57565b6001549091906001600160a01b03808416911614610e345781610e21610e31936110d2565b90610e2c8282611135565b61121b565b90565b5050610e31610fbc565b6001546001600160a01b03828116911614610e705780610e60610e31926110d2565b90610e6b8282611135565b6111e3565b50610e31610fbc565b6001546001600160a01b0382811691168114610e3457805f5260066020527f8647dab5101cbe18afb171756e9753802f9d66725bf2346b079b8b1a275e0116610f0160405f2054610ed3610ecc866110d2565b8096611135565b835f5260066020528460405f2055604051918291864291846040919493926060820195825260208201520152565b0390a290565b9190811015610f175760051b0190565b634e487b7160e01b5f52603260045260245ffd5b356001600160a01b038116810361017d5790565b6001546001600160a01b03828116911614610e705780610f61610e31926110d2565b90610f6c8282611135565b6111a3565b519069ffffffffffffffffffff8216820361017d57565b91908203918211610f9557565b634e487b7160e01b5f52601160045260245ffd5b81810292918115918404141715610f9557565b60048054604051633fabe5a360e21b81529160a09183919082906001600160a01b03165afa9081156110c7575f915f925f925f92611071575b505f8413156110625782156110535769ffffffffffffffffffff809116911610611053576110239042610f88565b600354106110535769021e19e0c9bab240000081029080820469021e19e0c9bab24000001490151715610f955790565b630cd5fa0760e11b5f5260045ffd5b638002905d60e01b5f5260045ffd5b935050505060a0813d60a0116110bf575b8161108f60a09383610d4a565b8101031261017d576110a081610f71565b60208201516110b6608060608501519401610f71565b9092915f610ff5565b3d9150611082565b6040513d5f823e3d90fd5b60405163adcc40cb60e01b815290602090829060049082906001600160a01b03165afa9081156110c7575f91611106575090565b90506020813d60201161112d575b8161112160209383610d4a565b8101031261017d575190565b3d9150611114565b6001600160a01b03165f9081526006602052604090205490811561119f5761117861271091838082115f1461118f5761116d91610f88565b925b60025490610fa9565b041061118057565b63a8eb64ed60e01b5f5260045ffd5b9061119991610f88565b9261116f565b5050565b6001600160a01b03165f9081526005602052604090205480156111df5761271001908161271011610f9557612710916111db91610fa9565b0490565b5090565b6001600160a01b03165f9081526005602052604090205480156111df5761271003906127108211610f9557612710916111db91610fa9565b6001600160a01b03165f9081526005602052604090205490918115611275571561125a5761271001908161271011610f9557612710916111db91610fa9565b61271003906127108211610f9557612710916111db91610fa9565b505090565b9061129e575080511561128f57602081519101fd5b63d6bda27560e01b5f5260045ffd5b815115806112cf575b6112af575090565b639996b31560e01b5f9081526001600160a01b0391909116600452602490fd5b50803b156112a756fe360894a13ba1a3210667c828492db98dca3e2076cc3735a920a3ca505d382bbcf0c57e16840df040f15088dc2f81fe391c3923bec73e23a9662efc9c229c6a00a26469706673582212205d5d343b024f3d2a4428357d90310f8c1e2d2cdab4ceae563c23d4b89c1c9db864736f6c634300081e0033f0c57e16840df040f15088dc2f81fe391c3923bec73e23a9662efc9c229c6a00","linkReferences":{}},"methodIdentifiers":{"BASIS_POINTS_DIVISOR()":"126082cf","MAX_SPREAD_BASIS_POINTS()":"0957aed9","PRICE_PRECISION()":"95082d25","UPGRADE_INTERFACE_VERSION()":"ad3cb1cc","forceUpdatePrice(address,uint256)":"5d42fb6b","getMaxPrice(address)":"e124e6d2","getMinPrice(address)":"81a612d6","getPrice(address,bool)":"76d69760","getPriceInfo(address)":"8edbf436","gov()":"12d43a51","initialize(address,address)":"485cc955","isKeeper(address)":"6ba42aaa","lastPrice(address)":"f5a6ba2e","maxPriceChangeBps()":"697cd71a","priceStalenesThreshold()":"b3b8a994","proxiableUUID()":"52d1902d","setKeeper(address,bool)":"d1b9e853","setMaxPriceChangeBps(uint256)":"83daeb47","setPriceStalenessThreshold(uint256)":"4915a858","setSpreadBasisPoints(address,uint256)":"9b889380","setSpreadBasisPointsForMultiple(address[],uint256[])":"c9e0c106","setUSDCAddress(address)":"aaf5bfc3","setUSDCPriceFeed(address)":"ed0df72b","spreadBasisPoints(address)":"a27ea386","updatePrice(address)":"96e85ced","upgradeToAndCall(address,bytes)":"4f1ef286","usdcAddress()":"02d45457"},"id":7}