{"abi":[{"type":"constructor","inputs":[],"stateMutability":"nonpayable"},{"type":"function","name":"UPGRADE_INTERFACE_VERSION","inputs":[],"outputs":[{"name":"","type":"string","internalType":"string"}],"stateMutability":"view"},{"type":"function","name":"addAsset","inputs":[{"name":"lendingProxy","type":"address","internalType":"address"},{"name":"assetConfig","type":"tuple","internalType":"struct LendingConfiguration.AssetConfig","components":[{"name":"asset","type":"address","internalType":"address"},{"name":"decimals","type":"uint8","internalType":"uint8"},{"name":"borrowCollateralFactor","type":"uint64","internalType":"uint64"},{"name":"liquidateCollateralFactor","type":"uint64","internalType":"uint64"},{"name":"liquidationFactor","type":"uint64","internalType":"uint64"},{"name":"supplyCap","type":"uint128","internalType":"uint128"}]}],"outputs":[],"stateMutability":"nonpayable"},{"type":"function","name":"configuratorParams","inputs":[{"name":"","type":"address","internalType":"address"}],"outputs":[{"name":"baseToken","type":"address","internalType":"address"},{"name":"lendingPriceSource","type":"address","internalType":"address"},{"name":"supplyKink","type":"uint64","internalType":"uint64"},{"name":"supplyPerYearInterestRateSlopeLow","type":"uint64","internalType":"uint64"},{"name":"supplyPerYearInterestRateSlopeHigh","type":"uint64","internalType":"uint64"},{"name":"supplyPerYearInterestRateBase","type":"uint64","internalType":"uint64"},{"name":"borrowKink","type":"uint64","internalType":"uint64"},{"name":"borrowPerYearInterestRateSlopeLow","type":"uint64","internalType":"uint64"},{"name":"borrowPerYearInterestRateSlopeHigh","type":"uint64","internalType":"uint64"},{"name":"borrowPerYearInterestRateBase","type":"uint64","internalType":"uint64"},{"name":"storeFrontPriceFactor","type":"uint64","internalType":"uint64"},{"name":"baseBorrowMin","type":"uint104","internalType":"uint104"},{"name":"targetReserves","type":"uint104","internalType":"uint104"}],"stateMutability":"view"},{"type":"function","name":"deploy","inputs":[{"name":"lendingProxy","type":"address","internalType":"address"}],"outputs":[{"name":"","type":"address","internalType":"address"}],"stateMutability":"nonpayable"},{"type":"function","name":"factory","inputs":[{"name":"","type":"address","internalType":"address"}],"outputs":[{"name":"","type":"address","internalType":"address"}],"stateMutability":"view"},{"type":"function","name":"getAssetIndex","inputs":[{"name":"lendingProxy","type":"address","internalType":"address"},{"name":"asset","type":"address","internalType":"address"}],"outputs":[{"name":"","type":"uint256","internalType":"uint256"}],"stateMutability":"view"},{"type":"function","name":"getConfiguration","inputs":[{"name":"lendingProxy","type":"address","internalType":"address"}],"outputs":[{"name":"","type":"tuple","internalType":"struct LendingConfiguration.Configuration","components":[{"name":"baseToken","type":"address","internalType":"address"},{"name":"lendingPriceSource","type":"address","internalType":"address"},{"name":"supplyKink","type":"uint64","internalType":"uint64"},{"name":"supplyPerYearInterestRateSlopeLow","type":"uint64","internalType":"uint64"},{"name":"supplyPerYearInterestRateSlopeHigh","type":"uint64","internalType":"uint64"},{"name":"supplyPerYearInterestRateBase","type":"uint64","internalType":"uint64"},{"name":"borrowKink","type":"uint64","internalType":"uint64"},{"name":"borrowPerYearInterestRateSlopeLow","type":"uint64","internalType":"uint64"},{"name":"borrowPerYearInterestRateSlopeHigh","type":"uint64","internalType":"uint64"},{"name":"borrowPerYearInterestRateBase","type":"uint64","internalType":"uint64"},{"name":"storeFrontPriceFactor","type":"uint64","internalType":"uint64"},{"name":"baseBorrowMin","type":"uint104","internalType":"uint104"},{"name":"targetReserves","type":"uint104","internalType":"uint104"},{"name":"assetConfigs","type":"tuple[]","internalType":"struct LendingConfiguration.AssetConfig[]","components":[{"name":"asset","type":"address","internalType":"address"},{"name":"decimals","type":"uint8","internalType":"uint8"},{"name":"borrowCollateralFactor","type":"uint64","internalType":"uint64"},{"name":"liquidateCollateralFactor","type":"uint64","internalType":"uint64"},{"name":"liquidationFactor","type":"uint64","internalType":"uint64"},{"name":"supplyCap","type":"uint128","internalType":"uint128"}]}]}],"stateMutability":"view"},{"type":"function","name":"initialize","inputs":[],"outputs":[],"stateMutability":"nonpayable"},{"type":"function","name":"owner","inputs":[],"outputs":[{"name":"","type":"address","internalType":"address"}],"stateMutability":"view"},{"type":"function","name":"proxiableUUID","inputs":[],"outputs":[{"name":"","type":"bytes32","internalType":"bytes32"}],"stateMutability":"view"},{"type":"function","name":"renounceOwnership","inputs":[],"outputs":[],"stateMutability":"nonpayable"},{"type":"function","name":"setConfiguration","inputs":[{"name":"lendingProxy","type":"address","internalType":"address"},{"name":"newConfiguration","type":"tuple","internalType":"struct LendingConfiguration.Configuration","components":[{"name":"baseToken","type":"address","internalType":"address"},{"name":"lendingPriceSource","type":"address","internalType":"address"},{"name":"supplyKink","type":"uint64","internalType":"uint64"},{"name":"supplyPerYearInterestRateSlopeLow","type":"uint64","internalType":"uint64"},{"name":"supplyPerYearInterestRateSlopeHigh","type":"uint64","internalType":"uint64"},{"name":"supplyPerYearInterestRateBase","type":"uint64","internalType":"uint64"},{"name":"borrowKink","type":"uint64","internalType":"uint64"},{"name":"borrowPerYearInterestRateSlopeLow","type":"uint64","internalType":"uint64"},{"name":"borrowPerYearInterestRateSlopeHigh","type":"uint64","internalType":"uint64"},{"name":"borrowPerYearInterestRateBase","type":"uint64","internalType":"uint64"},{"name":"storeFrontPriceFactor","type":"uint64","internalType":"uint64"},{"name":"baseBorrowMin","type":"uint104","internalType":"uint104"},{"name":"targetReserves","type":"uint104","internalType":"uint104"},{"name":"assetConfigs","type":"tuple[]","internalType":"struct LendingConfiguration.AssetConfig[]","components":[{"name":"asset","type":"address","internalType":"address"},{"name":"decimals","type":"uint8","internalType":"uint8"},{"name":"borrowCollateralFactor","type":"uint64","internalType":"uint64"},{"name":"liquidateCollateralFactor","type":"uint64","internalType":"uint64"},{"name":"liquidationFactor","type":"uint64","internalType":"uint64"},{"name":"supplyCap","type":"uint128","internalType":"uint128"}]}]}],"outputs":[],"stateMutability":"nonpayable"},{"type":"function","name":"setFactory","inputs":[{"name":"lendingProxy","type":"address","internalType":"address"},{"name":"newFactory","type":"address","internalType":"address"}],"outputs":[],"stateMutability":"nonpayable"},{"type":"function","name":"transferOwnership","inputs":[{"name":"newOwner","type":"address","internalType":"address"}],"outputs":[],"stateMutability":"nonpayable"},{"type":"function","name":"updateAsset","inputs":[{"name":"lendingProxy","type":"address","internalType":"address"},{"name":"newAssetConfig","type":"tuple","internalType":"struct LendingConfiguration.AssetConfig","components":[{"name":"asset","type":"address","internalType":"address"},{"name":"decimals","type":"uint8","internalType":"uint8"},{"name":"borrowCollateralFactor","type":"uint64","internalType":"uint64"},{"name":"liquidateCollateralFactor","type":"uint64","internalType":"uint64"},{"name":"liquidationFactor","type":"uint64","internalType":"uint64"},{"name":"supplyCap","type":"uint128","internalType":"uint128"}]}],"outputs":[],"stateMutability":"nonpayable"},{"type":"function","name":"updateAssetBorrowCollateralFactor","inputs":[{"name":"lendingProxy","type":"address","internalType":"address"},{"name":"asset","type":"address","internalType":"address"},{"name":"newBorrowCF","type":"uint64","internalType":"uint64"}],"outputs":[],"stateMutability":"nonpayable"},{"type":"function","name":"updateAssetSupplyCap","inputs":[{"name":"lendingProxy","type":"address","internalType":"address"},{"name":"asset","type":"address","internalType":"address"},{"name":"newSupplyCap","type":"uint128","internalType":"uint128"}],"outputs":[],"stateMutability":"nonpayable"},{"type":"function","name":"upgradeToAndCall","inputs":[{"name":"newImplementation","type":"address","internalType":"address"},{"name":"data","type":"bytes","internalType":"bytes"}],"outputs":[],"stateMutability":"payable"},{"type":"event","name":"AddAsset","inputs":[{"name":"lendingProxy","type":"address","indexed":true,"internalType":"address"},{"name":"assetConfig","type":"tuple","indexed":false,"internalType":"struct LendingConfiguration.AssetConfig","components":[{"name":"asset","type":"address","internalType":"address"},{"name":"decimals","type":"uint8","internalType":"uint8"},{"name":"borrowCollateralFactor","type":"uint64","internalType":"uint64"},{"name":"liquidateCollateralFactor","type":"uint64","internalType":"uint64"},{"name":"liquidationFactor","type":"uint64","internalType":"uint64"},{"name":"supplyCap","type":"uint128","internalType":"uint128"}]}],"anonymous":false},{"type":"event","name":"Initialized","inputs":[{"name":"version","type":"uint64","indexed":false,"internalType":"uint64"}],"anonymous":false},{"type":"event","name":"LendingDeployed","inputs":[{"name":"lendingProxy","type":"address","indexed":true,"internalType":"address"},{"name":"newLending","type":"address","indexed":true,"internalType":"address"}],"anonymous":false},{"type":"event","name":"OwnershipTransferred","inputs":[{"name":"previousOwner","type":"address","indexed":true,"internalType":"address"},{"name":"newOwner","type":"address","indexed":true,"internalType":"address"}],"anonymous":false},{"type":"event","name":"SetConfiguration","inputs":[{"name":"lendingProxy","type":"address","indexed":true,"internalType":"address"},{"name":"oldConfiguration","type":"tuple","indexed":false,"internalType":"struct LendingConfiguration.Configuration","components":[{"name":"baseToken","type":"address","internalType":"address"},{"name":"lendingPriceSource","type":"address","internalType":"address"},{"name":"supplyKink","type":"uint64","internalType":"uint64"},{"name":"supplyPerYearInterestRateSlopeLow","type":"uint64","internalType":"uint64"},{"name":"supplyPerYearInterestRateSlopeHigh","type":"uint64","internalType":"uint64"},{"name":"supplyPerYearInterestRateBase","type":"uint64","internalType":"uint64"},{"name":"borrowKink","type":"uint64","internalType":"uint64"},{"name":"borrowPerYearInterestRateSlopeLow","type":"uint64","internalType":"uint64"},{"name":"borrowPerYearInterestRateSlopeHigh","type":"uint64","internalType":"uint64"},{"name":"borrowPerYearInterestRateBase","type":"uint64","internalType":"uint64"},{"name":"storeFrontPriceFactor","type":"uint64","internalType":"uint64"},{"name":"baseBorrowMin","type":"uint104","internalType":"uint104"},{"name":"targetReserves","type":"uint104","internalType":"uint104"},{"name":"assetConfigs","type":"tuple[]","internalType":"struct LendingConfiguration.AssetConfig[]","components":[{"name":"asset","type":"address","internalType":"address"},{"name":"decimals","type":"uint8","internalType":"uint8"},{"name":"borrowCollateralFactor","type":"uint64","internalType":"uint64"},{"name":"liquidateCollateralFactor","type":"uint64","internalType":"uint64"},{"name":"liquidationFactor","type":"uint64","internalType":"uint64"},{"name":"supplyCap","type":"uint128","internalType":"uint128"}]}]},{"name":"newConfiguration","type":"tuple","indexed":false,"internalType":"struct LendingConfiguration.Configuration","components":[{"name":"baseToken","type":"address","internalType":"address"},{"name":"lendingPriceSource","type":"address","internalType":"address"},{"name":"supplyKink","type":"uint64","internalType":"uint64"},{"name":"supplyPerYearInterestRateSlopeLow","type":"uint64","internalType":"uint64"},{"name":"supplyPerYearInterestRateSlopeHigh","type":"uint64","internalType":"uint64"},{"name":"supplyPerYearInterestRateBase","type":"uint64","internalType":"uint64"},{"name":"borrowKink","type":"uint64","internalType":"uint64"},{"name":"borrowPerYearInterestRateSlopeLow","type":"uint64","internalType":"uint64"},{"name":"borrowPerYearInterestRateSlopeHigh","type":"uint64","internalType":"uint64"},{"name":"borrowPerYearInterestRateBase","type":"uint64","internalType":"uint64"},{"name":"storeFrontPriceFactor","type":"uint64","internalType":"uint64"},{"name":"baseBorrowMin","type":"uint104","internalType":"uint104"},{"name":"targetReserves","type":"uint104","internalType":"uint104"},{"name":"assetConfigs","type":"tuple[]","internalType":"struct LendingConfiguration.AssetConfig[]","components":[{"name":"asset","type":"address","internalType":"address"},{"name":"decimals","type":"uint8","internalType":"uint8"},{"name":"borrowCollateralFactor","type":"uint64","internalType":"uint64"},{"name":"liquidateCollateralFactor","type":"uint64","internalType":"uint64"},{"name":"liquidationFactor","type":"uint64","internalType":"uint64"},{"name":"supplyCap","type":"uint128","internalType":"uint128"}]}]}],"anonymous":false},{"type":"event","name":"SetFactory","inputs":[{"name":"lendingProxy","type":"address","indexed":true,"internalType":"address"},{"name":"oldFactory","type":"address","indexed":true,"internalType":"address"},{"name":"newFactory","type":"address","indexed":true,"internalType":"address"}],"anonymous":false},{"type":"event","name":"UpdateAsset","inputs":[{"name":"lendingProxy","type":"address","indexed":true,"internalType":"address"},{"name":"oldAssetConfig","type":"tuple","indexed":false,"internalType":"struct LendingConfiguration.AssetConfig","components":[{"name":"asset","type":"address","internalType":"address"},{"name":"decimals","type":"uint8","internalType":"uint8"},{"name":"borrowCollateralFactor","type":"uint64","internalType":"uint64"},{"name":"liquidateCollateralFactor","type":"uint64","internalType":"uint64"},{"name":"liquidationFactor","type":"uint64","internalType":"uint64"},{"name":"supplyCap","type":"uint128","internalType":"uint128"}]},{"name":"newAssetConfig","type":"tuple","indexed":false,"internalType":"struct LendingConfiguration.AssetConfig","components":[{"name":"asset","type":"address","internalType":"address"},{"name":"decimals","type":"uint8","internalType":"uint8"},{"name":"borrowCollateralFactor","type":"uint64","internalType":"uint64"},{"name":"liquidateCollateralFactor","type":"uint64","internalType":"uint64"},{"name":"liquidationFactor","type":"uint64","internalType":"uint64"},{"name":"supplyCap","type":"uint128","internalType":"uint128"}]}],"anonymous":false},{"type":"event","name":"Upgraded","inputs":[{"name":"implementation","type":"address","indexed":true,"internalType":"address"}],"anonymous":false},{"type":"error","name":"AddressEmptyCode","inputs":[{"name":"target","type":"address","internalType":"address"}]},{"type":"error","name":"AlreadyInitialized","inputs":[]},{"type":"error","name":"AssetDoesNotExist","inputs":[]},{"type":"error","name":"ConfigurationAlreadyExists","inputs":[]},{"type":"error","name":"ERC1967InvalidImplementation","inputs":[{"name":"implementation","type":"address","internalType":"address"}]},{"type":"error","name":"ERC1967NonPayable","inputs":[]},{"type":"error","name":"FailedCall","inputs":[]},{"type":"error","name":"InvalidAddress","inputs":[]},{"type":"error","name":"InvalidInitialization","inputs":[]},{"type":"error","name":"NotInitializing","inputs":[]},{"type":"error","name":"OwnableInvalidOwner","inputs":[{"name":"owner","type":"address","internalType":"address"}]},{"type":"error","name":"OwnableUnauthorizedAccount","inputs":[{"name":"account","type":"address","internalType":"address"}]},{"type":"error","name":"UUPSUnauthorizedCallContext","inputs":[]},{"type":"error","name":"UUPSUnsupportedProxiableUUID","inputs":[{"name":"slot","type":"bytes32","internalType":"bytes32"}]}],"bytecode":{"object":"0x60a080604052346100c257306080525f516020611fe55f395f51905f525460ff8160401c166100b3576002600160401b03196001600160401b03821601610060575b604051611f1e90816100c782396080518181816111d601526112a50152f35b6001600160401b0319166001600160401b039081175f516020611fe55f395f51905f525581527fc7f505b2f371ae2175ee4913f4499e1f2633a7b5936321eed1cdaeb6115181d290602090a15f80610041565b63f92ee8a960e01b5f5260045ffd5b5f80fdfe60806040526004361015610011575f80fd5b5f3560e01c806334a9608b14611586578063395c0fda146115475780634c96a3891461145a5780634f1ef2861461122a57806352d1902d146111c45780635e82556414611128578063715018a6146110c15780638129fc1c14610f6c578063886fe70b14610f385780638da5cb5b14610f04578063961544d514610df85780639c6a5082146104d6578063a2ced7fd14610455578063ad3cb1cc146103f7578063b73585f11461035d578063bba5cd36146102a8578063c44b11f71461010e5763f2fde38b146100df575f80fd5b3461010a57602036600319011261010a576101086100fb611763565b610103611dcc565b611d5b565b005b5f80fd5b3461010a57602036600319011261010a57610127611763565b60606101a0604051610138816117a3565b5f81525f60208201525f60408201525f838201525f60808201525f60a08201525f60c08201525f60e08201525f6101008201525f6101208201525f6101408201525f6101608201525f610180820152015260018060a01b03165f5260016020526102a460405f2061028a6005604051926101b1846117a3565b60018060a01b0381541684526001600160401b03600182015460018060a01b038116602087015260a01c16604085015260028101546001600160401b03811660608601526001600160401b038160401c1660808601526001600160401b038160801c1660a086015260c01c60c085015260038101546001600160401b03811660e08601526001600160401b038160401c166101008601526001600160401b038160801c1661012086015260c01c6101408501526001600160681b03600482015481811661016087015260681c1661018085015201611c29565b6101a0820152604051918291602083526020830190611874565b0390f35b3461010a5760e036600319011261010a576102c1611763565b60c036602319011261010a576102d5611dcc565b6001600160a01b03165f8181526001602052604090206005018054600160401b81101561034957610311816103179360016024940181556119d1565b90611a9b565b7ffb67a4c780e5dc26c7490ab9aee8cd865c2ddf116df482d2625dede37b93cef860c060405161034681611b99565ba2005b634e487b7160e01b5f52604160045260245ffd5b3461010a57606036600319011261010a57610376611763565b61037e611779565b604435906001600160401b038216820361010a57610108926103ab6103cb926103a5611dcc565b82611c8a565b6001600160a01b039091165f9081526001602052604090206005016119d1565b50805467ffffffffffffffff60a81b191660a89290921b67ffffffffffffffff60a81b16919091179055565b3461010a575f36600319011261010a57604080519061041681836117bf565b600582526020820191640352e302e360dc1b83528151928391602083525180918160208501528484015e5f828201840152601f01601f19168101030190f35b3461010a57606036600319011261010a5761046e611763565b610476611779565b90604435906001600160801b038216820361010a576104ba6001916104a0610108956103a5611dcc565b90838060a01b03165f5282602052600560405f20016119d1565b5001906001600160801b0382549181199060801b169116179055565b3461010a57604036600319011261010a576104ef611763565b6001600160401b036024351161010a576101c06024353603600319011261010a57610518611dcc565b60018060a01b0381165f52600160205260405f209061061860056040519361053f856117a3565b60018060a01b0381541685526001600160401b03600182015460018060a01b038116602088015260a01c16604086015260028101546001600160401b03811660608701526001600160401b038160401c1660808701526001600160401b038160801c1660a087015260c01c60c086015260038101546001600160401b03811660e08701526001600160401b038160401c166101008701526001600160401b038160801c1661012087015260c01c6101408601526001600160681b03600482015481811661016088015260681c1661018086015201611c29565b6101a083015281516001600160a01b03168015159081610dd7575b50610dc85760018060a01b0381165f526001602052600560405f205f81555f60018201555f60028201555f60038201555f6004820155018054905f815581610d7d575b50506106866024356004016119bd565b6001600160a01b038281165f90815260016020526040902080546001600160a01b031916929091169190911790556106c160248035016119bd565b6001600160a01b038281165f9081526001602081905260409091200180546001600160a01b03191692909116919091179055610701602435604401611a5f565b6001600160a01b0382165f90815260016020819052604090912001805467ffffffffffffffff60a01b191660a09290921b67ffffffffffffffff60a01b16919091179055610753602435606401611a5f565b60018060a01b0382165f5260016020526001600160401b03600260405f200191166001600160401b03198254161790556107b3610794608460243501611a5f565b6001600160a01b0383165f908152600160205260409020600201611a73565b6108096107c460a460243501611a5f565b6001600160a01b0383165f908152600160205260409020600201805467ffffffffffffffff60801b191660809290921b67ffffffffffffffff60801b16919091179055565b61085761081a60c460243501611a5f565b6001600160a01b0383165f90815260016020526040902060020180546001600160c01b031660c09290921b6001600160c01b031916919091179055565b61086560e460243501611a5f565b60018060a01b0382165f5260016020526001600160401b03600360405f200191166001600160401b03198254161790556108c66108a761010460243501611a5f565b6001600160a01b0383165f908152600160205260409020600301611a73565b61091d6108d861012460243501611a5f565b6001600160a01b0383165f908152600160205260409020600301805467ffffffffffffffff60801b191660809290921b67ffffffffffffffff60801b16919091179055565b61096c61092f61014460243501611a5f565b6001600160a01b0383165f90815260016020526040902060030180546001600160c01b031660c09290921b6001600160c01b031916919091179055565b61097b61016460243501611cfe565b60018060a01b0382165f5260016020526001600160681b03600460405f200191166001600160681b03198254161790556109ba61018460243501611cfe565b6001600160a01b0382165f90815260016020526040812060040180546cffffffffffffffffffffffffff60681b191660689390931b6cffffffffffffffffffffffffff60681b16929092179091555b610a1e6101a460243501602435600401611d12565b9050811015610aa7576001600160a01b0382165f90815260016020526040902060050190610a566024356101a4810190600401611d12565b821015610a9357825490600160401b82101561034957610a808260019586610a8d950181556119d1565b909160c085020191611a9b565b01610a09565b634e487b7160e01b5f52603260045260245ffd5b5090610abe60405191604083526040830190611874565b8181036020830152916001600160a01b03610add60046024350161178f565b1683526001600160a01b03610af5602480350161178f565b1660208401526001600160401b03610b116044602435016117fb565b1660408401526001600160401b03610b2d6064602435016117fb565b1660608401526001600160401b03610b496084602435016117fb565b1660808401526001600160401b03610b6560a4602435016117fb565b1660a08401526001600160401b03610b8160c4602435016117fb565b1660c08401526001600160401b03610b9d60e4602435016117fb565b1660e08401526001600160401b03610bba610104602435016117fb565b166101008401526001600160401b03610bd8610124602435016117fb565b166101208401526001600160401b03610bf6610144602435016117fb565b166101408401526001600160681b03610c1461016460243501611d47565b166101608401526001600160681b03610c3261018460243501611d47565b166101808401526024356101a48101359036036022190181121561010a5760243501602460048201359101936001600160401b03821161010a5760c082023603851361010a57806101c06101a06101e0930152826101c08201520193905f905b808210610ccb576001600160a01b0384167f5a2163f0f8b00cbad8b1a8437050df00e14a06c5ab5079e8725f01403080dcce86880387a2005b91949091906001600160a01b03610ce18761178f565b168152602086013560ff811680910361010a5760208201526001600160401b03610d0d604088016117fb565b1660408201526001600160401b03610d27606088016117fb565b1660608201526001600160401b03610d41608088016117fb565b16608082015260a0860135906001600160801b038216820361010a5760c080916001600160801b036001941660a0820152019601920190610c92565b6001600160ff1b0382168203610db4575f5260205f209060011b8101905b81811015610676575f8082556001820155600201610d9b565b634e487b7160e01b5f52601160045260245ffd5b630735e0fd60e51b5f5260045ffd5b90506001600160a01b03610def6004602435016119bd565b16141583610633565b3461010a57602036600319011261010a576001600160a01b03610e19611763565b165f5260016020526101a060405f206001600160681b0360018060a01b038254169160018101549060028101546001600160401b03600460038401549301549360405196875260018060a01b038116602088015260a01c1660408601526001600160401b03811660608601526001600160401b038160401c1660808601526001600160401b038160801c1660a086015260c01c60c08501526001600160401b03811660e08501526001600160401b038160401c166101008501526001600160401b038160801c1661012085015260c01c61014084015281811661016084015260681c16610180820152f35b3461010a575f36600319011261010a575f516020611e895f395f51905f52546040516001600160a01b039091168152602090f35b3461010a57604036600319011261010a576020610f64610f56611763565b610f5e611779565b90611c8a565b604051908152f35b3461010a575f36600319011261010a575f516020611ec95f395f51905f52546001600160401b0360ff8260401c16159116801590816110b9575b60011490816110af575b1590816110a6575b50611097578060016001600160401b03195f516020611ec95f395f51905f525416175f516020611ec95f395f51905f5255611067575b610ff6611dff565b610ffe611dff565b611006611dff565b61100f33611d5b565b61101557005b60ff60401b195f516020611ec95f395f51905f5254165f516020611ec95f395f51905f52557fc7f505b2f371ae2175ee4913f4499e1f2633a7b5936321eed1cdaeb6115181d2602060405160018152a1005b600160401b60ff60401b195f516020611ec95f395f51905f525416175f516020611ec95f395f51905f5255610fee565b63f92ee8a960e01b5f5260045ffd5b90501582610fb8565b303b159150610fb0565b829150610fa6565b3461010a575f36600319011261010a576110d9611dcc565b5f516020611e895f395f51905f5280546001600160a01b031981169091555f906001600160a01b03167f8be0079c531659141344cd1fd0a4f28419497f9722a3daafe3b4186f6b6457e08280a3005b3461010a57604036600319011261010a57611141611763565b611149611779565b611151611dcc565b6001600160a01b03169081156111b5576001600160a01b039081165f81815260208190526040812080546001600160a01b031981168617909155909216917fcc826d20934cb90e9329d09ff55b4e43831c5bb3a3305fb536842ad49041e7d59080a4005b63e6c4247b60e01b5f5260045ffd5b3461010a575f36600319011261010a577f00000000000000000000000000000000000000000000000000000000000000006001600160a01b0316300361121b5760206040515f516020611ea95f395f51905f528152f35b63703e46dd60e11b5f5260045ffd5b604036600319011261010a5761123e611763565b602435906001600160401b03821161010a573660238301121561010a5781600401359061126a826117e0565b9161127860405193846117bf565b8083526020830193366024838301011161010a57815f926024602093018737840101526001600160a01b037f000000000000000000000000000000000000000000000000000000000000000016308114908115611438575b5061121b576112dd611dcc565b6040516352d1902d60e01b81526001600160a01b0382169390602081600481885afa5f9181611404575b5061131f5784634c9c8ce360e01b5f5260045260245ffd5b805f516020611ea95f395f51905f528692036113f25750823b156113e0575f516020611ea95f395f51905f5280546001600160a01b031916821790557fbc7cd75a20ee27fd9adebab32041f755214dbc6bffa90cc0225b39da2e5c2d3b5f80a28251156113c7575f8091610108945190845af43d156113bf573d916113a3836117e0565b926113b160405194856117bf565b83523d5f602085013e611e2a565b606091611e2a565b505050346113d157005b63b398979f60e01b5f5260045ffd5b634c9c8ce360e01b5f5260045260245ffd5b632a87526960e21b5f5260045260245ffd5b9091506020813d602011611430575b81611420602093836117bf565b8101031261010a57519086611307565b3d9150611413565b5f516020611ea95f395f51905f52546001600160a01b031614159050846112d0565b3461010a57602036600319011261010a575f611474611763565b61147c611dcc565b6001600160a01b0390811680835260208381526040808520549051631dd70c0360e21b815294929391928592600492849291165af1801561153c575f906114f7575b6020925060018060a01b031680604051927f56aab5483cc40d7e4e6b3ce2831f55ce79d54c537d1c695c2d86656ce7a843075f80a38152f35b50906020813d602011611534575b81611512602093836117bf565b8101031261010a5751906001600160a01b038216820361010a576020916114be565b3d9150611505565b6040513d5f823e3d90fd5b3461010a57602036600319011261010a576001600160a01b03611568611763565b165f525f602052602060018060a01b0360405f205416604051908152f35b3461010a5760e036600319011261010a5761159f611763565b60c036602319011261010a576115b3611dcc565b602435906001600160a01b038216820361010a576115d18282611c8a565b9060018060a01b031691825f5260016020526116146115ff6115f984600560405f20016119d1565b506119ea565b92845f526001602052600560405f20016119d1565b9190916117505781546001600160a01b0319166001600160a01b039190911617815560443560ff8116810361010a57815460ff60a01b191660a09190911b60ff60a01b16178155606435906001600160401b038216820361010a57805467ffffffffffffffff60a81b191660a89290921b67ffffffffffffffff60a81b16919091178155600101906084356001600160401b038116810361010a57825467ffffffffffffffff19166001600160401b0391821617835560a435908116810361010a576116e09083611a73565b60c435906001600160801b038216820361010a57611737610180927f3b07b9330ad990913ec4c07125d35d475a2779cf5b2c0a595bfd5d45d84474b594906001600160801b0382549181199060801b169116179055565b611744604051809261180f565b61034660c08201611b99565b634e487b7160e01b5f525f60045260245ffd5b600435906001600160a01b038216820361010a57565b602435906001600160a01b038216820361010a57565b35906001600160a01b038216820361010a57565b6101c081019081106001600160401b0382111761034957604052565b90601f801991011681019081106001600160401b0382111761034957604052565b6001600160401b03811161034957601f01601f191660200190565b35906001600160401b038216820361010a57565b6001600160801b0360a08092600180831b03815116855260ff60208201511660208601526001600160401b0360408201511660408601526001600160401b0360608201511660608601526001600160401b036080820151166080860152015116910152565b60206101e06101a06101c085019360018060a01b03815116865260018060a01b038482015116848701526001600160401b0360408201511660408701526001600160401b0360608201511660608701526001600160401b0360808201511660808701526001600160401b0360a08201511660a08701526001600160401b0360c08201511660c08701526001600160401b0360e08201511660e08701526001600160401b03610100820151166101008701526001600160401b03610120820151166101208701526001600160401b03610140820151166101408701526001600160681b03610160820151166101608701526001600160681b03610180820151166101808701520151936101c06101a08201528451809452019201905f5b81811061199d5750505090565b909192602060c0826119b2600194885161180f565b019401929101611990565b356001600160a01b038116810361010a5790565b8054821015610a93575f5260205f209060011b01905f90565b9060405160c081018181106001600160401b038211176103495760405260a0600182946001600160401b0381548380861b038116865260ff81861c16602087015260a81c16604085015201546001600160401b03811660608401526001600160401b038160401c16608084015260801c910152565b356001600160401b038116810361010a5790565b9067ffffffffffffffff60401b82549160401b169067ffffffffffffffff60401b1916179055565b90611750576001600160a01b03611ab1836119bd565b82546001600160a01b0319169116178155602082013560ff8116810361010a57815460ff60a01b191660a091821b60ff60a01b1617825590600190611b23611afb60408601611a5f565b825467ffffffffffffffff60a81b191660a89190911b67ffffffffffffffff60a81b16178255565b01916001600160401b03611b3960608301611a5f565b166001600160401b0319845416178355611b5e611b5860808301611a5f565b84611a73565b01356001600160801b038116810361010a5781546001600160801b031660809190911b6fffffffffffffffffffffffffffffffff1916179055565b6024356001600160a01b0381169081900361010a57815260443560ff811680910361010a5760208201526064356001600160401b03811680910361010a5760408201526084356001600160401b03811680910361010a57606082015260a4356001600160401b03811680910361010a57608082015260c435906001600160801b03821680920361010a5760a00152565b9081546001600160401b0381116103495760405192611c4e60208360051b01856117bf565b81845260208401905f5260205f205f915b838310611c6c5750505050565b60026020600192611c7c856119ea565b815201920192019190611c5f565b6001600160a01b03165f908152600160205260409020611cac90600501611c29565b908151915f5b838110611cc8576367fa94e760e01b5f5260045ffd5b8151811015610a9357600581901b820160200151516001600160a01b03848116911614611cf757600101611cb2565b9250505090565b356001600160681b038116810361010a5790565b903590601e198136030182121561010a57018035906001600160401b03821161010a576020019160c082023603831361010a57565b35906001600160681b038216820361010a57565b6001600160a01b03168015611db9575f516020611e895f395f51905f5280546001600160a01b0319811683179091556001600160a01b03167f8be0079c531659141344cd1fd0a4f28419497f9722a3daafe3b4186f6b6457e05f80a3565b631e4fbdf760e01b5f525f60045260245ffd5b5f516020611e895f395f51905f52546001600160a01b03163303611dec57565b63118cdaa760e01b5f523360045260245ffd5b60ff5f516020611ec95f395f51905f525460401c1615611e1b57565b631afcd79f60e31b5f5260045ffd5b90611e4e5750805115611e3f57602081519101fd5b63d6bda27560e01b5f5260045ffd5b81511580611e7f575b611e5f575090565b639996b31560e01b5f9081526001600160a01b0391909116600452602490fd5b50803b15611e5756fe9016d09d72d40fdae2fd8ceac6b6234c7706214fd39c1cd1e609a0528c199300360894a13ba1a3210667c828492db98dca3e2076cc3735a920a3ca505d382bbcf0c57e16840df040f15088dc2f81fe391c3923bec73e23a9662efc9c229c6a00a26469706673582212206258c55c9238a8bc2c15309c35c14e5301cf435db9e964dda360496be300ed8364736f6c634300081e0033f0c57e16840df040f15088dc2f81fe391c3923bec73e23a9662efc9c229c6a00","linkReferences":{}},"methodIdentifiers":{"UPGRADE_INTERFACE_VERSION()":"ad3cb1cc","addAsset(address,(address,uint8,uint64,uint64,uint64,uint128))":"bba5cd36","configuratorParams(address)":"961544d5","deploy(address)":"4c96a389","factory(address)":"395c0fda","getAssetIndex(address,address)":"886fe70b","getConfiguration(address)":"c44b11f7","initialize()":"8129fc1c","owner()":"8da5cb5b","proxiableUUID()":"52d1902d","renounceOwnership()":"715018a6","setConfiguration(address,(address,address,uint64,uint64,uint64,uint64,uint64,uint64,uint64,uint64,uint64,uint104,uint104,(address,uint8,uint64,uint64,uint64,uint128)[]))":"9c6a5082","setFactory(address,address)":"5e825564","transferOwnership(address)":"f2fde38b","updateAsset(address,(address,uint8,uint64,uint64,uint64,uint128))":"34a9608b","updateAssetBorrowCollateralFactor(address,address,uint64)":"b73585f1","updateAssetSupplyCap(address,address,uint128)":"a2ced7fd","upgradeToAndCall(address,bytes)":"4f1ef286"},"id":2}