{"abi":[{"type":"constructor","inputs":[],"stateMutability":"nonpayable"},{"type":"function","name":"UPGRADE_INTERFACE_VERSION","inputs":[],"outputs":[{"name":"","type":"string","internalType":"string"}],"stateMutability":"view"},{"type":"function","name":"addVault","inputs":[{"name":"_vault","type":"address","internalType":"address"}],"outputs":[],"stateMutability":"nonpayable"},{"type":"function","name":"allowance","inputs":[{"name":"owner","type":"address","internalType":"address"},{"name":"spender","type":"address","internalType":"address"}],"outputs":[{"name":"","type":"uint256","internalType":"uint256"}],"stateMutability":"view"},{"type":"function","name":"approve","inputs":[{"name":"spender","type":"address","internalType":"address"},{"name":"value","type":"uint256","internalType":"uint256"}],"outputs":[{"name":"","type":"bool","internalType":"bool"}],"stateMutability":"nonpayable"},{"type":"function","name":"balanceOf","inputs":[{"name":"account","type":"address","internalType":"address"}],"outputs":[{"name":"","type":"uint256","internalType":"uint256"}],"stateMutability":"view"},{"type":"function","name":"burn","inputs":[{"name":"_account","type":"address","internalType":"address"},{"name":"_amount","type":"uint256","internalType":"uint256"}],"outputs":[],"stateMutability":"nonpayable"},{"type":"function","name":"decimals","inputs":[],"outputs":[{"name":"","type":"uint8","internalType":"uint8"}],"stateMutability":"view"},{"type":"function","name":"initialize","inputs":[],"outputs":[],"stateMutability":"nonpayable"},{"type":"function","name":"mint","inputs":[{"name":"_account","type":"address","internalType":"address"},{"name":"_amount","type":"uint256","internalType":"uint256"}],"outputs":[],"stateMutability":"nonpayable"},{"type":"function","name":"name","inputs":[],"outputs":[{"name":"","type":"string","internalType":"string"}],"stateMutability":"view"},{"type":"function","name":"owner","inputs":[],"outputs":[{"name":"","type":"address","internalType":"address"}],"stateMutability":"view"},{"type":"function","name":"proxiableUUID","inputs":[],"outputs":[{"name":"","type":"bytes32","internalType":"bytes32"}],"stateMutability":"view"},{"type":"function","name":"removeVault","inputs":[{"name":"_vault","type":"address","internalType":"address"}],"outputs":[],"stateMutability":"nonpayable"},{"type":"function","name":"renounceOwnership","inputs":[],"outputs":[],"stateMutability":"nonpayable"},{"type":"function","name":"symbol","inputs":[],"outputs":[{"name":"","type":"string","internalType":"string"}],"stateMutability":"view"},{"type":"function","name":"totalSupply","inputs":[],"outputs":[{"name":"","type":"uint256","internalType":"uint256"}],"stateMutability":"view"},{"type":"function","name":"transfer","inputs":[{"name":"to","type":"address","internalType":"address"},{"name":"value","type":"uint256","internalType":"uint256"}],"outputs":[{"name":"","type":"bool","internalType":"bool"}],"stateMutability":"nonpayable"},{"type":"function","name":"transferFrom","inputs":[{"name":"from","type":"address","internalType":"address"},{"name":"to","type":"address","internalType":"address"},{"name":"value","type":"uint256","internalType":"uint256"}],"outputs":[{"name":"","type":"bool","internalType":"bool"}],"stateMutability":"nonpayable"},{"type":"function","name":"transferOwnership","inputs":[{"name":"newOwner","type":"address","internalType":"address"}],"outputs":[],"stateMutability":"nonpayable"},{"type":"function","name":"upgradeToAndCall","inputs":[{"name":"newImplementation","type":"address","internalType":"address"},{"name":"data","type":"bytes","internalType":"bytes"}],"outputs":[],"stateMutability":"payable"},{"type":"function","name":"vaults","inputs":[{"name":"","type":"address","internalType":"address"}],"outputs":[{"name":"","type":"bool","internalType":"bool"}],"stateMutability":"view"},{"type":"event","name":"Approval","inputs":[{"name":"owner","type":"address","indexed":true,"internalType":"address"},{"name":"spender","type":"address","indexed":true,"internalType":"address"},{"name":"value","type":"uint256","indexed":false,"internalType":"uint256"}],"anonymous":false},{"type":"event","name":"Initialized","inputs":[{"name":"version","type":"uint64","indexed":false,"internalType":"uint64"}],"anonymous":false},{"type":"event","name":"OwnershipTransferred","inputs":[{"name":"previousOwner","type":"address","indexed":true,"internalType":"address"},{"name":"newOwner","type":"address","indexed":true,"internalType":"address"}],"anonymous":false},{"type":"event","name":"Transfer","inputs":[{"name":"from","type":"address","indexed":true,"internalType":"address"},{"name":"to","type":"address","indexed":true,"internalType":"address"},{"name":"value","type":"uint256","indexed":false,"internalType":"uint256"}],"anonymous":false},{"type":"event","name":"Upgraded","inputs":[{"name":"implementation","type":"address","indexed":true,"internalType":"address"}],"anonymous":false},{"type":"event","name":"VaultAdded","inputs":[{"name":"vault","type":"address","indexed":true,"internalType":"address"}],"anonymous":false},{"type":"event","name":"VaultRemoved","inputs":[{"name":"vault","type":"address","indexed":true,"internalType":"address"}],"anonymous":false},{"type":"error","name":"AddressEmptyCode","inputs":[{"name":"target","type":"address","internalType":"address"}]},{"type":"error","name":"ERC1967InvalidImplementation","inputs":[{"name":"implementation","type":"address","internalType":"address"}]},{"type":"error","name":"ERC1967NonPayable","inputs":[]},{"type":"error","name":"ERC20InsufficientAllowance","inputs":[{"name":"spender","type":"address","internalType":"address"},{"name":"allowance","type":"uint256","internalType":"uint256"},{"name":"needed","type":"uint256","internalType":"uint256"}]},{"type":"error","name":"ERC20InsufficientBalance","inputs":[{"name":"sender","type":"address","internalType":"address"},{"name":"balance","type":"uint256","internalType":"uint256"},{"name":"needed","type":"uint256","internalType":"uint256"}]},{"type":"error","name":"ERC20InvalidApprover","inputs":[{"name":"approver","type":"address","internalType":"address"}]},{"type":"error","name":"ERC20InvalidReceiver","inputs":[{"name":"receiver","type":"address","internalType":"address"}]},{"type":"error","name":"ERC20InvalidSender","inputs":[{"name":"sender","type":"address","internalType":"address"}]},{"type":"error","name":"ERC20InvalidSpender","inputs":[{"name":"spender","type":"address","internalType":"address"}]},{"type":"error","name":"FailedCall","inputs":[]},{"type":"error","name":"Forbidden","inputs":[]},{"type":"error","name":"InvalidInitialization","inputs":[]},{"type":"error","name":"InvalidVault","inputs":[]},{"type":"error","name":"NotInitializing","inputs":[]},{"type":"error","name":"OwnableInvalidOwner","inputs":[{"name":"owner","type":"address","internalType":"address"}]},{"type":"error","name":"OwnableUnauthorizedAccount","inputs":[{"name":"account","type":"address","internalType":"address"}]},{"type":"error","name":"UUPSUnauthorizedCallContext","inputs":[]},{"type":"error","name":"UUPSUnsupportedProxiableUUID","inputs":[{"name":"slot","type":"bytes32","internalType":"bytes32"}]}],"bytecode":{"object":"0x60a080604052346100c257306080525f5160206114e25f395f51905f525460ff8160401c166100b3576002600160401b03196001600160401b03821601610060575b60405161141b90816100c782396080518181816109e10152610ab10152f35b6001600160401b0319166001600160401b039081175f5160206114e25f395f51905f525581527fc7f505b2f371ae2175ee4913f4499e1f2633a7b5936321eed1cdaeb6115181d290602090a15f80610041565b63f92ee8a960e01b5f5260045ffd5b5f80fdfe60806040526004361015610011575f80fd5b5f3560e01c806306fdde0314610f59578063095ea7b314610eda57806318160ddd14610eb157806323b872dd14610dd9578063256b5a0214610d5e578063313ce56714610d4357806340c10f1914610c665780634f1ef28614610a3557806352d1902d146109cf57806370a082311461098b578063715018a6146109245780638129fc1c146104b15780638da5cb5b1461047d57806395d89b411461038f5780639dc29fac1461028b578063a622ee7c1461024f578063a9059cbb1461021e578063ad3cb1cc146101db578063ceb68c2314610176578063dd62ed3e1461012f5763f2fde38b14610100575f80fd5b3461012b57602036600319011261012b5761012961011c611040565b610124611249565b61111a565b005b5f80fd5b3461012b57604036600319011261012b57610148611040565b610159610153611056565b916110aa565b9060018060a01b03165f52602052602060405f2054604051908152f35b3461012b57602036600319011261012b5761018f611040565b610197611249565b6001600160a01b03165f818152602081905260408120805460ff191690557fe71f3a50e5ad81964f352c411f1d45e35438ecd1acecef59ac81d9fbbf6cbc0a9080a2005b3461012b575f36600319011261012b5761021a6040516101fc60408261106c565b60058152640352e302e360dc1b602082015260405191829182611016565b0390f35b3461012b57604036600319011261012b5761024461023a611040565b602435903361118b565b602060405160018152f35b3461012b57602036600319011261012b576001600160a01b03610270611040565b165f525f602052602060ff60405f2054166040519015158152f35b3461012b57604036600319011261012b576102a4611040565b60243590335f525f60205260ff60405f20541615610380576001600160a01b0316801561036d57805f525f5160206113265f395f51905f5260205260405f2054828110610354576020835f947fddf252ad1be2c89b69c2b068fc378daa952ba7f163c4a11628f55a4df523b3ef938587525f5160206113265f395f51905f528452036040862055805f5160206113865f395f51905f5254035f5160206113865f395f51905f5255604051908152a3005b9063391434e360e21b5f5260045260245260445260645ffd5b634b637e8f60e11b5f525f60045260245ffd5b631dd2188d60e31b5f5260045ffd5b3461012b575f36600319011261012b576040515f5f5160206113465f395f51905f52546103bb816110e2565b808452906001811690811561045957506001146103ef575b61021a836103e38185038261106c565b60405191829182611016565b5f5160206113465f395f51905f525f9081527f46a2803e59a4de4e7a4c574b1243f25977ac4c77d5a1a4a609b5394cebb4a2aa939250905b80821061043f575090915081016020016103e36103d3565b919260018160209254838588010152019101909291610427565b60ff191660208086019190915291151560051b840190910191506103e390506103d3565b3461012b575f36600319011261012b575f5160206113665f395f51905f52546040516001600160a01b039091168152602090f35b3461012b575f36600319011261012b575f5160206113c65f395f51905f525460ff8160401c16159067ffffffffffffffff81168015908161091c575b6001149081610912575b159081610909575b506108fa5767ffffffffffffffff1981166001175f5160206113c65f395f51905f5255816108ce575b50604090815191610539818461106c565b60068352651655081554d160d21b6020840152805191610559828461106c565b60048352635553445960e01b602084015261057261127c565b61057a61127c565b835167ffffffffffffffff81116107c5576105a25f5160206113065f395f51905f52546110e2565b601f811161085f575b50602094601f82116001146107e4579481929394955f926107d9575b50508160011b915f199060031b1c1916175f5160206113065f395f51905f52555b825167ffffffffffffffff81116107c5576106105f5160206113465f395f51905f52546110e2565b601f8111610756575b506020601f82116001146106db57819293945f926106d0575b50508160011b915f199060031b1c1916175f5160206113465f395f51905f52555b61065b61127c565b61066361127c565b61066c3361111a565b61067461127c565b61067a57005b60207fc7f505b2f371ae2175ee4913f4499e1f2633a7b5936321eed1cdaeb6115181d29168ff0000000000000000195f5160206113c65f395f51905f5254165f5160206113c65f395f51905f52555160018152a1005b015190508480610632565b601f198216905f5160206113465f395f51905f525f52805f20915f5b81811061073e57509583600195969710610726575b505050811b015f5160206113465f395f51905f5255610653565b01515f1960f88460031b161c1916905584808061070c565b9192602060018192868b0151815501940192016106f7565b5f5160206113465f395f51905f525f527f46a2803e59a4de4e7a4c574b1243f25977ac4c77d5a1a4a609b5394cebb4a2aa601f830160051c810191602084106107bb575b601f0160051c01905b8181106107b05750610619565b5f81556001016107a3565b909150819061079a565b634e487b7160e01b5f52604160045260245ffd5b0151905085806105c7565b601f198216955f5160206113065f395f51905f525f52805f20915f5b8881106108475750836001959697981061082f575b505050811b015f5160206113065f395f51905f52556105e8565b01515f1960f88460031b161c19169055858080610815565b91926020600181928685015181550194019201610800565b5f5160206113065f395f51905f525f527f2ae08a8e29253f69ac5d979a101956ab8f8d9d7ded63fa7a83b16fc47648eab0601f830160051c810191602084106108c4575b601f0160051c01905b8181106108b957506105ab565b5f81556001016108ac565b90915081906108a3565b68ffffffffffffffffff191668010000000000000001175f5160206113c65f395f51905f525581610528565b63f92ee8a960e01b5f5260045ffd5b905015836104ff565b303b1591506104f7565b8391506104ed565b3461012b575f36600319011261012b5761093c611249565b5f5160206113665f395f51905f5280546001600160a01b031981169091555f906001600160a01b03167f8be0079c531659141344cd1fd0a4f28419497f9722a3daafe3b4186f6b6457e08280a3005b3461012b57602036600319011261012b576001600160a01b036109ac611040565b165f525f5160206113265f395f51905f52602052602060405f2054604051908152f35b3461012b575f36600319011261012b577f00000000000000000000000000000000000000000000000000000000000000006001600160a01b03163003610a265760206040515f5160206113a65f395f51905f528152f35b63703e46dd60e11b5f5260045ffd5b604036600319011261012b57610a49611040565b6024359067ffffffffffffffff821161012b573660238301121561012b57816004013590610a768261108e565b91610a84604051938461106c565b8083526020830193366024838301011161012b57815f926024602093018737840101526001600160a01b037f000000000000000000000000000000000000000000000000000000000000000016308114908115610c44575b50610a2657610ae9611249565b6040516352d1902d60e01b81526001600160a01b0382169390602081600481885afa5f9181610c10575b50610b2b5784634c9c8ce360e01b5f5260045260245ffd5b805f5160206113a65f395f51905f52869203610bfe5750823b15610bec575f5160206113a65f395f51905f5280546001600160a01b031916821790557fbc7cd75a20ee27fd9adebab32041f755214dbc6bffa90cc0225b39da2e5c2d3b5f80a2825115610bd3575f8091610129945190845af43d15610bcb573d91610baf8361108e565b92610bbd604051948561106c565b83523d5f602085013e6112a7565b6060916112a7565b50505034610bdd57005b63b398979f60e01b5f5260045ffd5b634c9c8ce360e01b5f5260045260245ffd5b632a87526960e21b5f5260045260245ffd5b9091506020813d602011610c3c575b81610c2c6020938361106c565b8101031261012b57519086610b13565b3d9150610c1f565b5f5160206113a65f395f51905f52546001600160a01b03161415905084610adc565b3461012b57604036600319011261012b57610c7f611040565b60243590335f525f60205260ff60405f20541615610380576001600160a01b0316908115610d30575f5160206113865f395f51905f525490808201809211610d1c5760207fddf252ad1be2c89b69c2b068fc378daa952ba7f163c4a11628f55a4df523b3ef915f935f5160206113865f395f51905f52558484525f5160206113265f395f51905f52825260408420818154019055604051908152a3005b634e487b7160e01b5f52601160045260245ffd5b63ec442f0560e01b5f525f60045260245ffd5b3461012b575f36600319011261012b57602060405160128152f35b3461012b57602036600319011261012b57610d77611040565b610d7f611249565b6001600160a01b03168015610dca57805f525f60205260405f20600160ff198254161790557f7b7ef7a864d96a85497a1ed846adb39940dd6ccef678ff6ac8d55505e09b8cc45f80a2005b630681d31960e51b5f5260045ffd5b3461012b57606036600319011261012b57610df2611040565b610dfa611056565b60443590610e07836110aa565b335f9081526020919091526040902054925f198410610e2b575b610244935061118b565b828410610e96576001600160a01b03811615610e83573315610e705761024493610e54826110aa565b60018060a01b0333165f526020528360405f2091039055610e21565b634a1406b160e11b5f525f60045260245ffd5b63e602df0560e01b5f525f60045260245ffd5b8284637dc7a0d960e11b5f523360045260245260445260645ffd5b3461012b575f36600319011261012b5760205f5160206113865f395f51905f5254604051908152f35b3461012b57604036600319011261012b57610ef3611040565b602435903315610e83576001600160a01b0316908115610e7057610f16336110aa565b825f526020528060405f20556040519081527f8c5be1e5ebec7d5bd14f71427d1e84f3dd0314c0f7b2291e5b200ac8c7c3b92560203392a3602060405160018152f35b3461012b575f36600319011261012b576040515f5f5160206113065f395f51905f5254610f85816110e2565b80845290600181169081156104595750600114610fac5761021a836103e38185038261106c565b5f5160206113065f395f51905f525f9081527f2ae08a8e29253f69ac5d979a101956ab8f8d9d7ded63fa7a83b16fc47648eab0939250905b808210610ffc575090915081016020016103e36103d3565b919260018160209254838588010152019101909291610fe4565b602060409281835280519182918282860152018484015e5f828201840152601f01601f1916010190565b600435906001600160a01b038216820361012b57565b602435906001600160a01b038216820361012b57565b90601f8019910116810190811067ffffffffffffffff8211176107c557604052565b67ffffffffffffffff81116107c557601f01601f191660200190565b6001600160a01b03165f9081527f52c63247e1f47db19d5ce0460030c497f067ca4cebf71ba98eeadabe20bace016020526040902090565b90600182811c92168015611110575b60208310146110fc57565b634e487b7160e01b5f52602260045260245ffd5b91607f16916110f1565b6001600160a01b03168015611178575f5160206113665f395f51905f5280546001600160a01b0319811683179091556001600160a01b03167f8be0079c531659141344cd1fd0a4f28419497f9722a3daafe3b4186f6b6457e05f80a3565b631e4fbdf760e01b5f525f60045260245ffd5b6001600160a01b031690811561036d576001600160a01b0316918215610d3057815f525f5160206113265f395f51905f5260205260405f205481811061123057817fddf252ad1be2c89b69c2b068fc378daa952ba7f163c4a11628f55a4df523b3ef92602092855f525f5160206113265f395f51905f5284520360405f2055845f525f5160206113265f395f51905f52825260405f20818154019055604051908152a3565b8263391434e360e21b5f5260045260245260445260645ffd5b5f5160206113665f395f51905f52546001600160a01b0316330361126957565b63118cdaa760e01b5f523360045260245ffd5b60ff5f5160206113c65f395f51905f525460401c161561129857565b631afcd79f60e31b5f5260045ffd5b906112cb57508051156112bc57602081519101fd5b63d6bda27560e01b5f5260045ffd5b815115806112fc575b6112dc575090565b639996b31560e01b5f9081526001600160a01b0391909116600452602490fd5b50803b156112d456fe52c63247e1f47db19d5ce0460030c497f067ca4cebf71ba98eeadabe20bace0352c63247e1f47db19d5ce0460030c497f067ca4cebf71ba98eeadabe20bace0052c63247e1f47db19d5ce0460030c497f067ca4cebf71ba98eeadabe20bace049016d09d72d40fdae2fd8ceac6b6234c7706214fd39c1cd1e609a0528c19930052c63247e1f47db19d5ce0460030c497f067ca4cebf71ba98eeadabe20bace02360894a13ba1a3210667c828492db98dca3e2076cc3735a920a3ca505d382bbcf0c57e16840df040f15088dc2f81fe391c3923bec73e23a9662efc9c229c6a00a2646970667358221220756dc0bd6bf1a823dfcc0db8290df6e28e02994f66be5baedaed4f963b0faa4464736f6c634300081e0033f0c57e16840df040f15088dc2f81fe391c3923bec73e23a9662efc9c229c6a00","linkReferences":{}},"methodIdentifiers":{"UPGRADE_INTERFACE_VERSION()":"ad3cb1cc","addVault(address)":"256b5a02","allowance(address,address)":"dd62ed3e","approve(address,uint256)":"095ea7b3","balanceOf(address)":"70a08231","burn(address,uint256)":"9dc29fac","decimals()":"313ce567","initialize()":"8129fc1c","mint(address,uint256)":"40c10f19","name()":"06fdde03","owner()":"8da5cb5b","proxiableUUID()":"52d1902d","removeVault(address)":"ceb68c23","renounceOwnership()":"715018a6","symbol()":"95d89b41","totalSupply()":"18160ddd","transfer(address,uint256)":"a9059cbb","transferFrom(address,address,uint256)":"23b872dd","transferOwnership(address)":"f2fde38b","upgradeToAndCall(address,bytes)":"4f1ef286","vaults(address)":"a622ee7c"},"id":20}